{
  "_format": "hh-sol-artifact-1",
  "contractName": "ModulsDeployer",
  "sourceName": "contracts/ModulsDeployer.sol",
  "abi": [
    {
      "anonymous": false,
      "inputs": [
        {
          "indexed": true,
          "internalType": "address",
          "name": "tokenAddress",
          "type": "address"
        },
        {
          "indexed": false,
          "internalType": "string",
          "name": "name",
          "type": "string"
        },
        {
          "indexed": false,
          "internalType": "string",
          "name": "symbol",
          "type": "string"
        },
        {
          "indexed": false,
          "internalType": "uint256",
          "name": "initialSupply",
          "type": "uint256"
        },
        {
          "indexed": false,
          "internalType": "address",
          "name": "agentWallet",
          "type": "address"
        },
        {
          "indexed": false,
          "internalType": "address",
          "name": "salesManager",
          "type": "address"
        },
        {
          "indexed": false,
          "internalType": "uint8",
          "name": "taxPercent",
          "type": "uint8"
        },
        {
          "indexed": false,
          "internalType": "uint8",
          "name": "agentSplit",
          "type": "uint8"
        },
        {
          "indexed": false,
          "internalType": "uint256",
          "name": "intentId",
          "type": "uint256"
        },
        {
          "indexed": false,
          "internalType": "string",
          "name": "metadataURI",
          "type": "string"
        },
        {
          "indexed": true,
          "internalType": "address",
          "name": "creator",
          "type": "address"
        }
      ],
      "name": "ModulsTokenCreated",
      "type": "event"
    },
    {
      "inputs": [
        {
          "internalType": "string",
          "name": "name",
          "type": "string"
        },
        {
          "internalType": "string",
          "name": "symbol",
          "type": "string"
        },
        {
          "internalType": "uint256",
          "name": "initialSupply",
          "type": "uint256"
        },
        {
          "internalType": "address",
          "name": "agentWallet",
          "type": "address"
        },
        {
          "internalType": "address",
          "name": "salesManager",
          "type": "address"
        },
        {
          "internalType": "uint8",
          "name": "taxPercent",
          "type": "uint8"
        },
        {
          "internalType": "uint8",
          "name": "agentSplit",
          "type": "uint8"
        },
        {
          "internalType": "uint256",
          "name": "intentId",
          "type": "uint256"
        },
        {
          "internalType": "string",
          "name": "metadataURI",
          "type": "string"
        }
      ],
      "name": "deployToken",
      "outputs": [
        {
          "internalType": "address",
          "name": "",
          "type": "address"
        }
      ],
      "stateMutability": "nonpayable",
      "type": "function"
    },
    {
      "inputs": [
        {
          "internalType": "uint256",
          "name": "",
          "type": "uint256"
        }
      ],
      "name": "deployedTokens",
      "outputs": [
        {
          "internalType": "address",
          "name": "",
          "type": "address"
        }
      ],
      "stateMutability": "view",
      "type": "function"
    },
    {
      "inputs": [],
      "name": "getDeployedTokens",
      "outputs": [
        {
          "internalType": "address[]",
          "name": "",
          "type": "address[]"
        }
      ],
      "stateMutability": "view",
      "type": "function"
    },
    {
      "inputs": [
        {
          "internalType": "address",
          "name": "",
          "type": "address"
        }
      ],
      "name": "tokenCreators",
      "outputs": [
        {
          "internalType": "address",
          "name": "",
          "type": "address"
        }
      ],
      "stateMutability": "view",
      "type": "function"
    },
    {
      "inputs": [
        {
          "internalType": "uint256",
          "name": "",
          "type": "uint256"
        }
      ],
      "name": "usedIntentIds",
      "outputs": [
        {
          "internalType": "bool",
          "name": "",
          "type": "bool"
        }
      ],
      "stateMutability": "view",
      "type": "function"
    }
  ],
  "bytecode": "0x608060405234801561001057600080fd5b50611e30806100206000396000f3fe60806040523480156200001157600080fd5b50600436106200006f5760003560e01c80638e6ce74b11620000565780638e6ce74b14620000c1578063ce7e8de814620000f8578063ec81aadb146200012457600080fd5b8063580dd9651462000074578063622ae7aa14620000a8575b600080fd5b6200008b620000853660046200048e565b6200013b565b6040516001600160a01b0390911681526020015b60405180910390f35b620000b2620002fe565b6040516200009f91906200057f565b620000e7620000d2366004620005ce565b60026020526000908152604090205460ff1681565b60405190151581526020016200009f565b6200008b62000109366004620005e8565b6001602052600090815260409020546001600160a01b031681565b6200008b62000135366004620005ce565b62000362565b60008281526002602052604081205460ff1615620001b9576040517f08c379a000000000000000000000000000000000000000000000000000000000815260206004820152601760248201527f496e74656e74496420616c726561647920657869737473000000000000000000604482015260640160405180910390fd5b600083815260026020526040808220805460ff19166001179055518b908b908b908b9033908c908c908c908c908c90620001f3906200038d565b620002089a9998979695949392919062000655565b604051809103906000f08015801562000225573d6000803e3d6000fd5b5060008054600180820183557f290decd9548b62a8d60345a988386fc84ba6bc95484008f6362f93160ef3e56390910180547fffffffffffffffffffffffff00000000000000000000000000000000000000009081166001600160a01b0386169081179092558184526020929092526040928390208054339316831790559151929350917f760cdaed5e05f2a9ed64c5a3aa2e865755608d62ea80b7a34c2d768dcc7850e590620002e8908f908f908f908f908f908f908f908f908f90620006e9565b60405180910390a39a9950505050505050505050565b606060008054806020026020016040519081016040528092919081815260200182805480156200035857602002820191906000526020600020905b81546001600160a01b0316815260019091019060200180831162000339575b5050505050905090565b600081815481106200037357600080fd5b6000918252602090912001546001600160a01b0316905081565b611687806200077483390190565b7f4e487b7100000000000000000000000000000000000000000000000000000000600052604160045260246000fd5b600082601f830112620003dc57600080fd5b813567ffffffffffffffff80821115620003fa57620003fa6200039b565b604051601f8301601f19908116603f011681019082821181831017156200042557620004256200039b565b816040528381528660208588010111156200043f57600080fd5b836020870160208301376000602085830101528094505050505092915050565b80356001600160a01b03811681146200047757600080fd5b919050565b803560ff811681146200047757600080fd5b60008060008060008060008060006101208a8c031215620004ae57600080fd5b893567ffffffffffffffff80821115620004c757600080fd5b620004d58d838e01620003ca565b9a5060208c0135915080821115620004ec57600080fd5b620004fa8d838e01620003ca565b995060408c013598506200051160608d016200045f565b97506200052160808d016200045f565b96506200053160a08d016200047c565b95506200054160c08d016200047c565b945060e08c013593506101008c01359150808211156200056057600080fd5b506200056f8c828d01620003ca565b9150509295985092959850929598565b6020808252825182820181905260009190848201906040850190845b81811015620005c25783516001600160a01b0316835292840192918401916001016200059b565b50909695505050505050565b600060208284031215620005e157600080fd5b5035919050565b600060208284031215620005fb57600080fd5b62000606826200045f565b9392505050565b6000815180845260005b81811015620006355760208185018101518683018201520162000617565b506000602082860101526020601f19601f83011685010191505092915050565b60006101408083526200066b8184018e6200060d565b9050828103602084015262000681818d6200060d565b90508a60408401526001600160a01b03808b166060850152808a16608085015280891660a08501525060ff871660c084015260ff861660e084015284610100840152828103610120840152620006d881856200060d565b9d9c50505050505050505050505050565b6000610120808352620006ff8184018d6200060d565b9050828103602084015262000715818c6200060d565b90508960408401526001600160a01b03808a16606085015280891660808501525060ff871660a084015260ff861660c08401528460e08401528281036101008401526200076381856200060d565b9c9b50505050505050505050505056fe60806040523480156200001157600080fd5b506040516200168738038062001687833981016040819052620000349162000558565b732396d72c6da898c43023f6c66344a143c0d6278f8a8a6003620000598382620006ed565b506004620000688282620006ed565b5050506001600160a01b0381166200009b57604051631e4fbdf760e01b8152600060048201526024015b60405180910390fd5b620000a68162000299565b50600a8460ff161115620000ee5760405162461bcd60e51b815260206004820152600e60248201526d4d6178207461782069732031302560901b604482015260640162000092565b60648360ff161115620001445760405162461bcd60e51b815260206004820152601a60248201527f4167656e742073706c6974206d757374206265203c3d20313030000000000000604482015260640162000092565b600680546001600160a01b03808a166001600160a01b0319909216919091179091556007805460ff868116600160a81b0260ff60a81b19918916600160a01b026001600160a81b0319909316948a1694909417919091171691909117905560088290556009620001b58282620006ed565b50732396d72c6da898c43023f6c66344a143c0d6278f600052600a6020527f4bd1e673b1af9eb5b7ec56ead3ade5eee671ae9a8b5c5c15d26541132a9d4505805460ff191660011790556200020b8589620002eb565b6200022a732396d72c6da898c43023f6c66344a143c0d6278f62000299565b856001600160a01b0316876001600160a01b0316306001600160a01b03167ff0a177056164b5408709a56e7d7fd0db5755744dea99254ddb73f9eb73878c3f888888888860405162000281959493929190620007b9565b60405180910390a45050505050505050505062000840565b600580546001600160a01b038381166001600160a01b0319831681179093556040519116919082907f8be0079c531659141344cd1fd0a4f28419497f9722a3daafe3b4186f6b6457e090600090a35050565b6001600160a01b038216620003175760405163ec442f0560e01b81526000600482015260240162000092565b620003256000838362000329565b5050565b6001600160a01b038316620003585780600260008282546200034c919062000818565b90915550620003cc9050565b6001600160a01b03831660009081526020819052604090205481811015620003ad5760405163391434e360e21b81526001600160a01b0385166004820152602481018290526044810183905260640162000092565b6001600160a01b03841660009081526020819052604090209082900390555b6001600160a01b038216620003ea5760028054829003905562000409565b6001600160a01b03821660009081526020819052604090208054820190555b816001600160a01b0316836001600160a01b03167fddf252ad1be2c89b69c2b068fc378daa952ba7f163c4a11628f55a4df523b3ef836040516200044f91815260200190565b60405180910390a3505050565b634e487b7160e01b600052604160045260246000fd5b60005b838110156200048f57818101518382015260200162000475565b50506000910152565b600082601f830112620004aa57600080fd5b81516001600160401b0380821115620004c757620004c76200045c565b604051601f8301601f19908116603f01168101908282118183101715620004f257620004f26200045c565b816040528381528660208588010111156200050c57600080fd5b6200051f84602083016020890162000472565b9695505050505050565b80516001600160a01b03811681146200054157600080fd5b919050565b805160ff811681146200054157600080fd5b6000806000806000806000806000806101408b8d0312156200057957600080fd5b8a516001600160401b03808211156200059157600080fd5b6200059f8e838f0162000498565b9b5060208d0151915080821115620005b657600080fd5b620005c48e838f0162000498565b9a5060408d01519950620005db60608e0162000529565b9850620005eb60808e0162000529565b9750620005fb60a08e0162000529565b96506200060b60c08e0162000546565b95506200061b60e08e0162000546565b94506101008d015193506101208d01519150808211156200063b57600080fd5b506200064a8d828e0162000498565b9150509295989b9194979a5092959850565b600181811c908216806200067157607f821691505b6020821081036200069257634e487b7160e01b600052602260045260246000fd5b50919050565b601f821115620006e8576000816000526020600020601f850160051c81016020861015620006c35750805b601f850160051c820191505b81811015620006e457828155600101620006cf565b5050505b505050565b81516001600160401b038111156200070957620007096200045c565b62000721816200071a84546200065c565b8462000698565b602080601f831160018114620007595760008415620007405750858301515b600019600386901b1c1916600185901b178555620006e4565b600085815260208120601f198616915b828110156200078a5788860151825594840194600190910190840162000769565b5085821015620007a95787850151600019600388901b60f8161c191681555b5050505050600190811b01905550565b60018060a01b038616815260ff8516602082015260ff8416604082015282606082015260a06080820152600082518060a0840152620008008160c085016020870162000472565b601f01601f19169190910160c0019695505050505050565b808201808211156200083a57634e487b7160e01b600052601160045260246000fd5b92915050565b610e3780620008506000396000f3fe608060405234801561001057600080fd5b50600436106101985760003560e01c806370a08231116100e3578063a3ada2d71161008c578063dd62ed3e11610066578063dd62ed3e1461035a578063f2fde38b14610393578063f83a27cd146103a657600080fd5b8063a3ada2d714610319578063a9059cbb1461032c578063c1d0a7d81461033f57600080fd5b80638456cb59116100bd5780638456cb59146102f85780638da5cb5b1461030057806395d89b411461031157600080fd5b806370a08231146102b3578063715018a6146102dc5780637541f41c146102e457600080fd5b806324d7806c116101455780633f6dfdbc1161011f5780633f6dfdbc146102635780634b0bddd21461028e5780635c975abb146102a157600080fd5b806324d7806c14610218578063313ce567146102445780633f4ba83a1461025957600080fd5b80630ada1b8a116101765780630ada1b8a146101e657806318160ddd146101fd57806323b872dd1461020557600080fd5b806303ee438c1461019d57806306fdde03146101bb578063095ea7b3146101c3575b600080fd5b6101a56103cc565b6040516101b29190610c44565b60405180910390f35b6101a561045a565b6101d66101d1366004610caf565b6104ec565b60405190151581526020016101b2565b6101ef60085481565b6040519081526020016101b2565b6002546101ef565b6101d6610213366004610cd9565b610506565b6101d6610226366004610d15565b6001600160a01b03166000908152600a602052604090205460ff1690565b60125b60405160ff90911681526020016101b2565b61026161052a565b005b600654610276906001600160a01b031681565b6040516001600160a01b0390911681526020016101b2565b61026161029c366004610d37565b6105b2565b600554600160a01b900460ff166101d6565b6101ef6102c1366004610d15565b6001600160a01b031660009081526020819052604090205490565b6102616105e5565b60075461024790600160a01b900460ff1681565b6102616105f9565b6005546001600160a01b0316610276565b6101a561067c565b600754610276906001600160a01b031681565b6101d661033a366004610caf565b61068b565b610276732396d72c6da898c43023f6c66344a143c0d6278f81565b6101ef610368366004610d73565b6001600160a01b03918216600090815260016020908152604080832093909416825291909152205490565b6102616103a1366004610d15565b610699565b600754610247907501000000000000000000000000000000000000000000900460ff1681565b600980546103d990610da6565b80601f016020809104026020016040519081016040528092919081815260200182805461040590610da6565b80156104525780601f1061042757610100808354040283529160200191610452565b820191906000526020600020905b81548152906001019060200180831161043557829003601f168201915b505050505081565b60606003805461046990610da6565b80601f016020809104026020016040519081016040528092919081815260200182805461049590610da6565b80156104e25780601f106104b7576101008083540402835291602001916104e2565b820191906000526020600020905b8154815290600101906020018083116104c557829003601f168201915b5050505050905090565b6000336104fa8185856106f0565b60019150505b92915050565b600033610514858285610702565b61051f85858561079a565b506001949350505050565b336000908152600a602052604090205460ff1661057d5760405162461bcd60e51b815260206004820152600c60248201526b2737ba1030b71030b236b4b760a11b60448201526064015b60405180910390fd5b61058561082b565b60405133907fe954f7396fd9cc255484ca6218954fe31ede819d7dbcd45c7a07313196d44c0f90600090a2565b6105ba610880565b6001600160a01b03919091166000908152600a60205260409020805460ff1916911515919091179055565b6105ed610880565b6105f760006108c6565b565b336000908152600a602052604090205460ff166106475760405162461bcd60e51b815260206004820152600c60248201526b2737ba1030b71030b236b4b760a11b6044820152606401610574565b61064f610930565b60405133907f3c2a06758d6f796d04ad3c57bffc54710a90828cbfb768bf649e2eb3501d52eb90600090a2565b60606004805461046990610da6565b6000336104fa81858561079a565b6106a1610880565b6001600160a01b0381166106e4576040517f1e4fbdf700000000000000000000000000000000000000000000000000000000815260006004820152602401610574565b6106ed816108c6565b50565b6106fd8383836001610973565b505050565b6001600160a01b038381166000908152600160209081526040808320938616835292905220546000198110156107945781811015610785576040517ffb8f41b20000000000000000000000000000000000000000000000000000000081526001600160a01b03841660048201526024810182905260448101839052606401610574565b61079484848484036000610973565b50505050565b6001600160a01b0383166107dd576040517f96c6fd1e00000000000000000000000000000000000000000000000000000000815260006004820152602401610574565b6001600160a01b038216610820576040517fec442f0500000000000000000000000000000000000000000000000000000000815260006004820152602401610574565b6106fd838383610a7a565b610833610bbd565b6005805460ff60a01b191690557f5db9ee0a495bf2e6ff9c91a7834c1ba4fdd244a5e8aa4e537bd38aeae4b073aa335b6040516001600160a01b03909116815260200160405180910390a1565b6005546001600160a01b031633146105f7576040517f118cdaa7000000000000000000000000000000000000000000000000000000008152336004820152602401610574565b600580546001600160a01b038381167fffffffffffffffffffffffff0000000000000000000000000000000000000000831681179093556040519116919082907f8be0079c531659141344cd1fd0a4f28419497f9722a3daafe3b4186f6b6457e090600090a35050565b610938610c00565b6005805460ff60a01b1916600160a01b1790557f62e78cea01bee320cd4e420270b5ea74000d11b0c9f74754ebdbfc544b05a2586108633390565b6001600160a01b0384166109b6576040517fe602df0500000000000000000000000000000000000000000000000000000000815260006004820152602401610574565b6001600160a01b0383166109f9576040517f94280d6200000000000000000000000000000000000000000000000000000000815260006004820152602401610574565b6001600160a01b038085166000908152600160209081526040808320938716835292905220829055801561079457826001600160a01b0316846001600160a01b03167f8c5be1e5ebec7d5bd14f71427d1e84f3dd0314c0f7b2291e5b200ac8c7c3b92584604051610a6c91815260200190565b60405180910390a350505050565b6001600160a01b038316610aa5578060026000828254610a9a9190610de0565b90915550610b309050565b6001600160a01b03831660009081526020819052604090205481811015610b11576040517fe450d38c0000000000000000000000000000000000000000000000000000000081526001600160a01b03851660048201526024810182905260448101839052606401610574565b6001600160a01b03841660009081526020819052604090209082900390555b6001600160a01b038216610b4c57600280548290039055610b6b565b6001600160a01b03821660009081526020819052604090208054820190555b816001600160a01b0316836001600160a01b03167fddf252ad1be2c89b69c2b068fc378daa952ba7f163c4a11628f55a4df523b3ef83604051610bb091815260200190565b60405180910390a3505050565b600554600160a01b900460ff166105f7576040517f8dfc202b00000000000000000000000000000000000000000000000000000000815260040160405180910390fd5b600554600160a01b900460ff16156105f7576040517fd93c066500000000000000000000000000000000000000000000000000000000815260040160405180910390fd5b60006020808352835180602085015260005b81811015610c7257858101830151858201604001528201610c56565b506000604082860101526040601f19601f8301168501019250505092915050565b80356001600160a01b0381168114610caa57600080fd5b919050565b60008060408385031215610cc257600080fd5b610ccb83610c93565b946020939093013593505050565b600080600060608486031215610cee57600080fd5b610cf784610c93565b9250610d0560208501610c93565b9150604084013590509250925092565b600060208284031215610d2757600080fd5b610d3082610c93565b9392505050565b60008060408385031215610d4a57600080fd5b610d5383610c93565b915060208301358015158114610d6857600080fd5b809150509250929050565b60008060408385031215610d8657600080fd5b610d8f83610c93565b9150610d9d60208401610c93565b90509250929050565b600181811c90821680610dba57607f821691505b602082108103610dda57634e487b7160e01b600052602260045260246000fd5b50919050565b8082018082111561050057634e487b7160e01b600052601160045260246000fdfea264697066735822122063120013ddad21a95591d69deca6c4ef6b73fe5130fcdc739b24f68b35943b0e64736f6c63430008160033a2646970667358221220a0393b30d7ac84611fe8dc573b936604c8fabb476bc9d15a45b24cc24356eec564736f6c63430008160033",
  "linkReferences": {},
  "deployedLinkReferences": {}
}