{
  "_format": "hh-sol-artifact-1",
  "contractName": "ModulsSalesManager",
  "sourceName": "contracts/ModulsSalesManager.sol",
  "abi": [
    {
      "inputs": [
        {
          "internalType": "address",
          "name": "_platformAdmin",
          "type": "address"
        }
      ],
      "stateMutability": "nonpayable",
      "type": "constructor"
    },
    {
      "inputs": [],
      "name": "EnforcedPause",
      "type": "error"
    },
    {
      "inputs": [],
      "name": "ExpectedPause",
      "type": "error"
    },
    {
      "inputs": [
        {
          "internalType": "address",
          "name": "owner",
          "type": "address"
        }
      ],
      "name": "OwnableInvalidOwner",
      "type": "error"
    },
    {
      "inputs": [
        {
          "internalType": "address",
          "name": "account",
          "type": "address"
        }
      ],
      "name": "OwnableUnauthorizedAccount",
      "type": "error"
    },
    {
      "inputs": [],
      "name": "ReentrancyGuardReentrantCall",
      "type": "error"
    },
    {
      "inputs": [
        {
          "internalType": "address",
          "name": "token",
          "type": "address"
        }
      ],
      "name": "SafeERC20FailedOperation",
      "type": "error"
    },
    {
      "anonymous": false,
      "inputs": [
        {
          "indexed": false,
          "internalType": "uint256",
          "name": "initialPrice",
          "type": "uint256"
        },
        {
          "indexed": false,
          "internalType": "uint256",
          "name": "priceSlope",
          "type": "uint256"
        },
        {
          "indexed": false,
          "internalType": "uint256",
          "name": "maxEthCap",
          "type": "uint256"
        }
      ],
      "name": "BondingCurveParametersUpdated",
      "type": "event"
    },
    {
      "anonymous": false,
      "inputs": [
        {
          "indexed": true,
          "internalType": "address",
          "name": "token",
          "type": "address"
        },
        {
          "indexed": true,
          "internalType": "address",
          "name": "buyer",
          "type": "address"
        },
        {
          "indexed": false,
          "internalType": "uint256",
          "name": "amount",
          "type": "uint256"
        },
        {
          "indexed": false,
          "internalType": "uint256",
          "name": "ethSpent",
          "type": "uint256"
        },
        {
          "indexed": false,
          "internalType": "uint256",
          "name": "price",
          "type": "uint256"
        },
        {
          "indexed": false,
          "internalType": "uint256",
          "name": "timestamp",
          "type": "uint256"
        }
      ],
      "name": "ModulsTokenPurchase",
      "type": "event"
    },
    {
      "anonymous": false,
      "inputs": [
        {
          "indexed": true,
          "internalType": "address",
          "name": "token",
          "type": "address"
        },
        {
          "indexed": true,
          "internalType": "address",
          "name": "agentWallet",
          "type": "address"
        }
      ],
      "name": "ModulsTokenRegistered",
      "type": "event"
    },
    {
      "anonymous": false,
      "inputs": [
        {
          "indexed": true,
          "internalType": "address",
          "name": "token",
          "type": "address"
        },
        {
          "indexed": true,
          "internalType": "address",
          "name": "seller",
          "type": "address"
        },
        {
          "indexed": false,
          "internalType": "uint256",
          "name": "amount",
          "type": "uint256"
        },
        {
          "indexed": false,
          "internalType": "uint256",
          "name": "ethReceived",
          "type": "uint256"
        },
        {
          "indexed": false,
          "internalType": "uint256",
          "name": "price",
          "type": "uint256"
        },
        {
          "indexed": false,
          "internalType": "uint256",
          "name": "timestamp",
          "type": "uint256"
        }
      ],
      "name": "ModulsTokenSell",
      "type": "event"
    },
    {
      "anonymous": false,
      "inputs": [
        {
          "indexed": true,
          "internalType": "address",
          "name": "token",
          "type": "address"
        },
        {
          "indexed": true,
          "internalType": "address",
          "name": "to",
          "type": "address"
        },
        {
          "indexed": false,
          "internalType": "uint256",
          "name": "amount",
          "type": "uint256"
        }
      ],
      "name": "ModulsTokenWithdraw",
      "type": "event"
    },
    {
      "anonymous": false,
      "inputs": [
        {
          "indexed": true,
          "internalType": "address",
          "name": "previousOwner",
          "type": "address"
        },
        {
          "indexed": true,
          "internalType": "address",
          "name": "newOwner",
          "type": "address"
        }
      ],
      "name": "OwnershipTransferred",
      "type": "event"
    },
    {
      "anonymous": false,
      "inputs": [
        {
          "indexed": false,
          "internalType": "address",
          "name": "account",
          "type": "address"
        }
      ],
      "name": "Paused",
      "type": "event"
    },
    {
      "anonymous": false,
      "inputs": [
        {
          "indexed": false,
          "internalType": "address",
          "name": "account",
          "type": "address"
        }
      ],
      "name": "Unpaused",
      "type": "event"
    },
    {
      "inputs": [
        {
          "internalType": "address",
          "name": "token",
          "type": "address"
        },
        {
          "internalType": "uint256",
          "name": "tokenAmount",
          "type": "uint256"
        },
        {
          "internalType": "uint256",
          "name": "maxCost",
          "type": "uint256"
        }
      ],
      "name": "buyToken",
      "outputs": [],
      "stateMutability": "payable",
      "type": "function"
    },
    {
      "inputs": [],
      "name": "cooldownTime",
      "outputs": [
        {
          "internalType": "uint256",
          "name": "",
          "type": "uint256"
        }
      ],
      "stateMutability": "view",
      "type": "function"
    },
    {
      "inputs": [
        {
          "internalType": "address",
          "name": "token",
          "type": "address"
        },
        {
          "internalType": "address",
          "name": "to",
          "type": "address"
        },
        {
          "internalType": "uint256",
          "name": "amount",
          "type": "uint256"
        }
      ],
      "name": "emergencyWithdrawToken",
      "outputs": [],
      "stateMutability": "nonpayable",
      "type": "function"
    },
    {
      "inputs": [],
      "name": "factory",
      "outputs": [
        {
          "internalType": "address",
          "name": "",
          "type": "address"
        }
      ],
      "stateMutability": "view",
      "type": "function"
    },
    {
      "inputs": [
        {
          "internalType": "address",
          "name": "token",
          "type": "address"
        }
      ],
      "name": "getCurrentPrice",
      "outputs": [
        {
          "internalType": "uint256",
          "name": "",
          "type": "uint256"
        }
      ],
      "stateMutability": "view",
      "type": "function"
    },
    {
      "inputs": [
        {
          "internalType": "address",
          "name": "token",
          "type": "address"
        },
        {
          "internalType": "uint256",
          "name": "tokenAmount",
          "type": "uint256"
        }
      ],
      "name": "getEtherCostForToken",
      "outputs": [
        {
          "internalType": "uint256",
          "name": "cost",
          "type": "uint256"
        },
        {
          "internalType": "uint256",
          "name": "tax",
          "type": "uint256"
        },
        {
          "internalType": "uint256",
          "name": "totalCost",
          "type": "uint256"
        }
      ],
      "stateMutability": "view",
      "type": "function"
    },
    {
      "inputs": [
        {
          "internalType": "address",
          "name": "token",
          "type": "address"
        },
        {
          "internalType": "uint256",
          "name": "tokenAmount",
          "type": "uint256"
        }
      ],
      "name": "getEtherReturnForToken",
      "outputs": [
        {
          "internalType": "uint256",
          "name": "ethReturn",
          "type": "uint256"
        }
      ],
      "stateMutability": "view",
      "type": "function"
    },
    {
      "inputs": [],
      "name": "getSupportedTokens",
      "outputs": [
        {
          "internalType": "address[]",
          "name": "",
          "type": "address[]"
        }
      ],
      "stateMutability": "view",
      "type": "function"
    },
    {
      "inputs": [
        {
          "internalType": "address",
          "name": "token",
          "type": "address"
        },
        {
          "internalType": "uint256",
          "name": "ethAmount",
          "type": "uint256"
        }
      ],
      "name": "getTokenAmountForEther",
      "outputs": [
        {
          "internalType": "uint256",
          "name": "tokenAmount",
          "type": "uint256"
        },
        {
          "internalType": "uint256",
          "name": "cost",
          "type": "uint256"
        },
        {
          "internalType": "uint256",
          "name": "tax",
          "type": "uint256"
        },
        {
          "internalType": "uint256",
          "name": "totalCost",
          "type": "uint256"
        }
      ],
      "stateMutability": "view",
      "type": "function"
    },
    {
      "inputs": [
        {
          "internalType": "address",
          "name": "token",
          "type": "address"
        },
        {
          "internalType": "uint256",
          "name": "ethAmount",
          "type": "uint256"
        }
      ],
      "name": "getTokenAmountForEtherReturn",
      "outputs": [
        {
          "internalType": "uint256",
          "name": "tokenAmount",
          "type": "uint256"
        }
      ],
      "stateMutability": "view",
      "type": "function"
    },
    {
      "inputs": [],
      "name": "initialPrice",
      "outputs": [
        {
          "internalType": "uint256",
          "name": "",
          "type": "uint256"
        }
      ],
      "stateMutability": "view",
      "type": "function"
    },
    {
      "inputs": [
        {
          "internalType": "address",
          "name": "",
          "type": "address"
        },
        {
          "internalType": "address",
          "name": "",
          "type": "address"
        }
      ],
      "name": "lastBuyTime",
      "outputs": [
        {
          "internalType": "uint256",
          "name": "",
          "type": "uint256"
        }
      ],
      "stateMutability": "view",
      "type": "function"
    },
    {
      "inputs": [
        {
          "internalType": "address",
          "name": "",
          "type": "address"
        },
        {
          "internalType": "address",
          "name": "",
          "type": "address"
        }
      ],
      "name": "lastSellTime",
      "outputs": [
        {
          "internalType": "uint256",
          "name": "",
          "type": "uint256"
        }
      ],
      "stateMutability": "view",
      "type": "function"
    },
    {
      "inputs": [
        {
          "internalType": "address",
          "name": "",
          "type": "address"
        }
      ],
      "name": "marketConfigs",
      "outputs": [
        {
          "internalType": "address",
          "name": "token",
          "type": "address"
        },
        {
          "internalType": "address payable",
          "name": "agentWallet",
          "type": "address"
        },
        {
          "internalType": "address payable",
          "name": "devWallet",
          "type": "address"
        },
        {
          "internalType": "uint8",
          "name": "taxPercent",
          "type": "uint8"
        },
        {
          "internalType": "uint8",
          "name": "agentSplit",
          "type": "uint8"
        },
        {
          "internalType": "bool",
          "name": "exists",
          "type": "bool"
        }
      ],
      "stateMutability": "view",
      "type": "function"
    },
    {
      "inputs": [
        {
          "internalType": "address",
          "name": "",
          "type": "address"
        }
      ],
      "name": "marketStats",
      "outputs": [
        {
          "internalType": "uint256",
          "name": "ethCollected",
          "type": "uint256"
        },
        {
          "internalType": "uint256",
          "name": "tokensSold",
          "type": "uint256"
        },
        {
          "internalType": "uint256",
          "name": "lastBuyTime",
          "type": "uint256"
        },
        {
          "internalType": "uint256",
          "name": "lastSellTime",
          "type": "uint256"
        }
      ],
      "stateMutability": "view",
      "type": "function"
    },
    {
      "inputs": [],
      "name": "maxEthCap",
      "outputs": [
        {
          "internalType": "uint256",
          "name": "",
          "type": "uint256"
        }
      ],
      "stateMutability": "view",
      "type": "function"
    },
    {
      "inputs": [],
      "name": "owner",
      "outputs": [
        {
          "internalType": "address",
          "name": "",
          "type": "address"
        }
      ],
      "stateMutability": "view",
      "type": "function"
    },
    {
      "inputs": [],
      "name": "pause",
      "outputs": [],
      "stateMutability": "nonpayable",
      "type": "function"
    },
    {
      "inputs": [],
      "name": "paused",
      "outputs": [
        {
          "internalType": "bool",
          "name": "",
          "type": "bool"
        }
      ],
      "stateMutability": "view",
      "type": "function"
    },
    {
      "inputs": [],
      "name": "platformAdmin",
      "outputs": [
        {
          "internalType": "address",
          "name": "",
          "type": "address"
        }
      ],
      "stateMutability": "view",
      "type": "function"
    },
    {
      "inputs": [],
      "name": "priceSlope",
      "outputs": [
        {
          "internalType": "uint256",
          "name": "",
          "type": "uint256"
        }
      ],
      "stateMutability": "view",
      "type": "function"
    },
    {
      "inputs": [
        {
          "internalType": "address",
          "name": "token",
          "type": "address"
        }
      ],
      "name": "registerToken",
      "outputs": [],
      "stateMutability": "nonpayable",
      "type": "function"
    },
    {
      "inputs": [
        {
          "internalType": "address",
          "name": "token",
          "type": "address"
        }
      ],
      "name": "registerTokenFromDeployer",
      "outputs": [],
      "stateMutability": "nonpayable",
      "type": "function"
    },
    {
      "inputs": [
        {
          "internalType": "address",
          "name": "token",
          "type": "address"
        }
      ],
      "name": "removeToken",
      "outputs": [],
      "stateMutability": "nonpayable",
      "type": "function"
    },
    {
      "inputs": [],
      "name": "renounceOwnership",
      "outputs": [],
      "stateMutability": "nonpayable",
      "type": "function"
    },
    {
      "inputs": [
        {
          "internalType": "address",
          "name": "token",
          "type": "address"
        },
        {
          "internalType": "uint256",
          "name": "tokenAmount",
          "type": "uint256"
        },
        {
          "internalType": "uint256",
          "name": "minReturn",
          "type": "uint256"
        }
      ],
      "name": "sellToken",
      "outputs": [],
      "stateMutability": "nonpayable",
      "type": "function"
    },
    {
      "inputs": [
        {
          "internalType": "uint256",
          "name": "_initialPrice",
          "type": "uint256"
        },
        {
          "internalType": "uint256",
          "name": "_priceSlope",
          "type": "uint256"
        },
        {
          "internalType": "uint256",
          "name": "_maxEthCap",
          "type": "uint256"
        }
      ],
      "name": "setBondingCurveParameters",
      "outputs": [],
      "stateMutability": "nonpayable",
      "type": "function"
    },
    {
      "inputs": [
        {
          "internalType": "uint256",
          "name": "_cooldownTime",
          "type": "uint256"
        }
      ],
      "name": "setCooldownTime",
      "outputs": [],
      "stateMutability": "nonpayable",
      "type": "function"
    },
    {
      "inputs": [
        {
          "internalType": "address",
          "name": "_factory",
          "type": "address"
        }
      ],
      "name": "setFactory",
      "outputs": [],
      "stateMutability": "nonpayable",
      "type": "function"
    },
    {
      "inputs": [
        {
          "internalType": "uint256",
          "name": "_initialPrice",
          "type": "uint256"
        }
      ],
      "name": "setInitialPrice",
      "outputs": [],
      "stateMutability": "nonpayable",
      "type": "function"
    },
    {
      "inputs": [
        {
          "internalType": "uint256",
          "name": "_maxEthCap",
          "type": "uint256"
        }
      ],
      "name": "setMaxEthCap",
      "outputs": [],
      "stateMutability": "nonpayable",
      "type": "function"
    },
    {
      "inputs": [
        {
          "internalType": "uint256",
          "name": "_priceSlope",
          "type": "uint256"
        }
      ],
      "name": "setPriceSlope",
      "outputs": [],
      "stateMutability": "nonpayable",
      "type": "function"
    },
    {
      "inputs": [
        {
          "internalType": "address",
          "name": "",
          "type": "address"
        }
      ],
      "name": "tradeStats",
      "outputs": [
        {
          "internalType": "uint256",
          "name": "totalVolumeETH",
          "type": "uint256"
        },
        {
          "internalType": "uint256",
          "name": "totalVolumeToken",
          "type": "uint256"
        },
        {
          "internalType": "uint256",
          "name": "totalBuys",
          "type": "uint256"
        },
        {
          "internalType": "uint256",
          "name": "totalSells",
          "type": "uint256"
        }
      ],
      "stateMutability": "view",
      "type": "function"
    },
    {
      "inputs": [
        {
          "internalType": "address",
          "name": "newOwner",
          "type": "address"
        }
      ],
      "name": "transferOwnership",
      "outputs": [],
      "stateMutability": "nonpayable",
      "type": "function"
    },
    {
      "inputs": [],
      "name": "unpause",
      "outputs": [],
      "stateMutability": "nonpayable",
      "type": "function"
    },
    {
      "inputs": [
        {
          "internalType": "address payable",
          "name": "to",
          "type": "address"
        },
        {
          "internalType": "uint256",
          "name": "amount",
          "type": "uint256"
        }
      ],
      "name": "withdrawETH",
      "outputs": [],
      "stateMutability": "nonpayable",
      "type": "function"
    },
    {
      "stateMutability": "payable",
      "type": "receive"
    }
  ],
  "bytecode": "0x608034620000f257601f6200340a38819003918201601f19168301916001600160401b03831184841017620000f757808492602094604052833981010312620000f257516001600160a01b039081811690819003620000f2578015620000d957600054918160018060a01b031991818386161760005560405194167f8be0079c531659141344cd1fd0a4f28419497f9722a3daafe3b4186f6b6457e0600080a3600180556305f5e100600455620f4240600555683635c9adc5dea000006006556002600e5560025416176002556132fc90816200010e8239f35b604051631e4fbdf760e01b815260006004820152602490fd5b600080fd5b634e487b7160e01b600052604160045260246000fdfe6080604052600436101561001b575b361561001957600080fd5b005b60003560e01c806307bbcf30146127b257806309824a80146124a55780630a4b4b2b1461248757806312d048151461242a578063144bbce6146123cd5780631d0806ae146123af578063277327a51461233d57806329f8e558146122b5578063339d70de14612263578063362b9f0a146121235780633a8641ea1461209d5780633e11741f14611bf55780633f4ba83a14611b6d5780634782f77914611a6857806354e42f7e14611a4a5780635bb47808146119745780635c975abb1461194e5780635fa7b584146118955780636056527f1461181a5780636c82d6431461168e5780636ff7320114611620578063715018a6146115c7578063739733d81461111b5780638456cb59146110aa57806384cc315b1461107f5780638da5cb5b146110585780639f4ba0ee14610fd3578063a37e3d5614610dfa578063b319c6b714610ddc578063c45a015514610db5578063ca9d4c7914610d63578063cdcd7fb514610d3c578063d3c7c2c714610c7d578063d61c77751461092c578063e671499b146102505763f2fde38b0361000e573461024b57602036600319011261024b576101c561287f565b6101cd612e62565b6001600160a01b0380911690811561021a57600054826001600160a01b0319821617600055167f8be0079c531659141344cd1fd0a4f28419497f9722a3daafe3b4186f6b6457e0600080a3005b60246040517f1e4fbdf700000000000000000000000000000000000000000000000000000000815260006004820152fd5b600080fd5b610259366128ab565b90610262612f78565b8061026e811515612cf1565b6001600160a01b03841660005260076020526102996001600160a01b03604060002054161515612ca6565b6001600160a01b038416600052600760205260406000209260ff6002604051956102c287612b1d565b6001600160a01b0381541687526001600160a01b03600182015416602088015201546001600160a01b0381166040870152818160a01c166060870152818160a81c16608087015260b01c16151560a08501526001600160a01b038516600052600860205260406000209333600052600c60205260406000206001600160a01b03871660005260205261035c604060002054600e5490612d77565b42106108e8576040519263313ce56760e01b84526020846004816001600160a01b038b165afa9384156108dc576000946108a7575b506103a8906103a260ff8616612d3c565b90612d4a565b916001860154926103c26103bc8286612d77565b85612efb565b9660646103d660ff6060870151168a612e0f565b04926103e2848a612d77565b968254916103f08b84612d77565b91600654809311610724575b5061040990891115612d84565b8734106106e05761041a8a83612d77565b1161069c57600093838594936104618c879695610457889761045160646104498f608060ff910151168b612e0f565b048099612d6a565b9d612d77565b6001850155612d77565b8155600242910155338352600c602052604083206001600160a01b038d16845260205242604084205560096020526040832061049e8c8254612d77565b90556001600160a01b038c16835260096020526104c360016040852001918254612d77565b90556001600160a01b038b1682526009602052600260408320016104e78154612e22565b90556104fe89336001600160a01b03895116612ea6565b6001600160a01b036020870151165af1610516612dcf565b50156106585760008080936001600160a01b03604083950151165af161053a612dcf565b50156106145761054a9034612d6a565b806105b3575b507f05f8a6c6c7a11ffcbd08ed43b685d506fad4c4f6232e739549c3008571e766529061057c84612e31565b6040805192835260208301949094529281019290925242606083015233926001600160a01b03169180608081015b0390a360018055005b600080808093335af16105c4612dcf565b50156105d05783610550565b606460405162461bcd60e51b815260206004820152600d60248201527f526566756e64206661696c6564000000000000000000000000000000000000006044820152fd5b606460405162461bcd60e51b815260206004820152601860248201527f4661696c656420746f2073656e642064657620736861726500000000000000006044820152fd5b606460405162461bcd60e51b815260206004820152601a60248201527f4661696c656420746f2073656e64206167656e742073686172650000000000006044820152fd5b606460405162461bcd60e51b815260206004820152601360248201527f4d617820455448206361702072656163686564000000000000000000000000006044820152fd5b606460405162461bcd60e51b815260206004820152601060248201527f496e73756666696369656e7420455448000000000000000000000000000000006044820152fd5b98509350819950610739929850809450612d6a565b600454906107546005549261074e8489612e0f565b90612d77565b906001600160ff1b0382168203610891576001600160ff1b038116810361089157610783600183901b80612e0f565b7f3fffffffffffffffffffffffffffffffffffffffffffffffffffffffffffffff84168403610891576107ca6107cf9161074e6107d49560011b9460011b8760021b612e0f565b61327b565b612d6a565b6001600160ff1b0382168203610891576107f19160011b90612d4a565b95861561084d576108028786612d77565b61080c9086612efb565b97606085015160ff1661081f908a612e0f565b606490049361082e858b612d77565b9760ff1661083b90612d3c565b610845908a612e0f565b98938c6103fc565b606460405162461bcd60e51b815260206004820152601060248201527f4e6f20746f6b656e7320746f20627579000000000000000000000000000000006044820152fd5b634e487b7160e01b600052601160045260246000fd5b6103a89194506108ce9060203d6020116108d5575b6108c68183612b6b565b810190612bf7565b9390610391565b503d6108bc565b6040513d6000823e3d90fd5b606460405162461bcd60e51b815260206004820152601060248201527f436f6f6c646f776e206e6f74206d6574000000000000000000000000000000006044820152fd5b3461024b5760208060031936011261024b5761094661287f565b906001600160a01b039182600354163303610c1357821690816000526007815261097e60ff60026040600020015460b01c1615612ad2565b6040516370a0823160e01b81523060048201528181602481865afa80156108dc57600090610be4575b6109b391501515612b8d565b60405192630fdb7f6f60e21b84528184600481865afa9384156108dc57600094610bc5575b5060405191638ea5220f60e01b83528083600481875afa9283156108dc57600093610b96575b5060405191631d507d0760e21b83528183600481885afa9283156108dc57600093610b77575b506040519263f83a27cd60e01b84528284600481895afa9384156108dc57600094610b53575b5060ff80911693610a5e600a861115612c10565b1690610a6d6064831115612c5b565b6002604051610a7b81612b1d565b878152828582019916988981528360408301981688526060820196875260808201948552600760a0830196600188528a600052528360406000209251166001600160a01b031990818454161783558460018401925116908254161790550194511676ffffffffffffffffffffffffffffffffffffffffffffff1960ff60b01b60ff60a81b60ff60a01b8854975160a01b16945160a81b169451151560b01b169416171717179055610b2b8161309b565b507fc6d423769e44315c2e313bc0beef7d85de7b8bb794fe635e1c2653f6593475a8600080a3005b60ff919450610b6f8291853d87116108d5576108c68183612b6b565b949150610a4a565b610b8f919350823d84116108d5576108c68183612b6b565b9186610a24565b81610bb79294503d8511610bbe575b610baf8183612b6b565b810190612bd8565b91856109fe565b503d610ba5565b610bdd919450823d8411610bbe57610baf8183612b6b565b92846109d8565b508181813d8311610c0c575b610bfa8183612b6b565b8101031261024b576109b390516109a7565b503d610bf0565b6084826040519062461bcd60e51b82526004820152602360248201527f4f6e6c7920666163746f72792063616e2063616c6c20746869732066756e637460448201527f696f6e00000000000000000000000000000000000000000000000000000000006064820152fd5b3461024b57600036600319011261024b5760405180600a5480835260208093018091600a6000527fc65a7bb8d6351c1cf70c95a316cc6a92839c986682d98bc35f958f4883f9d2a89060005b86828210610d28578686610cdf82880383612b6b565b604051928392818401908285525180915260408401929160005b828110610d0857505050500390f35b83516001600160a01b031685528695509381019392810192600101610cf9565b835485529093019260019283019201610cc9565b3461024b57600036600319011261024b5760206001600160a01b0360025416604051908152f35b3461024b57604036600319011261024b57610d7c61287f565b610d84612895565b906001600160a01b03809116600052600d602052604060002091166000526020526020604060002054604051908152f35b3461024b57600036600319011261024b5760206001600160a01b0360035416604051908152f35b3461024b57600036600319011261024b576020600e54604051908152f35b3461024b57604036600319011261024b57610e1361287f565b602435906001600160a01b0380911680600052610ef860209160078352610e4284604060002054161515612ca6565b610e4d851515612cf1565b80600052600783526040600020600260405191610e6983612b1d565b86815416835286600182015416868401520154948516604082015260a060ff60608301968181841c168852818160a81c16608085015260b01c16151591015280600052600883526040600020604051610ec181612b4f565b81548152610eed6001830154600387840194828652600281015460408601520154606084015288612fb3565b949094978251612d77565b90600654809211610fa9575b505050826004916040519283809263313ce56760e01b82525afa9283156108dc57610f50606493610f4a60ff610f8897610f59968296600092610f8c575b505016612d3c565b90612e0f565b94511685612e0f565b04610f648185612d77565b90604051948594859094939260609260808301968352602083015260408201520152565b0390f35b610fa29250803d106108d5576108c68183612b6b565b8b80610f42565b8597506004939450610fc99291610fc1915190612d6a565b905190612fb3565b9590929187610f04565b3461024b57602036600319011261024b577f909b37d51ce486819f8eca79b8e045f2ab9789e72cb989f00942fb52da796c87600435611010612e62565b61101b8115156128d5565b61102f670de0b6b3a7640000821115612945565b60048190556005546006546040805193845260208401929092529082015280606081015b0390a1005b3461024b57600036600319011261024b5760206001600160a01b0360005416604051908152f35b3461024b57602036600319011261024b5760206110a261109d61287f565b612e31565b604051908152f35b3461024b57600036600319011261024b576110c3612e62565b6110cb612f3f565b7401000000000000000000000000000000000000000060ff60a01b1960005416176000557f62e78cea01bee320cd4e420270b5ea74000d11b0c9f74754ebdbfc544b05a2586020604051338152a1005b3461024b57604036600319011261024b5761113461287f565b60249081356001600160a01b038092168060005261116060209360078552604060002054161515612ca6565b61116b821515612cf1565b806000526008835260406000206040519061118582612b4f565b80548252600191828201546003878301938285526002810154604085015201546060830152156115845751841161151b578051600454906005548015851715611506576111e79261074e6111dc6111e29385612e0f565b82612d77565b612e0f565b821c841161149d57600090805192600095600094826000905b611389575b505050505050821561132057156112dd57826004916040519283809263313ce56760e01b82525afa80156108dc5760ff916000916112c0575b50169261124a84612d3c565b80156112ab576000190482116112685750610f4a6110a29293612d3c565b8260156064926040519262461bcd60e51b845260048401528201527f546f6b656e20616d6f756e74206f766572666c6f7700000000000000000000006044820152fd5b50634e487b7160e01b60005260126004526000fd5b6112d79150843d86116108d5576108c68183612b6b565b8561123e565b606483601e866040519262461bcd60e51b845260048401528201527f496e76616c6964204554482072657475726e2063616c63756c6174696f6e00006044820152fd5b6084846033876040519262461bcd60e51b845260048401528201527f436f756c64206e6f742066696e642076616c696420746f6b656e20616d6f756e60448201527f7420666f722072657175657374656420455448000000000000000000000000006064820152fd5b8186979996111580611493575b1561148a576113a58288612d77565b841c9685518811611464576113c66113be898851612d6a565b875190612efb565b848111158061145b575b611450575b8085036113f057505050505050505091858080808080611205565b84909a989596979a10600014611436575084840180941161142157611416859491612e22565b945b95949095611200565b8a634e487b7160e01b60005260116004526000fd5b909150600019840193841161142157611416859492612e22565b9950879650896113d5565b508a81116113d0565b909150600098969394959819840193841161142157611484859492612e22565b94611418565b85989650611205565b5060648110611396565b6084856034886040519262461bcd60e51b845260048401528201527f5265717565737465642045544820616d6f756e742065786365656473206d617860448201527f696d756d20706f737369626c652072657475726e0000000000000000000000006064820152fd5b88634e487b7160e01b60005260116004526000fd5b608485602c886040519262461bcd60e51b845260048401528201527f5265717565737465642045544820616d6f756e742065786365656473206d617260448201527f6b657420636170616369747900000000000000000000000000000000000000006064820152fd5b606486601b896040519262461bcd60e51b845260048401528201527f4e6f20746f6b656e7320696e206d61726b657420746f2073656c6c00000000006044820152fd5b3461024b57600036600319011261024b576115e0612e62565b60006001600160a01b0381546001600160a01b031981168355167f8be0079c531659141344cd1fd0a4f28419497f9722a3daafe3b4186f6b6457e08280a3005b3461024b57602036600319011261024b5760043561163c612e62565b610e10811161164a57600e55005b606460405162461bcd60e51b815260206004820152601160248201527f436f6f6c646f776e20746f6f20686967680000000000000000000000000000006044820152fd5b3461024b57604036600319011261024b576116a761287f565b6024356001600160a01b0380921680600052602091600783526116d284604060002054161515612ca6565b6116dd811515612cf1565b816000526007835260406000206002604051916116f983612b1d565b86815416835286600182015416868401520154948516604082015260a060ff60608301968181841c168852818160a81c16608085015260b01c161515910152816000526008835260048360406000209360405161175581612b4f565b85548152606060036001880154978584019889526002810154604085015201549101526040519283809263313ce56760e01b82525afa9283156108dc576117c26117b960ff946103a2866117d1986117c89760649b6000926117fd57505016612d3c565b91519182612d77565b90612efb565b93511683612e0f565b0490610f886117e08383612d77565b604051938493846040919493926060820195825260208201520152565b6118139250803d106108d5576108c68183612b6b565b8c80610f42565b3461024b57602036600319011261024b5760c06001600160a01b038061183e61287f565b16600052600760205260ff6040600020828154169260028160018401541692015491604051948552602085015281166040840152818160a01c166060840152818160a81c16608084015260b01c16151560a0820152f35b3461024b57602036600319011261024b576001600160a01b036118b661287f565b6118be612e62565b168060005260076020526118df60ff60026040600020015460b01c16612ca6565b6118e881613191565b506000526007602052600060026040822082815582600182015501556008602052611929604060002060036000918281558260018201558260028201550155565b6009602052610019604060002060036000918281558260018201558260028201550155565b3461024b57600036600319011261024b57602060ff60005460a01c166040519015158152f35b3461024b57602036600319011261024b5761198d61287f565b611995612e62565b6001600160a01b038116908115611a06573b156119c2576001600160a01b03196003541617600355600080f35b606460405162461bcd60e51b815260206004820152601a60248201527f466163746f7279206d757374206265206120636f6e74726163740000000000006044820152fd5b606460405162461bcd60e51b815260206004820152601760248201527f496e76616c696420666163746f727920616464726573730000000000000000006044820152fd5b3461024b57600036600319011261024b576020600554604051908152f35b3461024b57604036600319011261024b576004356001600160a01b03811680910361024b57602435611a98612e62565b804710611b2957600080808084865af1611ab0612dcf565b5015611ae5577f04ea5e4f058c19170d8b2bb031497d920d63e7b2245a46a37e782424ad6743ac6020600092604051908152a3005b606460405162461bcd60e51b815260206004820152600f60248201527f5769746864726177206661696c656400000000000000000000000000000000006044820152fd5b606460405162461bcd60e51b815260206004820152601d60248201527f496e73756666696369656e7420636f6e74726163742062616c616e63650000006044820152fd5b3461024b57600036600319011261024b57611b86612e62565b60005460ff8160a01c1615611bcb5760ff60a01b19166000557f5db9ee0a495bf2e6ff9c91a7834c1ba4fdd244a5e8aa4e537bd38aeae4b073aa6020604051338152a1005b60046040517f8dfc202b000000000000000000000000000000000000000000000000000000008152fd5b3461024b57611c03366128ab565b9190611c0d612f3f565b611c15612f78565b6001600160a01b03918281169283600052602090600b82526040600020541561205957611c43841515612cf1565b33600052600d82526040600020856000528252611c68604060002054600e5490612d77565b42111561201557604051907fdd62ed3e000000000000000000000000000000000000000000000000000000008252336004830152602491308382015283816044818a5afa80156108dc578691600091611fe4575b5010611fa1578560005260078352604060002060ff600260405192611ce084612b1d565b848154168452846001820154168785015201548381166040840152818160a01c166060840152818160a81c16608084015260b01c16151560a08201528660005260088452604060002060405163313ce56760e01b815285816004818c5afa80156108dc5760ff611d5d91611d6393600091611f84575b5016612d3c565b88612d4a565b90600181018054611d7d81611d788682612d6a565b612efb565b9b848210611f4157611da891611da18e611d9a8894821015612d84565b8654612d6a565b8555612d6a565b905560034291015533600052600d8552604060002088600052855242604060002055600985526040600020611dde8a8254612d77565b90558760005260098552611dfb6001604060002001918254612d77565b905586600052600984526003604060002001611e178154612e22565b90555116604051907f23b872dd000000000000000000000000000000000000000000000000000000008483015233838301523060448301528560648301526064825260a0820182811067ffffffffffffffff821117611f2c57604052611e7d919061311d565b600080808089335af1611e8e612dcf565b5015611ee957505090611ec17f3060fdb50698e411317542c0cd2dae5ecdbe3718d3d211886d569d0d062777e292612e31565b60408051928352602083019590955293810193909352426060840152339280608081016105aa565b9060136064926040519262461bcd60e51b845260048401528201527f455448207472616e73666572206661696c6564000000000000000000000000006044820152fd5b83634e487b7160e01b60005260416004526000fd5b60648960178a6040519262461bcd60e51b845260048401528201527f556e646572666c6f77206f6e20746f6b656e73536f6c640000000000000000006044820152fd5b611f9b9150893d8b116108d5576108c68183612b6b565b8d611d56565b6064836016846040519262461bcd60e51b845260048401528201527f496e73756666696369656e7420616c6c6f77616e6365000000000000000000006044820152fd5b809250858092503d831161200e575b611ffd8183612b6b565b8101031261024b5785905189611cbc565b503d611ff3565b6064826040519062461bcd60e51b82526004820152600d60248201527f53656c6c20636f6f6c646f776e000000000000000000000000000000000000006044820152fd5b6064826040519062461bcd60e51b82526004820152601160248201527f556e737570706f7274656420746f6b656e0000000000000000000000000000006044820152fd5b3461024b57602036600319011261024b577f909b37d51ce486819f8eca79b8e045f2ab9789e72cb989f00942fb52da796c876004356120da612e62565b6120e5811515612990565b6120f967016345785d8a00008211156129e6565b80600555600454611053600654604051938493846040919493926060820195825260208201520152565b3461024b57604036600319011261024b5761213c61287f565b60243560046001600160a01b03809316918260005261216960209460078652604060002054161515612ca6565b612174811515612cf1565b82600052600884528360406000209360405161218f81612b4f565b85548152606060036001880154978584019889526002810154604085015201549101526040519384809263313ce56760e01b82525afa80156108dc5760ff6103a2916121e394600091612246575016612d3c565b8082511061220257906121fa6110a2928251612d6a565b905190612efb565b6064836040519062461bcd60e51b82526004820152601d60248201527f496e73756666696369656e7420746f6b656e7320696e206d61726b65740000006044820152fd5b61225d9150873d89116108d5576108c68183612b6b565b87611d56565b3461024b57604036600319011261024b5761227c61287f565b612284612895565b906001600160a01b03809116600052600c602052604060002091166000526020526020604060002054604051908152f35b3461024b57602036600319011261024b577f909b37d51ce486819f8eca79b8e045f2ab9789e72cb989f00942fb52da796c876004356122f2612e62565b6122fd811515612a31565b612312683635c9adc5dea00000821115612a87565b8060065560045461105360055492604051938493846040919493926060820195825260208201520152565b3461024b57606036600319011261024b5761235661287f565b61235e612895565b7f04ea5e4f058c19170d8b2bb031497d920d63e7b2245a46a37e782424ad6743ac60206044359361238d612e62565b6001600160a01b03809116936123a4868287612ea6565b6040519586521693a3005b3461024b57600036600319011261024b576020600454604051908152f35b3461024b57602036600319011261024b576001600160a01b036123ee61287f565b16600090815260096020908152604091829020805460018201546002830154600390930154855192835293820152928301526060820152608090f35b3461024b57602036600319011261024b576001600160a01b0361244b61287f565b16600090815260086020908152604091829020805460018201546002830154600390930154855192835293820152928301526060820152608090f35b3461024b57600036600319011261024b576020600654604051908152f35b3461024b5760208060031936011261024b576001600160a01b0390816124c961287f565b169081600052600781526124eb60ff60026040600020015460b01c1615612ad2565b6040516370a0823160e01b81523060048201528181602481865afa80156108dc57600090612783575b61252091501515612b8d565b60405192630fdb7f6f60e21b84528184600481865afa9384156108dc57600094612764575b50604051638ea5220f60e01b81528281600481875afa80156108dc578291600091612747575b50169160405191631d507d0760e21b83528183600481885afa9283156108dc57600093612728575b506040519263f83a27cd60e01b84528284600481895afa9384156108dc57600094612709575b5084330361269f5760ff809116936125d4600a861115612c10565b16906125e36064831115612c5b565b60026040516125f181612b1d565b87815282858201991698898152604082019788526060820196875260808201948552600760a0830196600188528a600052528360406000209251166001600160a01b031990818454161783558460018401925116908254161790550194511676ffffffffffffffffffffffffffffffffffffffffffffff1960ff60b01b60ff60a81b60ff60a01b8854975160a01b16945160a81b169451151560b01b169416171717179055610b2b8161309b565b6084836040519062461bcd60e51b82526004820152602560248201527f4f6e6c7920746f6b656e2063726561746f722063616e2072656769737465722060448201527f746f6b656e0000000000000000000000000000000000000000000000000000006064820152fd5b612721919450833d85116108d5576108c68183612b6b565b92876125b9565b612740919350823d84116108d5576108c68183612b6b565b9186612593565b61275e9150843d8611610bbe57610baf8183612b6b565b8661256b565b61277c919450823d8411610bbe57610baf8183612b6b565b9284612545565b508181813d83116127ab575b6127998183612b6b565b8101031261024b576125209051612514565b503d61278f565b3461024b57606036600319011261024b577f909b37d51ce486819f8eca79b8e045f2ab9789e72cb989f00942fb52da796c876024356004356110536044356127f8612e62565b6128038315156128d5565b612817670de0b6b3a7640000841115612945565b612822841515612990565b61283667016345785d8a00008511156129e6565b612841811515612a31565b612856683635c9adc5dea00000821115612a87565b826004558360055580600655604051938493846040919493926060820195825260208201520152565b600435906001600160a01b038216820361024b57565b602435906001600160a01b038216820361024b57565b606090600319011261024b576004356001600160a01b038116810361024b57906024359060443590565b156128dc57565b608460405162461bcd60e51b8152602060048201526024808201527f496e697469616c207072696365206d757374206265206772656174657220746860448201527f616e2030000000000000000000000000000000000000000000000000000000006064820152fd5b1561294c57565b606460405162461bcd60e51b815260206004820152601660248201527f496e697469616c20707269636520746f6f2068696768000000000000000000006044820152fd5b1561299757565b608460405162461bcd60e51b815260206004820152602260248201527f507269636520736c6f7065206d7573742062652067726561746572207468616e604482015261020360f41b6064820152fd5b156129ed57565b606460405162461bcd60e51b815260206004820152601460248201527f507269636520736c6f706520746f6f20686967680000000000000000000000006044820152fd5b15612a3857565b608460405162461bcd60e51b815260206004820152602260248201527f4d61782045544820636170206d7573742062652067726561746572207468616e604482015261020360f41b6064820152fd5b15612a8e57565b606460405162461bcd60e51b815260206004820152601460248201527f4d6178204554482063617020746f6f20686967680000000000000000000000006044820152fd5b15612ad957565b606460405162461bcd60e51b815260206004820152601860248201527f546f6b656e20616c7265616479207265676973746572656400000000000000006044820152fd5b60c0810190811067ffffffffffffffff821117612b3957604052565b634e487b7160e01b600052604160045260246000fd5b6080810190811067ffffffffffffffff821117612b3957604052565b90601f8019910116810190811067ffffffffffffffff821117612b3957604052565b15612b9457565b606460405162461bcd60e51b815260206004820152601c60248201527f53616c65734d616e61676572206d75737420686f6c6420746f6b656e000000006044820152fd5b9081602091031261024b57516001600160a01b038116810361024b5790565b9081602091031261024b575160ff8116810361024b5790565b15612c1757565b606460405162461bcd60e51b815260206004820152600c60248201527f54617820746f6f206869676800000000000000000000000000000000000000006044820152fd5b15612c6257565b606460405162461bcd60e51b815260206004820152600d60248201527f496e76616c69642073706c6974000000000000000000000000000000000000006044820152fd5b15612cad57565b606460405162461bcd60e51b815260206004820152601460248201527f546f6b656e206e6f7420726567697374657265640000000000000000000000006044820152fd5b15612cf857565b606460405162461bcd60e51b815260206004820152601d60248201527f416d6f756e74206d7573742062652067726561746572207468616e20300000006044820152fd5b604d811161089157600a0a90565b8115612d54570490565b634e487b7160e01b600052601260045260246000fd5b9190820391821161089157565b9190820180921161089157565b15612d8b57565b606460405162461bcd60e51b815260206004820152601160248201527f536c69707061676520746f6f20686967680000000000000000000000000000006044820152fd5b3d15612e0a573d9067ffffffffffffffff8211612b395760405191612dfe601f8201601f191660200184612b6b565b82523d6000602084013e565b606090565b8181029291811591840414171561089157565b60001981146108915760010190565b612e5f906001600160a01b036004549116600052600860205261074e60016040600020015460055490612e0f565b90565b6001600160a01b03600054163303612e7657565b60246040517f118cdaa7000000000000000000000000000000000000000000000000000000008152336004820152fd5b612ef9926001600160a01b03604051937fa9059cbb000000000000000000000000000000000000000000000000000000006020860152166024840152604483015260448252612ef482612b4f565b61311d565b565b6111e2612f3992612f3360045493612f2d6005549561074e612f26612f208986612e0f565b83612d77565b9786612e0f565b92612d6a565b92612d77565b60011c90565b60ff60005460a01c16612f4e57565b60046040517fd93c0665000000000000000000000000000000000000000000000000000000008152fd5b600260015414612f89576002600155565b60046040517f3ee5aeb5000000000000000000000000000000000000000000000000000000008152fd5b9190612fc860045461074e6005548094612e0f565b8060011b6001600160ff1b03918281160361089157818516850361089157612ff08180612e0f565b907f3fffffffffffffffffffffffffffffffffffffffffffffffffffffffffffffff84168403610891576107cf6107ca6130349361074e8960011b8860021b612e0f565b90821682036108915761304a9160011b90612d4a565b9190565b600a5481101561308557600a6000527fc65a7bb8d6351c1cf70c95a316cc6a92839c986682d98bc35f958f4883f9d2a80190600090565b634e487b7160e01b600052603260045260246000fd5b6000818152600b602052604081205461311857600a54680100000000000000008110156131045790826130f06130d984600160409601600a5561304e565b819391549060031b91821b91600019901b19161790565b9055600a54928152600b6020522055600190565b602482634e487b7160e01b81526041600452fd5b905090565b906000602091828151910182855af1156108dc576000513d61318857506001600160a01b0381163b155b61314e5750565b6024906001600160a01b03604051917f5274afe7000000000000000000000000000000000000000000000000000000008352166004820152fd5b60011415613147565b6000818152600b60205260408120549091908015613276576000199080820181811161326257600a549083820191821161324e5781810361321a575b505050600a548015613206578101906131e58261304e565b909182549160031b1b19169055600a558152600b6020526040812055600190565b602484634e487b7160e01b81526031600452fd5b6132386132296130d99361304e565b90549060031b1c92839261304e565b90558452600b60205260408420553880806131cd565b602486634e487b7160e01b81526011600452fd5b602485634e487b7160e01b81526011600452fd5b505090565b80156132c05760018082018083116108915760011c90825b8383106132a05750505090565b909192506132b7836132b28184612d4a565b612d77565b821c9190613293565b5060009056fea264697066735822122032bfa651237b29d6d48cd3dfeccd32a185075e507cadf9deec48056157f84ecc64736f6c63430008160033",
  "linkReferences": {},
  "deployedLinkReferences": {}
}