{
  "_format": "hh-sol-artifact-1",
  "contractName": "ModulsSalesManager",
  "sourceName": "contracts/ModulsSalesManager.sol",
  "abi": [
    {
      "inputs": [
        {
          "internalType": "address",
          "name": "_platformAdmin",
          "type": "address"
        }
      ],
      "stateMutability": "nonpayable",
      "type": "constructor"
    },
    {
      "inputs": [],
      "name": "EnforcedPause",
      "type": "error"
    },
    {
      "inputs": [],
      "name": "ExpectedPause",
      "type": "error"
    },
    {
      "inputs": [
        {
          "internalType": "address",
          "name": "owner",
          "type": "address"
        }
      ],
      "name": "OwnableInvalidOwner",
      "type": "error"
    },
    {
      "inputs": [
        {
          "internalType": "address",
          "name": "account",
          "type": "address"
        }
      ],
      "name": "OwnableUnauthorizedAccount",
      "type": "error"
    },
    {
      "inputs": [],
      "name": "ReentrancyGuardReentrantCall",
      "type": "error"
    },
    {
      "inputs": [
        {
          "internalType": "address",
          "name": "token",
          "type": "address"
        }
      ],
      "name": "SafeERC20FailedOperation",
      "type": "error"
    },
    {
      "anonymous": false,
      "inputs": [
        {
          "indexed": false,
          "internalType": "uint256",
          "name": "initialPrice",
          "type": "uint256"
        },
        {
          "indexed": false,
          "internalType": "uint256",
          "name": "priceSlope",
          "type": "uint256"
        },
        {
          "indexed": false,
          "internalType": "uint256",
          "name": "maxEthCap",
          "type": "uint256"
        }
      ],
      "name": "BondingCurveParametersUpdated",
      "type": "event"
    },
    {
      "anonymous": false,
      "inputs": [
        {
          "indexed": true,
          "internalType": "address",
          "name": "token",
          "type": "address"
        },
        {
          "indexed": true,
          "internalType": "address",
          "name": "buyer",
          "type": "address"
        },
        {
          "indexed": false,
          "internalType": "uint256",
          "name": "amount",
          "type": "uint256"
        },
        {
          "indexed": false,
          "internalType": "uint256",
          "name": "ethSpent",
          "type": "uint256"
        },
        {
          "indexed": false,
          "internalType": "uint256",
          "name": "price",
          "type": "uint256"
        },
        {
          "indexed": false,
          "internalType": "uint256",
          "name": "timestamp",
          "type": "uint256"
        }
      ],
      "name": "ModulsTokenPurchase",
      "type": "event"
    },
    {
      "anonymous": false,
      "inputs": [
        {
          "indexed": true,
          "internalType": "address",
          "name": "token",
          "type": "address"
        },
        {
          "indexed": true,
          "internalType": "address",
          "name": "agentWallet",
          "type": "address"
        }
      ],
      "name": "ModulsTokenRegistered",
      "type": "event"
    },
    {
      "anonymous": false,
      "inputs": [
        {
          "indexed": true,
          "internalType": "address",
          "name": "token",
          "type": "address"
        },
        {
          "indexed": true,
          "internalType": "address",
          "name": "seller",
          "type": "address"
        },
        {
          "indexed": false,
          "internalType": "uint256",
          "name": "amount",
          "type": "uint256"
        },
        {
          "indexed": false,
          "internalType": "uint256",
          "name": "ethReceived",
          "type": "uint256"
        },
        {
          "indexed": false,
          "internalType": "uint256",
          "name": "price",
          "type": "uint256"
        },
        {
          "indexed": false,
          "internalType": "uint256",
          "name": "timestamp",
          "type": "uint256"
        }
      ],
      "name": "ModulsTokenSell",
      "type": "event"
    },
    {
      "anonymous": false,
      "inputs": [
        {
          "indexed": true,
          "internalType": "address",
          "name": "token",
          "type": "address"
        },
        {
          "indexed": true,
          "internalType": "address",
          "name": "to",
          "type": "address"
        },
        {
          "indexed": false,
          "internalType": "uint256",
          "name": "amount",
          "type": "uint256"
        }
      ],
      "name": "ModulsTokenWithdraw",
      "type": "event"
    },
    {
      "anonymous": false,
      "inputs": [
        {
          "indexed": true,
          "internalType": "address",
          "name": "previousOwner",
          "type": "address"
        },
        {
          "indexed": true,
          "internalType": "address",
          "name": "newOwner",
          "type": "address"
        }
      ],
      "name": "OwnershipTransferred",
      "type": "event"
    },
    {
      "anonymous": false,
      "inputs": [
        {
          "indexed": false,
          "internalType": "address",
          "name": "account",
          "type": "address"
        }
      ],
      "name": "Paused",
      "type": "event"
    },
    {
      "anonymous": false,
      "inputs": [
        {
          "indexed": false,
          "internalType": "address",
          "name": "account",
          "type": "address"
        }
      ],
      "name": "Unpaused",
      "type": "event"
    },
    {
      "inputs": [
        {
          "internalType": "address",
          "name": "token",
          "type": "address"
        },
        {
          "internalType": "uint256",
          "name": "tokenAmount",
          "type": "uint256"
        },
        {
          "internalType": "uint256",
          "name": "maxCost",
          "type": "uint256"
        }
      ],
      "name": "buyToken",
      "outputs": [],
      "stateMutability": "payable",
      "type": "function"
    },
    {
      "inputs": [],
      "name": "cooldownTime",
      "outputs": [
        {
          "internalType": "uint256",
          "name": "",
          "type": "uint256"
        }
      ],
      "stateMutability": "view",
      "type": "function"
    },
    {
      "inputs": [
        {
          "internalType": "address",
          "name": "token",
          "type": "address"
        },
        {
          "internalType": "address",
          "name": "to",
          "type": "address"
        },
        {
          "internalType": "uint256",
          "name": "amount",
          "type": "uint256"
        }
      ],
      "name": "emergencyWithdrawToken",
      "outputs": [],
      "stateMutability": "nonpayable",
      "type": "function"
    },
    {
      "inputs": [
        {
          "internalType": "address",
          "name": "token",
          "type": "address"
        }
      ],
      "name": "getCurrentPrice",
      "outputs": [
        {
          "internalType": "uint256",
          "name": "",
          "type": "uint256"
        }
      ],
      "stateMutability": "view",
      "type": "function"
    },
    {
      "inputs": [
        {
          "internalType": "address",
          "name": "token",
          "type": "address"
        },
        {
          "internalType": "uint256",
          "name": "tokenAmount",
          "type": "uint256"
        }
      ],
      "name": "getEtherCostForToken",
      "outputs": [
        {
          "internalType": "uint256",
          "name": "cost",
          "type": "uint256"
        },
        {
          "internalType": "uint256",
          "name": "tax",
          "type": "uint256"
        },
        {
          "internalType": "uint256",
          "name": "totalCost",
          "type": "uint256"
        }
      ],
      "stateMutability": "view",
      "type": "function"
    },
    {
      "inputs": [
        {
          "internalType": "address",
          "name": "token",
          "type": "address"
        },
        {
          "internalType": "uint256",
          "name": "tokenAmount",
          "type": "uint256"
        }
      ],
      "name": "getEtherReturnForToken",
      "outputs": [
        {
          "internalType": "uint256",
          "name": "ethReturn",
          "type": "uint256"
        }
      ],
      "stateMutability": "view",
      "type": "function"
    },
    {
      "inputs": [],
      "name": "getSupportedTokens",
      "outputs": [
        {
          "internalType": "address[]",
          "name": "",
          "type": "address[]"
        }
      ],
      "stateMutability": "view",
      "type": "function"
    },
    {
      "inputs": [
        {
          "internalType": "address",
          "name": "token",
          "type": "address"
        },
        {
          "internalType": "uint256",
          "name": "ethAmount",
          "type": "uint256"
        }
      ],
      "name": "getTokenAmountForEther",
      "outputs": [
        {
          "internalType": "uint256",
          "name": "tokenAmount",
          "type": "uint256"
        },
        {
          "internalType": "uint256",
          "name": "cost",
          "type": "uint256"
        },
        {
          "internalType": "uint256",
          "name": "tax",
          "type": "uint256"
        },
        {
          "internalType": "uint256",
          "name": "totalCost",
          "type": "uint256"
        }
      ],
      "stateMutability": "view",
      "type": "function"
    },
    {
      "inputs": [
        {
          "internalType": "address",
          "name": "token",
          "type": "address"
        },
        {
          "internalType": "uint256",
          "name": "ethAmount",
          "type": "uint256"
        }
      ],
      "name": "getTokenAmountForEtherReturn",
      "outputs": [
        {
          "internalType": "uint256",
          "name": "tokenAmount",
          "type": "uint256"
        }
      ],
      "stateMutability": "view",
      "type": "function"
    },
    {
      "inputs": [],
      "name": "initialPrice",
      "outputs": [
        {
          "internalType": "uint256",
          "name": "",
          "type": "uint256"
        }
      ],
      "stateMutability": "view",
      "type": "function"
    },
    {
      "inputs": [
        {
          "internalType": "address",
          "name": "",
          "type": "address"
        },
        {
          "internalType": "address",
          "name": "",
          "type": "address"
        }
      ],
      "name": "lastBuyTime",
      "outputs": [
        {
          "internalType": "uint256",
          "name": "",
          "type": "uint256"
        }
      ],
      "stateMutability": "view",
      "type": "function"
    },
    {
      "inputs": [
        {
          "internalType": "address",
          "name": "",
          "type": "address"
        },
        {
          "internalType": "address",
          "name": "",
          "type": "address"
        }
      ],
      "name": "lastSellTime",
      "outputs": [
        {
          "internalType": "uint256",
          "name": "",
          "type": "uint256"
        }
      ],
      "stateMutability": "view",
      "type": "function"
    },
    {
      "inputs": [
        {
          "internalType": "address",
          "name": "",
          "type": "address"
        }
      ],
      "name": "marketConfigs",
      "outputs": [
        {
          "internalType": "address",
          "name": "token",
          "type": "address"
        },
        {
          "internalType": "address payable",
          "name": "agentWallet",
          "type": "address"
        },
        {
          "internalType": "address payable",
          "name": "devWallet",
          "type": "address"
        },
        {
          "internalType": "uint8",
          "name": "taxPercent",
          "type": "uint8"
        },
        {
          "internalType": "uint8",
          "name": "agentSplit",
          "type": "uint8"
        },
        {
          "internalType": "bool",
          "name": "exists",
          "type": "bool"
        }
      ],
      "stateMutability": "view",
      "type": "function"
    },
    {
      "inputs": [
        {
          "internalType": "address",
          "name": "",
          "type": "address"
        }
      ],
      "name": "marketStats",
      "outputs": [
        {
          "internalType": "uint256",
          "name": "ethCollected",
          "type": "uint256"
        },
        {
          "internalType": "uint256",
          "name": "tokensSold",
          "type": "uint256"
        },
        {
          "internalType": "uint256",
          "name": "lastBuyTime",
          "type": "uint256"
        },
        {
          "internalType": "uint256",
          "name": "lastSellTime",
          "type": "uint256"
        }
      ],
      "stateMutability": "view",
      "type": "function"
    },
    {
      "inputs": [],
      "name": "maxEthCap",
      "outputs": [
        {
          "internalType": "uint256",
          "name": "",
          "type": "uint256"
        }
      ],
      "stateMutability": "view",
      "type": "function"
    },
    {
      "inputs": [],
      "name": "owner",
      "outputs": [
        {
          "internalType": "address",
          "name": "",
          "type": "address"
        }
      ],
      "stateMutability": "view",
      "type": "function"
    },
    {
      "inputs": [],
      "name": "pause",
      "outputs": [],
      "stateMutability": "nonpayable",
      "type": "function"
    },
    {
      "inputs": [],
      "name": "paused",
      "outputs": [
        {
          "internalType": "bool",
          "name": "",
          "type": "bool"
        }
      ],
      "stateMutability": "view",
      "type": "function"
    },
    {
      "inputs": [],
      "name": "platformAdmin",
      "outputs": [
        {
          "internalType": "address",
          "name": "",
          "type": "address"
        }
      ],
      "stateMutability": "view",
      "type": "function"
    },
    {
      "inputs": [],
      "name": "priceSlope",
      "outputs": [
        {
          "internalType": "uint256",
          "name": "",
          "type": "uint256"
        }
      ],
      "stateMutability": "view",
      "type": "function"
    },
    {
      "inputs": [
        {
          "internalType": "address",
          "name": "token",
          "type": "address"
        }
      ],
      "name": "registerToken",
      "outputs": [],
      "stateMutability": "nonpayable",
      "type": "function"
    },
    {
      "inputs": [
        {
          "internalType": "address",
          "name": "token",
          "type": "address"
        }
      ],
      "name": "removeToken",
      "outputs": [],
      "stateMutability": "nonpayable",
      "type": "function"
    },
    {
      "inputs": [],
      "name": "renounceOwnership",
      "outputs": [],
      "stateMutability": "nonpayable",
      "type": "function"
    },
    {
      "inputs": [
        {
          "internalType": "address",
          "name": "token",
          "type": "address"
        },
        {
          "internalType": "uint256",
          "name": "tokenAmount",
          "type": "uint256"
        },
        {
          "internalType": "uint256",
          "name": "minReturn",
          "type": "uint256"
        }
      ],
      "name": "sellToken",
      "outputs": [],
      "stateMutability": "nonpayable",
      "type": "function"
    },
    {
      "inputs": [
        {
          "internalType": "uint256",
          "name": "_initialPrice",
          "type": "uint256"
        },
        {
          "internalType": "uint256",
          "name": "_priceSlope",
          "type": "uint256"
        },
        {
          "internalType": "uint256",
          "name": "_maxEthCap",
          "type": "uint256"
        }
      ],
      "name": "setBondingCurveParameters",
      "outputs": [],
      "stateMutability": "nonpayable",
      "type": "function"
    },
    {
      "inputs": [
        {
          "internalType": "uint256",
          "name": "_cooldownTime",
          "type": "uint256"
        }
      ],
      "name": "setCooldownTime",
      "outputs": [],
      "stateMutability": "nonpayable",
      "type": "function"
    },
    {
      "inputs": [
        {
          "internalType": "uint256",
          "name": "_initialPrice",
          "type": "uint256"
        }
      ],
      "name": "setInitialPrice",
      "outputs": [],
      "stateMutability": "nonpayable",
      "type": "function"
    },
    {
      "inputs": [
        {
          "internalType": "uint256",
          "name": "_maxEthCap",
          "type": "uint256"
        }
      ],
      "name": "setMaxEthCap",
      "outputs": [],
      "stateMutability": "nonpayable",
      "type": "function"
    },
    {
      "inputs": [
        {
          "internalType": "uint256",
          "name": "_priceSlope",
          "type": "uint256"
        }
      ],
      "name": "setPriceSlope",
      "outputs": [],
      "stateMutability": "nonpayable",
      "type": "function"
    },
    {
      "inputs": [
        {
          "internalType": "address",
          "name": "",
          "type": "address"
        }
      ],
      "name": "tradeStats",
      "outputs": [
        {
          "internalType": "uint256",
          "name": "totalVolumeETH",
          "type": "uint256"
        },
        {
          "internalType": "uint256",
          "name": "totalVolumeToken",
          "type": "uint256"
        },
        {
          "internalType": "uint256",
          "name": "totalBuys",
          "type": "uint256"
        },
        {
          "internalType": "uint256",
          "name": "totalSells",
          "type": "uint256"
        }
      ],
      "stateMutability": "view",
      "type": "function"
    },
    {
      "inputs": [
        {
          "internalType": "address",
          "name": "newOwner",
          "type": "address"
        }
      ],
      "name": "transferOwnership",
      "outputs": [],
      "stateMutability": "nonpayable",
      "type": "function"
    },
    {
      "inputs": [],
      "name": "unpause",
      "outputs": [],
      "stateMutability": "nonpayable",
      "type": "function"
    },
    {
      "inputs": [
        {
          "internalType": "address payable",
          "name": "to",
          "type": "address"
        },
        {
          "internalType": "uint256",
          "name": "amount",
          "type": "uint256"
        }
      ],
      "name": "withdrawETH",
      "outputs": [],
      "stateMutability": "nonpayable",
      "type": "function"
    },
    {
      "stateMutability": "payable",
      "type": "receive"
    }
  ],
  "bytecode": "0x608034620000f257601f6200308a38819003918201601f19168301916001600160401b03831184841017620000f757808492602094604052833981010312620000f257516001600160a01b039081811690819003620000f2578015620000d957600054918160018060a01b031991818386161760005560405194167f8be0079c531659141344cd1fd0a4f28419497f9722a3daafe3b4186f6b6457e0600080a3600180556305f5e100600355620f4240600455683635c9adc5dea000006005556002600d556002541617600255612f7c90816200010e8239f35b604051631e4fbdf760e01b815260006004820152602490fd5b600080fd5b634e487b7160e01b600052604160045260246000fdfe6080604052600436101561001b575b361561001957600080fd5b005b60003560e01c806307bbcf301461257d57806309824a80146120505780630a4b4b2b1461203257806312d0481514611fd5578063144bbce614611f785780631d0806ae14611f5a578063277327a514611ee857806329f8e55814611e60578063339d70de14611e0e578063362b9f0a14611cce5780633a8641ea14611c485780633e11741f146117a05780633f4ba83a146117185780634782f7791461161357806354e42f7e146115f55780635c975abb146115cf5780635fa7b584146115165780636056527f1461149b5780636c82d6431461130f5780636ff73201146112a1578063715018a61461123b578063739733d814610d8f5780638456cb5914610d1e57806384cc315b14610cf35780638da5cb5b14610ccc5780639f4ba0ee14610c47578063a37e3d5614610a6e578063b319c6b714610a50578063ca9d4c79146109fe578063cdcd7fb5146109d7578063d3c7c2c714610918578063e671499b1461023c5763f2fde38b0361000e5734610237576020366003190112610237576101a461264a565b6101ac612ae2565b6001600160a01b03809116908115610206576000548273ffffffffffffffffffffffffffffffffffffffff19821617600055167f8be0079c531659141344cd1fd0a4f28419497f9722a3daafe3b4186f6b6457e0600080a3005b60246040517f1e4fbdf700000000000000000000000000000000000000000000000000000000815260006004820152fd5b600080fd5b61024536612676565b9061024e612bf8565b8061025a811515612971565b6001600160a01b03841660005260066020526102856001600160a01b03604060002054161515612926565b6001600160a01b038416600052600660205260406000209260ff6002604051956102ae8761289d565b6001600160a01b0381541687526001600160a01b03600182015416602088015201546001600160a01b0381166040870152818160a01c166060870152818160a81c16608087015260b01c16151560a08501526001600160a01b038516600052600760205260406000209333600052600b60205260406000206001600160a01b038716600052602052610348604060002054600d54906129f7565b42106108d4576040519263313ce56760e01b84526020846004816001600160a01b038b165afa9384156108c857600094610893575b506103949061038e60ff86166129bc565b906129ca565b916001860154926103ae6103a882866129f7565b85612b7b565b9660646103c260ff6060870151168a612a8f565b04926103ce848a6129f7565b968254916103dc8b846129f7565b91600554809311610710575b506103f590891115612a04565b8734106106cc576104068a836129f7565b11610688576000938385949361044d8c879695610443889761043d60646104358f608060ff910151168b612a8f565b0480996129ea565b9d6129f7565b60018501556129f7565b8155600242910155338352600b602052604083206001600160a01b038d16845260205242604084205560086020526040832061048a8c82546129f7565b90556001600160a01b038c16835260086020526104af600160408520019182546129f7565b90556001600160a01b038b1682526008602052600260408320016104d38154612aa2565b90556104ea89336001600160a01b03895116612b26565b6001600160a01b036020870151165af1610502612a4f565b50156106445760008080936001600160a01b03604083950151165af1610526612a4f565b50156106005761053690346129ea565b8061059f575b507f05f8a6c6c7a11ffcbd08ed43b685d506fad4c4f6232e739549c3008571e766529061056884612ab1565b6040805192835260208301949094529281019290925242606083015233926001600160a01b03169180608081015b0390a360018055005b600080808093335af16105b0612a4f565b50156105bc578361053c565b606460405162461bcd60e51b815260206004820152600d60248201527f526566756e64206661696c6564000000000000000000000000000000000000006044820152fd5b606460405162461bcd60e51b815260206004820152601860248201527f4661696c656420746f2073656e642064657620736861726500000000000000006044820152fd5b606460405162461bcd60e51b815260206004820152601a60248201527f4661696c656420746f2073656e64206167656e742073686172650000000000006044820152fd5b606460405162461bcd60e51b815260206004820152601360248201527f4d617820455448206361702072656163686564000000000000000000000000006044820152fd5b606460405162461bcd60e51b815260206004820152601060248201527f496e73756666696369656e7420455448000000000000000000000000000000006044820152fd5b985093508199506107259298508094506129ea565b600354906107406004549261073a8489612a8f565b906129f7565b906001600160ff1b038216820361087d576001600160ff1b038116810361087d5761076f600183901b80612a8f565b7f3fffffffffffffffffffffffffffffffffffffffffffffffffffffffffffffff8416840361087d576107b66107bb9161073a6107c09560011b9460011b8760021b612a8f565b612efb565b6129ea565b6001600160ff1b038216820361087d576107dd9160011b906129ca565b958615610839576107ee87866129f7565b6107f89086612b7b565b97606085015160ff1661080b908a612a8f565b606490049361081a858b6129f7565b9760ff16610827906129bc565b610831908a612a8f565b98938c6103e8565b606460405162461bcd60e51b815260206004820152601060248201527f4e6f20746f6b656e7320746f20627579000000000000000000000000000000006044820152fd5b634e487b7160e01b600052601160045260246000fd5b6103949194506108ba9060203d6020116108c1575b6108b281836128eb565b81019061290d565b939061037d565b503d6108a8565b6040513d6000823e3d90fd5b606460405162461bcd60e51b815260206004820152601060248201527f436f6f6c646f776e206e6f74206d6574000000000000000000000000000000006044820152fd5b3461023757600036600319011261023757604051806009548083526020809301809160096000527f6e1540171b6c0c960b71a7020d9f60077f6af931a8bbf590da0223dacf75c7af9060005b868282106109c357868661097a828803836128eb565b604051928392818401908285525180915260408401929160005b8281106109a357505050500390f35b83516001600160a01b031685528695509381019392810192600101610994565b835485529093019260019283019201610964565b346102375760003660031901126102375760206001600160a01b0360025416604051908152f35b3461023757604036600319011261023757610a1761264a565b610a1f612660565b906001600160a01b03809116600052600c602052604060002091166000526020526020604060002054604051908152f35b34610237576000366003190112610237576020600d54604051908152f35b3461023757604036600319011261023757610a8761264a565b602435906001600160a01b0380911680600052610b6c60209160068352610ab684604060002054161515612926565b610ac1851515612971565b80600052600683526040600020600260405191610add8361289d565b86815416835286600182015416868401520154948516604082015260a060ff60608301968181841c168852818160a81c16608085015260b01c16151591015280600052600783526040600020604051610b35816128cf565b81548152610b616001830154600387840194828652600281015460408601520154606084015288612c33565b9490949782516129f7565b90600554809211610c1d575b505050826004916040519283809263313ce56760e01b82525afa9283156108c857610bc4606493610bbe60ff610bfc97610bcd968296600092610c00575b5050166129bc565b90612a8f565b94511685612a8f565b04610bd881856129f7565b90604051948594859094939260609260808301968352602083015260408201520152565b0390f35b610c169250803d106108c1576108b281836128eb565b8b80610bb6565b8597506004939450610c3d9291610c359151906129ea565b905190612c33565b9590929187610b78565b34610237576020366003190112610237577f909b37d51ce486819f8eca79b8e045f2ab9789e72cb989f00942fb52da796c87600435610c84612ae2565b610c8f8115156126a0565b610ca3670de0b6b3a7640000821115612710565b60038190556004546005546040805193845260208401929092529082015280606081015b0390a1005b346102375760003660031901126102375760206001600160a01b0360005416604051908152f35b34610237576020366003190112610237576020610d16610d1161264a565b612ab1565b604051908152f35b3461023757600036600319011261023757610d37612ae2565b610d3f612bbf565b7401000000000000000000000000000000000000000060ff60a01b1960005416176000557f62e78cea01bee320cd4e420270b5ea74000d11b0c9f74754ebdbfc544b05a2586020604051338152a1005b3461023757604036600319011261023757610da861264a565b60249081356001600160a01b0380921680600052610dd460209360068552604060002054161515612926565b610ddf821515612971565b8060005260078352604060002060405190610df9826128cf565b80548252600191828201546003878301938285526002810154604085015201546060830152156111f85751841161118f57805160035490600454801585171561117a57610e5b9261073a610e50610e569385612a8f565b826129f7565b612a8f565b821c841161111157600090805192600095600094826000905b610ffd575b5050505050508215610f945715610f5157826004916040519283809263313ce56760e01b82525afa80156108c85760ff91600091610f34575b501692610ebe846129bc565b8015610f1f57600019048211610edc5750610bbe610d1692936129bc565b8260156064926040519262461bcd60e51b845260048401528201527f546f6b656e20616d6f756e74206f766572666c6f7700000000000000000000006044820152fd5b50634e487b7160e01b60005260126004526000fd5b610f4b9150843d86116108c1576108b281836128eb565b85610eb2565b606483601e866040519262461bcd60e51b845260048401528201527f496e76616c6964204554482072657475726e2063616c63756c6174696f6e00006044820152fd5b6084846033876040519262461bcd60e51b845260048401528201527f436f756c64206e6f742066696e642076616c696420746f6b656e20616d6f756e60448201527f7420666f722072657175657374656420455448000000000000000000000000006064820152fd5b8186979996111580611107575b156110fe5761101982886129f7565b841c96855188116110d85761103a6110328988516129ea565b875190612b7b565b84811115806110cf575b6110c4575b80850361106457505050505050505091858080808080610e79565b84909a989596979a106000146110aa57508484018094116110955761108a859491612aa2565b945b95949095610e74565b8a634e487b7160e01b60005260116004526000fd5b90915060001984019384116110955761108a859492612aa2565b995087965089611049565b508a8111611044565b9091506000989693949598198401938411611095576110f8859492612aa2565b9461108c565b85989650610e79565b506064811061100a565b6084856034886040519262461bcd60e51b845260048401528201527f5265717565737465642045544820616d6f756e742065786365656473206d617860448201527f696d756d20706f737369626c652072657475726e0000000000000000000000006064820152fd5b88634e487b7160e01b60005260116004526000fd5b608485602c886040519262461bcd60e51b845260048401528201527f5265717565737465642045544820616d6f756e742065786365656473206d617260448201527f6b657420636170616369747900000000000000000000000000000000000000006064820152fd5b606486601b896040519262461bcd60e51b845260048401528201527f4e6f20746f6b656e7320696e206d61726b657420746f2073656c6c00000000006044820152fd5b3461023757600036600319011261023757611254612ae2565b60006001600160a01b03815473ffffffffffffffffffffffffffffffffffffffff1981168355167f8be0079c531659141344cd1fd0a4f28419497f9722a3daafe3b4186f6b6457e08280a3005b34610237576020366003190112610237576004356112bd612ae2565b610e1081116112cb57600d55005b606460405162461bcd60e51b815260206004820152601160248201527f436f6f6c646f776e20746f6f20686967680000000000000000000000000000006044820152fd5b346102375760403660031901126102375761132861264a565b6024356001600160a01b03809216806000526020916006835261135384604060002054161515612926565b61135e811515612971565b8160005260068352604060002060026040519161137a8361289d565b86815416835286600182015416868401520154948516604082015260a060ff60608301968181841c168852818160a81c16608085015260b01c16151591015281600052600783526004836040600020936040516113d6816128cf565b85548152606060036001880154978584019889526002810154604085015201549101526040519283809263313ce56760e01b82525afa9283156108c85761144361143a60ff9461038e86611452986114499760649b60009261147e575050166129bc565b915191826129f7565b90612b7b565b93511683612a8f565b0490610bfc61146183836129f7565b604051938493846040919493926060820195825260208201520152565b6114949250803d106108c1576108b281836128eb565b8c80610bb6565b346102375760203660031901126102375760c06001600160a01b03806114bf61264a565b16600052600660205260ff6040600020828154169260028160018401541692015491604051948552602085015281166040840152818160a01c166060840152818160a81c16608084015260b01c16151560a0820152f35b34610237576020366003190112610237576001600160a01b0361153761264a565b61153f612ae2565b1680600052600660205261156060ff60026040600020015460b01c16612926565b61156981612e11565b5060005260066020526000600260408220828155826001820155015560076020526115aa604060002060036000918281558260018201558260028201550155565b6008602052610019604060002060036000918281558260018201558260028201550155565b3461023757600036600319011261023757602060ff60005460a01c166040519015158152f35b34610237576000366003190112610237576020600454604051908152f35b34610237576040366003190112610237576004356001600160a01b03811680910361023757602435611643612ae2565b8047106116d457600080808084865af161165b612a4f565b5015611690577f04ea5e4f058c19170d8b2bb031497d920d63e7b2245a46a37e782424ad6743ac6020600092604051908152a3005b606460405162461bcd60e51b815260206004820152600f60248201527f5769746864726177206661696c656400000000000000000000000000000000006044820152fd5b606460405162461bcd60e51b815260206004820152601d60248201527f496e73756666696369656e7420636f6e74726163742062616c616e63650000006044820152fd5b3461023757600036600319011261023757611731612ae2565b60005460ff8160a01c16156117765760ff60a01b19166000557f5db9ee0a495bf2e6ff9c91a7834c1ba4fdd244a5e8aa4e537bd38aeae4b073aa6020604051338152a1005b60046040517f8dfc202b000000000000000000000000000000000000000000000000000000008152fd5b34610237576117ae36612676565b91906117b8612bbf565b6117c0612bf8565b6001600160a01b03918281169283600052602090600a825260406000205415611c04576117ee841515612971565b33600052600c82526040600020856000528252611813604060002054600d54906129f7565b421115611bc057604051907fdd62ed3e000000000000000000000000000000000000000000000000000000008252336004830152602491308382015283816044818a5afa80156108c8578691600091611b8f575b5010611b4c578560005260068352604060002060ff60026040519261188b8461289d565b848154168452846001820154168785015201548381166040840152818160a01c166060840152818160a81c16608084015260b01c16151560a08201528660005260078452604060002060405163313ce56760e01b815285816004818c5afa80156108c85760ff6119089161190e93600091611b2f575b50166129bc565b886129ca565b906001810180546119288161192386826129ea565b612b7b565b9b848210611aec576119539161194c8e6119458894821015612a04565b86546129ea565b85556129ea565b905560034291015533600052600c85526040600020886000528552426040600020556008855260406000206119898a82546129f7565b905587600052600885526119a660016040600020019182546129f7565b9055866000526008845260036040600020016119c28154612aa2565b90555116604051907f23b872dd000000000000000000000000000000000000000000000000000000008483015233838301523060448301528560648301526064825260a0820182811067ffffffffffffffff821117611ad757604052611a289190612d9d565b600080808089335af1611a39612a4f565b5015611a9457505090611a6c7f3060fdb50698e411317542c0cd2dae5ecdbe3718d3d211886d569d0d062777e292612ab1565b6040805192835260208301959095529381019390935242606084015233928060808101610596565b9060136064926040519262461bcd60e51b845260048401528201527f455448207472616e73666572206661696c6564000000000000000000000000006044820152fd5b83634e487b7160e01b60005260416004526000fd5b60648960178a6040519262461bcd60e51b845260048401528201527f556e646572666c6f77206f6e20746f6b656e73536f6c640000000000000000006044820152fd5b611b469150893d8b116108c1576108b281836128eb565b8d611901565b6064836016846040519262461bcd60e51b845260048401528201527f496e73756666696369656e7420616c6c6f77616e6365000000000000000000006044820152fd5b809250858092503d8311611bb9575b611ba881836128eb565b810103126102375785905189611867565b503d611b9e565b6064826040519062461bcd60e51b82526004820152600d60248201527f53656c6c20636f6f6c646f776e000000000000000000000000000000000000006044820152fd5b6064826040519062461bcd60e51b82526004820152601160248201527f556e737570706f7274656420746f6b656e0000000000000000000000000000006044820152fd5b34610237576020366003190112610237577f909b37d51ce486819f8eca79b8e045f2ab9789e72cb989f00942fb52da796c87600435611c85612ae2565b611c9081151561275b565b611ca467016345785d8a00008211156127b1565b80600455600354610cc7600554604051938493846040919493926060820195825260208201520152565b3461023757604036600319011261023757611ce761264a565b60243560046001600160a01b038093169182600052611d1460209460068652604060002054161515612926565b611d1f811515612971565b826000526007845283604060002093604051611d3a816128cf565b85548152606060036001880154978584019889526002810154604085015201549101526040519384809263313ce56760e01b82525afa80156108c85760ff61038e91611d8e94600091611df15750166129bc565b80825110611dad5790611da5610d169282516129ea565b905190612b7b565b6064836040519062461bcd60e51b82526004820152601d60248201527f496e73756666696369656e7420746f6b656e7320696e206d61726b65740000006044820152fd5b611e089150873d89116108c1576108b281836128eb565b87611901565b3461023757604036600319011261023757611e2761264a565b611e2f612660565b906001600160a01b03809116600052600b602052604060002091166000526020526020604060002054604051908152f35b34610237576020366003190112610237577f909b37d51ce486819f8eca79b8e045f2ab9789e72cb989f00942fb52da796c87600435611e9d612ae2565b611ea88115156127fc565b611ebd683635c9adc5dea00000821115612852565b80600555600354610cc760045492604051938493846040919493926060820195825260208201520152565b3461023757606036600319011261023757611f0161264a565b611f09612660565b7f04ea5e4f058c19170d8b2bb031497d920d63e7b2245a46a37e782424ad6743ac602060443593611f38612ae2565b6001600160a01b0380911693611f4f868287612b26565b6040519586521693a3005b34610237576000366003190112610237576020600354604051908152f35b34610237576020366003190112610237576001600160a01b03611f9961264a565b16600090815260086020908152604091829020805460018201546002830154600390930154855192835293820152928301526060820152608090f35b34610237576020366003190112610237576001600160a01b03611ff661264a565b16600090815260076020908152604091829020805460018201546002830154600390930154855192835293820152928301526060820152608090f35b34610237576000366003190112610237576020600554604051908152f35b3461023757602080600319360112610237576001600160a01b03908161207461264a565b1690816000526006815260ff60026040600020015460b01c16612539576040517f70a082310000000000000000000000000000000000000000000000000000000081523060048201528181602481865afa9081156108c85760009161250c575b50156124c857604051927f3f6dfdbc0000000000000000000000000000000000000000000000000000000084528184600481865afa9384156108c857600094612490575b506040517f8ea5220f0000000000000000000000000000000000000000000000000000000081528281600481875afa80156108c8578291600091612456575b501691604051917f7541f41c0000000000000000000000000000000000000000000000000000000083528183600481885afa9283156108c857600093612437575b50604051927ff83a27cd0000000000000000000000000000000000000000000000000000000084528284600481895afa9384156108c857600094612418575b508433036123ae5760ff1692600a841161236a5760ff1690606482116123265760026040516122058161289d565b87815282858201991698898152604082019788526060820196875260808201948552600660a0830196600188528a6000525283604060002092511673ffffffffffffffffffffffffffffffffffffffff199081845416178355846001840192511690825416179055019451167fffffffffffffffffff000000000000000000000000000000000000000000000076ff0000000000000000000000000000000000000000000075ff00000000000000000000000000000000000000000074ff00000000000000000000000000000000000000008854975160a01b16945160a81b169451151560b01b1694161717171790556122fe81612d1b565b507fc6d423769e44315c2e313bc0beef7d85de7b8bb794fe635e1c2653f6593475a8600080a3005b6064836040519062461bcd60e51b82526004820152600d60248201527f496e76616c69642073706c6974000000000000000000000000000000000000006044820152fd5b6064836040519062461bcd60e51b82526004820152600c60248201527f54617820746f6f206869676800000000000000000000000000000000000000006044820152fd5b6084836040519062461bcd60e51b82526004820152602560248201527f4f6e6c7920746f6b656e2063726561746f722063616e2072656769737465722060448201527f746f6b656e0000000000000000000000000000000000000000000000000000006064820152fd5b612430919450833d85116108c1576108b281836128eb565b92876121d7565b61244f919350823d84116108c1576108b281836128eb565b9186612198565b809250848092503d8311612489575b61246f81836128eb565b810103126102375751818116810361023757819086612157565b503d612465565b9093508181813d83116124c1575b6124a881836128eb565b8101031261023757518381168103610237579284612118565b503d61249e565b6064906040519062461bcd60e51b82526004820152601c60248201527f53616c65734d616e61676572206d75737420686f6c6420746f6b656e000000006044820152fd5b90508181813d8311612532575b61252381836128eb565b810103126102375751846120d4565b503d612519565b6064906040519062461bcd60e51b82526004820152601860248201527f546f6b656e20616c7265616479207265676973746572656400000000000000006044820152fd5b34610237576060366003190112610237577f909b37d51ce486819f8eca79b8e045f2ab9789e72cb989f00942fb52da796c87602435600435610cc76044356125c3612ae2565b6125ce8315156126a0565b6125e2670de0b6b3a7640000841115612710565b6125ed84151561275b565b61260167016345785d8a00008511156127b1565b61260c8115156127fc565b612621683635c9adc5dea00000821115612852565b826003558360045580600555604051938493846040919493926060820195825260208201520152565b600435906001600160a01b038216820361023757565b602435906001600160a01b038216820361023757565b6060906003190112610237576004356001600160a01b038116810361023757906024359060443590565b156126a757565b608460405162461bcd60e51b8152602060048201526024808201527f496e697469616c207072696365206d757374206265206772656174657220746860448201527f616e2030000000000000000000000000000000000000000000000000000000006064820152fd5b1561271757565b606460405162461bcd60e51b815260206004820152601660248201527f496e697469616c20707269636520746f6f2068696768000000000000000000006044820152fd5b1561276257565b608460405162461bcd60e51b815260206004820152602260248201527f507269636520736c6f7065206d7573742062652067726561746572207468616e604482015261020360f41b6064820152fd5b156127b857565b606460405162461bcd60e51b815260206004820152601460248201527f507269636520736c6f706520746f6f20686967680000000000000000000000006044820152fd5b1561280357565b608460405162461bcd60e51b815260206004820152602260248201527f4d61782045544820636170206d7573742062652067726561746572207468616e604482015261020360f41b6064820152fd5b1561285957565b606460405162461bcd60e51b815260206004820152601460248201527f4d6178204554482063617020746f6f20686967680000000000000000000000006044820152fd5b60c0810190811067ffffffffffffffff8211176128b957604052565b634e487b7160e01b600052604160045260246000fd5b6080810190811067ffffffffffffffff8211176128b957604052565b90601f8019910116810190811067ffffffffffffffff8211176128b957604052565b90816020910312610237575160ff811681036102375790565b1561292d57565b606460405162461bcd60e51b815260206004820152601460248201527f546f6b656e206e6f7420726567697374657265640000000000000000000000006044820152fd5b1561297857565b606460405162461bcd60e51b815260206004820152601d60248201527f416d6f756e74206d7573742062652067726561746572207468616e20300000006044820152fd5b604d811161087d57600a0a90565b81156129d4570490565b634e487b7160e01b600052601260045260246000fd5b9190820391821161087d57565b9190820180921161087d57565b15612a0b57565b606460405162461bcd60e51b815260206004820152601160248201527f536c69707061676520746f6f20686967680000000000000000000000000000006044820152fd5b3d15612a8a573d9067ffffffffffffffff82116128b95760405191612a7e601f8201601f1916602001846128eb565b82523d6000602084013e565b606090565b8181029291811591840414171561087d57565b600019811461087d5760010190565b612adf906001600160a01b036003549116600052600760205261073a60016040600020015460045490612a8f565b90565b6001600160a01b03600054163303612af657565b60246040517f118cdaa7000000000000000000000000000000000000000000000000000000008152336004820152fd5b612b79926001600160a01b03604051937fa9059cbb000000000000000000000000000000000000000000000000000000006020860152166024840152604483015260448252612b74826128cf565b612d9d565b565b610e56612bb992612bb360035493612bad6004549561073a612ba6612ba08986612a8f565b836129f7565b9786612a8f565b926129ea565b926129f7565b60011c90565b60ff60005460a01c16612bce57565b60046040517fd93c0665000000000000000000000000000000000000000000000000000000008152fd5b600260015414612c09576002600155565b60046040517f3ee5aeb5000000000000000000000000000000000000000000000000000000008152fd5b9190612c4860035461073a6004548094612a8f565b8060011b6001600160ff1b03918281160361087d57818516850361087d57612c708180612a8f565b907f3fffffffffffffffffffffffffffffffffffffffffffffffffffffffffffffff8416840361087d576107bb6107b6612cb49361073a8960011b8860021b612a8f565b908216820361087d57612cca9160011b906129ca565b9190565b600954811015612d055760096000527f6e1540171b6c0c960b71a7020d9f60077f6af931a8bbf590da0223dacf75c7af0190600090565b634e487b7160e01b600052603260045260246000fd5b6000818152600a6020526040812054612d985760095468010000000000000000811015612d84579082612d70612d5984600160409601600955612cce565b819391549060031b91821b91600019901b19161790565b9055600954928152600a6020522055600190565b602482634e487b7160e01b81526041600452fd5b905090565b906000602091828151910182855af1156108c8576000513d612e0857506001600160a01b0381163b155b612dce5750565b6024906001600160a01b03604051917f5274afe7000000000000000000000000000000000000000000000000000000008352166004820152fd5b60011415612dc7565b6000818152600a60205260408120549091908015612ef65760001990808201818111612ee25760095490838201918211612ece57818103612e9a575b5050506009548015612e8657810190612e6582612cce565b909182549160031b1b191690556009558152600a6020526040812055600190565b602484634e487b7160e01b81526031600452fd5b612eb8612ea9612d5993612cce565b90549060031b1c928392612cce565b90558452600a6020526040842055388080612e4d565b602486634e487b7160e01b81526011600452fd5b602485634e487b7160e01b81526011600452fd5b505090565b8015612f4057600180820180831161087d5760011c90825b838310612f205750505090565b90919250612f3783612f3281846129ca565b6129f7565b821c9190612f13565b5060009056fea2646970667358221220759307169876cb052ad2cfcccef9e43439a34ce49500517a701a271e958769b564736f6c63430008160033",
  "linkReferences": {},
  "deployedLinkReferences": {}
}