{
  "_format": "hh-sol-artifact-1",
  "contractName": "ModulsSalesManager",
  "sourceName": "contracts/ModulsSalesManager.sol",
  "abi": [
    {
      "inputs": [],
      "stateMutability": "nonpayable",
      "type": "constructor"
    },
    {
      "inputs": [],
      "name": "EnforcedPause",
      "type": "error"
    },
    {
      "inputs": [],
      "name": "ExpectedPause",
      "type": "error"
    },
    {
      "inputs": [
        {
          "internalType": "address",
          "name": "owner",
          "type": "address"
        }
      ],
      "name": "OwnableInvalidOwner",
      "type": "error"
    },
    {
      "inputs": [
        {
          "internalType": "address",
          "name": "account",
          "type": "address"
        }
      ],
      "name": "OwnableUnauthorizedAccount",
      "type": "error"
    },
    {
      "inputs": [],
      "name": "ReentrancyGuardReentrantCall",
      "type": "error"
    },
    {
      "inputs": [
        {
          "internalType": "address",
          "name": "token",
          "type": "address"
        }
      ],
      "name": "SafeERC20FailedOperation",
      "type": "error"
    },
    {
      "anonymous": false,
      "inputs": [
        {
          "indexed": false,
          "internalType": "uint256",
          "name": "initialPrice",
          "type": "uint256"
        },
        {
          "indexed": false,
          "internalType": "uint256",
          "name": "priceSlope",
          "type": "uint256"
        },
        {
          "indexed": false,
          "internalType": "uint256",
          "name": "maxEthCap",
          "type": "uint256"
        }
      ],
      "name": "BondingCurveParametersUpdated",
      "type": "event"
    },
    {
      "anonymous": false,
      "inputs": [
        {
          "indexed": true,
          "internalType": "address",
          "name": "token",
          "type": "address"
        },
        {
          "indexed": true,
          "internalType": "address",
          "name": "buyer",
          "type": "address"
        },
        {
          "indexed": false,
          "internalType": "uint256",
          "name": "amount",
          "type": "uint256"
        },
        {
          "indexed": false,
          "internalType": "uint256",
          "name": "ethSpent",
          "type": "uint256"
        },
        {
          "indexed": false,
          "internalType": "uint256",
          "name": "price",
          "type": "uint256"
        },
        {
          "indexed": false,
          "internalType": "uint256",
          "name": "timestamp",
          "type": "uint256"
        }
      ],
      "name": "ModulsTokenPurchase",
      "type": "event"
    },
    {
      "anonymous": false,
      "inputs": [
        {
          "indexed": true,
          "internalType": "address",
          "name": "token",
          "type": "address"
        },
        {
          "indexed": true,
          "internalType": "address",
          "name": "agentWallet",
          "type": "address"
        }
      ],
      "name": "ModulsTokenRegistered",
      "type": "event"
    },
    {
      "anonymous": false,
      "inputs": [
        {
          "indexed": true,
          "internalType": "address",
          "name": "token",
          "type": "address"
        },
        {
          "indexed": true,
          "internalType": "address",
          "name": "seller",
          "type": "address"
        },
        {
          "indexed": false,
          "internalType": "uint256",
          "name": "amount",
          "type": "uint256"
        },
        {
          "indexed": false,
          "internalType": "uint256",
          "name": "ethReceived",
          "type": "uint256"
        },
        {
          "indexed": false,
          "internalType": "uint256",
          "name": "price",
          "type": "uint256"
        },
        {
          "indexed": false,
          "internalType": "uint256",
          "name": "timestamp",
          "type": "uint256"
        }
      ],
      "name": "ModulsTokenSell",
      "type": "event"
    },
    {
      "anonymous": false,
      "inputs": [
        {
          "indexed": true,
          "internalType": "address",
          "name": "token",
          "type": "address"
        },
        {
          "indexed": true,
          "internalType": "address",
          "name": "to",
          "type": "address"
        },
        {
          "indexed": false,
          "internalType": "uint256",
          "name": "amount",
          "type": "uint256"
        }
      ],
      "name": "ModulsTokenWithdraw",
      "type": "event"
    },
    {
      "anonymous": false,
      "inputs": [
        {
          "indexed": true,
          "internalType": "address",
          "name": "previousOwner",
          "type": "address"
        },
        {
          "indexed": true,
          "internalType": "address",
          "name": "newOwner",
          "type": "address"
        }
      ],
      "name": "OwnershipTransferred",
      "type": "event"
    },
    {
      "anonymous": false,
      "inputs": [
        {
          "indexed": false,
          "internalType": "address",
          "name": "account",
          "type": "address"
        }
      ],
      "name": "Paused",
      "type": "event"
    },
    {
      "anonymous": false,
      "inputs": [
        {
          "indexed": false,
          "internalType": "address",
          "name": "account",
          "type": "address"
        }
      ],
      "name": "Unpaused",
      "type": "event"
    },
    {
      "inputs": [],
      "name": "PLATFORM_ADMIN",
      "outputs": [
        {
          "internalType": "address",
          "name": "",
          "type": "address"
        }
      ],
      "stateMutability": "view",
      "type": "function"
    },
    {
      "inputs": [
        {
          "internalType": "address",
          "name": "token",
          "type": "address"
        },
        {
          "internalType": "uint256",
          "name": "tokenAmount",
          "type": "uint256"
        },
        {
          "internalType": "uint256",
          "name": "maxCost",
          "type": "uint256"
        }
      ],
      "name": "buyToken",
      "outputs": [],
      "stateMutability": "payable",
      "type": "function"
    },
    {
      "inputs": [],
      "name": "cooldownTime",
      "outputs": [
        {
          "internalType": "uint256",
          "name": "",
          "type": "uint256"
        }
      ],
      "stateMutability": "view",
      "type": "function"
    },
    {
      "inputs": [
        {
          "internalType": "address",
          "name": "token",
          "type": "address"
        },
        {
          "internalType": "address",
          "name": "to",
          "type": "address"
        },
        {
          "internalType": "uint256",
          "name": "amount",
          "type": "uint256"
        }
      ],
      "name": "emergencyWithdrawToken",
      "outputs": [],
      "stateMutability": "nonpayable",
      "type": "function"
    },
    {
      "inputs": [
        {
          "internalType": "address",
          "name": "token",
          "type": "address"
        }
      ],
      "name": "getCurrentPrice",
      "outputs": [
        {
          "internalType": "uint256",
          "name": "",
          "type": "uint256"
        }
      ],
      "stateMutability": "view",
      "type": "function"
    },
    {
      "inputs": [
        {
          "internalType": "address",
          "name": "token",
          "type": "address"
        },
        {
          "internalType": "uint256",
          "name": "tokenAmount",
          "type": "uint256"
        }
      ],
      "name": "getEtherCostForToken",
      "outputs": [
        {
          "internalType": "uint256",
          "name": "cost",
          "type": "uint256"
        },
        {
          "internalType": "uint256",
          "name": "tax",
          "type": "uint256"
        },
        {
          "internalType": "uint256",
          "name": "totalCost",
          "type": "uint256"
        }
      ],
      "stateMutability": "view",
      "type": "function"
    },
    {
      "inputs": [
        {
          "internalType": "address",
          "name": "token",
          "type": "address"
        },
        {
          "internalType": "uint256",
          "name": "tokenAmount",
          "type": "uint256"
        }
      ],
      "name": "getEtherReturnForToken",
      "outputs": [
        {
          "internalType": "uint256",
          "name": "ethReturn",
          "type": "uint256"
        }
      ],
      "stateMutability": "view",
      "type": "function"
    },
    {
      "inputs": [],
      "name": "getSupportedTokens",
      "outputs": [
        {
          "internalType": "address[]",
          "name": "",
          "type": "address[]"
        }
      ],
      "stateMutability": "view",
      "type": "function"
    },
    {
      "inputs": [
        {
          "internalType": "address",
          "name": "token",
          "type": "address"
        },
        {
          "internalType": "uint256",
          "name": "ethAmount",
          "type": "uint256"
        }
      ],
      "name": "getTokenAmountForEther",
      "outputs": [
        {
          "internalType": "uint256",
          "name": "tokenAmount",
          "type": "uint256"
        },
        {
          "internalType": "uint256",
          "name": "cost",
          "type": "uint256"
        },
        {
          "internalType": "uint256",
          "name": "tax",
          "type": "uint256"
        },
        {
          "internalType": "uint256",
          "name": "totalCost",
          "type": "uint256"
        }
      ],
      "stateMutability": "view",
      "type": "function"
    },
    {
      "inputs": [],
      "name": "initialPrice",
      "outputs": [
        {
          "internalType": "uint256",
          "name": "",
          "type": "uint256"
        }
      ],
      "stateMutability": "view",
      "type": "function"
    },
    {
      "inputs": [
        {
          "internalType": "address",
          "name": "",
          "type": "address"
        },
        {
          "internalType": "address",
          "name": "",
          "type": "address"
        }
      ],
      "name": "lastBuyTime",
      "outputs": [
        {
          "internalType": "uint256",
          "name": "",
          "type": "uint256"
        }
      ],
      "stateMutability": "view",
      "type": "function"
    },
    {
      "inputs": [
        {
          "internalType": "address",
          "name": "",
          "type": "address"
        },
        {
          "internalType": "address",
          "name": "",
          "type": "address"
        }
      ],
      "name": "lastSellTime",
      "outputs": [
        {
          "internalType": "uint256",
          "name": "",
          "type": "uint256"
        }
      ],
      "stateMutability": "view",
      "type": "function"
    },
    {
      "inputs": [
        {
          "internalType": "address",
          "name": "",
          "type": "address"
        }
      ],
      "name": "marketConfigs",
      "outputs": [
        {
          "internalType": "address",
          "name": "token",
          "type": "address"
        },
        {
          "internalType": "address payable",
          "name": "agentWallet",
          "type": "address"
        },
        {
          "internalType": "address payable",
          "name": "devWallet",
          "type": "address"
        },
        {
          "internalType": "uint8",
          "name": "taxPercent",
          "type": "uint8"
        },
        {
          "internalType": "uint8",
          "name": "agentSplit",
          "type": "uint8"
        },
        {
          "internalType": "bool",
          "name": "exists",
          "type": "bool"
        }
      ],
      "stateMutability": "view",
      "type": "function"
    },
    {
      "inputs": [
        {
          "internalType": "address",
          "name": "",
          "type": "address"
        }
      ],
      "name": "marketStats",
      "outputs": [
        {
          "internalType": "uint256",
          "name": "ethCollected",
          "type": "uint256"
        },
        {
          "internalType": "uint256",
          "name": "tokensSold",
          "type": "uint256"
        },
        {
          "internalType": "uint256",
          "name": "lastBuyTime",
          "type": "uint256"
        },
        {
          "internalType": "uint256",
          "name": "lastSellTime",
          "type": "uint256"
        }
      ],
      "stateMutability": "view",
      "type": "function"
    },
    {
      "inputs": [],
      "name": "maxEthCap",
      "outputs": [
        {
          "internalType": "uint256",
          "name": "",
          "type": "uint256"
        }
      ],
      "stateMutability": "view",
      "type": "function"
    },
    {
      "inputs": [],
      "name": "owner",
      "outputs": [
        {
          "internalType": "address",
          "name": "",
          "type": "address"
        }
      ],
      "stateMutability": "view",
      "type": "function"
    },
    {
      "inputs": [],
      "name": "pause",
      "outputs": [],
      "stateMutability": "nonpayable",
      "type": "function"
    },
    {
      "inputs": [],
      "name": "paused",
      "outputs": [
        {
          "internalType": "bool",
          "name": "",
          "type": "bool"
        }
      ],
      "stateMutability": "view",
      "type": "function"
    },
    {
      "inputs": [],
      "name": "priceSlope",
      "outputs": [
        {
          "internalType": "uint256",
          "name": "",
          "type": "uint256"
        }
      ],
      "stateMutability": "view",
      "type": "function"
    },
    {
      "inputs": [
        {
          "internalType": "address",
          "name": "token",
          "type": "address"
        },
        {
          "internalType": "address payable",
          "name": "agentWallet",
          "type": "address"
        },
        {
          "internalType": "address payable",
          "name": "devWallet",
          "type": "address"
        },
        {
          "internalType": "uint8",
          "name": "taxPercent",
          "type": "uint8"
        },
        {
          "internalType": "uint8",
          "name": "agentSplit",
          "type": "uint8"
        }
      ],
      "name": "registerToken",
      "outputs": [],
      "stateMutability": "nonpayable",
      "type": "function"
    },
    {
      "inputs": [
        {
          "internalType": "address",
          "name": "token",
          "type": "address"
        }
      ],
      "name": "removeToken",
      "outputs": [],
      "stateMutability": "nonpayable",
      "type": "function"
    },
    {
      "inputs": [],
      "name": "renounceOwnership",
      "outputs": [],
      "stateMutability": "nonpayable",
      "type": "function"
    },
    {
      "inputs": [
        {
          "internalType": "address",
          "name": "token",
          "type": "address"
        },
        {
          "internalType": "uint256",
          "name": "tokenAmount",
          "type": "uint256"
        }
      ],
      "name": "sellToken",
      "outputs": [],
      "stateMutability": "nonpayable",
      "type": "function"
    },
    {
      "inputs": [
        {
          "internalType": "uint256",
          "name": "_initialPrice",
          "type": "uint256"
        },
        {
          "internalType": "uint256",
          "name": "_priceSlope",
          "type": "uint256"
        },
        {
          "internalType": "uint256",
          "name": "_maxEthCap",
          "type": "uint256"
        }
      ],
      "name": "setBondingCurveParameters",
      "outputs": [],
      "stateMutability": "nonpayable",
      "type": "function"
    },
    {
      "inputs": [
        {
          "internalType": "uint256",
          "name": "_cooldownTime",
          "type": "uint256"
        }
      ],
      "name": "setCooldownTime",
      "outputs": [],
      "stateMutability": "nonpayable",
      "type": "function"
    },
    {
      "inputs": [
        {
          "internalType": "uint256",
          "name": "_initialPrice",
          "type": "uint256"
        }
      ],
      "name": "setInitialPrice",
      "outputs": [],
      "stateMutability": "nonpayable",
      "type": "function"
    },
    {
      "inputs": [
        {
          "internalType": "uint256",
          "name": "_maxEthCap",
          "type": "uint256"
        }
      ],
      "name": "setMaxEthCap",
      "outputs": [],
      "stateMutability": "nonpayable",
      "type": "function"
    },
    {
      "inputs": [
        {
          "internalType": "uint256",
          "name": "_priceSlope",
          "type": "uint256"
        }
      ],
      "name": "setPriceSlope",
      "outputs": [],
      "stateMutability": "nonpayable",
      "type": "function"
    },
    {
      "inputs": [
        {
          "internalType": "address",
          "name": "",
          "type": "address"
        }
      ],
      "name": "tradeStats",
      "outputs": [
        {
          "internalType": "uint256",
          "name": "totalVolumeETH",
          "type": "uint256"
        },
        {
          "internalType": "uint256",
          "name": "totalVolumeToken",
          "type": "uint256"
        },
        {
          "internalType": "uint256",
          "name": "totalBuys",
          "type": "uint256"
        },
        {
          "internalType": "uint256",
          "name": "totalSells",
          "type": "uint256"
        }
      ],
      "stateMutability": "view",
      "type": "function"
    },
    {
      "inputs": [
        {
          "internalType": "address",
          "name": "newOwner",
          "type": "address"
        }
      ],
      "name": "transferOwnership",
      "outputs": [],
      "stateMutability": "nonpayable",
      "type": "function"
    },
    {
      "inputs": [],
      "name": "unpause",
      "outputs": [],
      "stateMutability": "nonpayable",
      "type": "function"
    },
    {
      "inputs": [
        {
          "internalType": "address payable",
          "name": "to",
          "type": "address"
        },
        {
          "internalType": "uint256",
          "name": "amount",
          "type": "uint256"
        }
      ],
      "name": "withdrawETH",
      "outputs": [],
      "stateMutability": "nonpayable",
      "type": "function"
    },
    {
      "stateMutability": "payable",
      "type": "receive"
    }
  ],
  "bytecode": "0x608080604052346100945760008054732396d72c6da898c43023f6c66344a143c0d6278f6001600160a01b0319821681178355916001600160a01b03909116907f8be0079c531659141344cd1fd0a4f28419497f9722a3daafe3b4186f6b6457e09080a3600180556305f5e100600255620f4240600355683635c9adc5dea000006004556002600c556128aa908161009a8239f35b600080fdfe6080604052600436101561001b575b361561001957600080fd5b005b60003560e01c806307bbcf3014611f1b5780630a4b4b2b14611efd57806312d0481514611ea0578063144bbce614611e435780631d0806ae14611e25578063277327a514611db357806329f8e55814611d2b578063339d70de14611cd9578063362b9f0a14611b995780633a8641ea14611b135780633f4ba83a14611a8b5780634782f7791461198757806354e42f7e146119695780635c975abb146119435780635fa7b5841461188a5780636056527f1461180f5780636c82d6431461167d5780636ff732011461160f578063715018a6146115a95780638456cb591461153857806384cc315b1461150d5780638da5cb5b146114e65780639f4ba0ee14611461578063a37e3d5614611288578063b319c6b71461126a578063c0bce3ee14610f35578063c1d0a7d814610f06578063ca9d4c7914610eb4578063d3c7c2c714610df5578063e671499b146106f8578063f2fde38b1461064c5763f464e7db0361000e57346105ba5760403660031901126105ba57610199611fe8565b602480356101a56125c3565b6101ad612579565b6001600160a01b039283811692836000526020906009825260406000205415610609576101db84151561225c565b33600052600b82526040600020856000528252610200604060002054600c54906123ab565b4211156105c6576040517fdd62ed3e00000000000000000000000000000000000000000000000000000000815233600482015230828201528281604481895afa8015610541578591600091610590575b501061054d57846000526005825260406000209560ff6002604051986102758a6122d9565b838154168a5283600182015416868b0152015482811660408a0152818160a01c1660608a0152818160a81c1660808a015260b01c16151560a0880152856000526006835260406000209660405163313ce56760e01b815284816004818b5afa80156105415760ff6102f3916102f993600091610514575b5016612330565b8761233e565b60018901988954996103148b61030f858261235e565b612495565b9a8381106104d157836103339161032c8e865461235e565b855561235e565b905560034291015533600052600b85526040600020886000528552426040600020556007855260406000206103698a82546123ab565b9055876000526007855261038660016040600020019182546123ab565b9055866000526007845260036040600020016103a281546125b4565b90555116604051907f23b872dd000000000000000000000000000000000000000000000000000000008483015233838301523060448301528560648301526064825260a0820182811067ffffffffffffffff8211176104bc5760405261040891906125fc565b600080808089335af161041961236b565b50156104795750509061044c7f3060fdb50698e411317542c0cd2dae5ecdbe3718d3d211886d569d0d062777e2926123cb565b60408051928352602083019590955293810193909352426060840152339280608081015b0390a360018055005b9060136064926040519262461bcd60e51b845260048401528201527f455448207472616e73666572206661696c6564000000000000000000000000006044820152fd5b83634e487b7160e01b60005260416004526000fd5b6064886017896040519262461bcd60e51b845260048401528201527f556e646572666c6f77206f6e20746f6b656e73536f6c640000000000000000006044820152fd5b6105349150883d8a1161053a575b61052c81836122f5565b810190612317565b386102ec565b503d610522565b6040513d6000823e3d90fd5b9060166064926040519262461bcd60e51b845260048401528201527f496e73756666696369656e7420616c6c6f77616e6365000000000000000000006044820152fd5b809250848092503d83116105bf575b6105a981836122f5565b810103126105ba5784905138610250565b600080fd5b503d61059f565b90600d6064926040519262461bcd60e51b845260048401528201527f53656c6c20636f6f6c646f776e000000000000000000000000000000000000006044820152fd5b9060116064926040519262461bcd60e51b845260048401528201527f556e737570706f7274656420746f6b656e0000000000000000000000000000006044820152fd5b346105ba5760203660031901126105ba57610665611fe8565b61066d6123fc565b6001600160a01b038091169081156106c7576000548273ffffffffffffffffffffffffffffffffffffffff19821617600055167f8be0079c531659141344cd1fd0a4f28419497f9722a3daafe3b4186f6b6457e0600080a3005b60246040517f1e4fbdf700000000000000000000000000000000000000000000000000000000815260006004820152fd5b60603660031901126105ba5761070c611fe8565b610714612579565b60243561072281151561225c565b6001600160a01b038216600052600560205261074d6001600160a01b03604060002054161515612211565b6001600160a01b038216600052600560205260406000209060ff600260405193610776856122d9565b6001600160a01b0381541685526001600160a01b03600182015416602086015201546001600160a01b0381166040850152818160a01c166060850152818160a81c16608085015260b01c16151560a08301526001600160a01b0383166000526006602052604060002033600052600a60205260406000206001600160a01b03851660005260205261080f604060002054600c54906123ab565b4210610db1576040519063313ce56760e01b82526020826004816001600160a01b0389165afa91821561054157600092610d90575b5061085c61085460ff8416612330565b60243561233e565b9360018201549161087661087087856123ab565b84612495565b95606461088a60ff606086015116896123b8565b049161089683896123ab565b958154906108a48a836123ab565b90600454809211610c14575b506044358811610bd057873410610b8c576108cb8a836123ab565b11610b4857600093838594936109128c879695610908889761090260646108fa8f608060ff910151168b6123b8565b04809961235e565b9d6123ab565b60018501556123ab565b8155600242910155338352600a602052604083206001600160a01b038d16845260205242604084205560076020526040832061094f8c82546123ab565b90556001600160a01b038c1683526007602052610974600160408520019182546123ab565b90556001600160a01b038b16825260076020526002604083200161099881546125b4565b90556109af89336001600160a01b03895116612440565b6001600160a01b036020870151165af16109c761236b565b5015610b045760008080936001600160a01b03604083950151165af16109eb61236b565b5015610ac0576109fb903461235e565b80610a5f575b507f05f8a6c6c7a11ffcbd08ed43b685d506fad4c4f6232e739549c3008571e7665290610a2d846123cb565b6040805192835260208301949094529281019290925242606083015233926001600160a01b0316918060808101610470565b600080808093335af1610a7061236b565b5015610a7c5783610a01565b606460405162461bcd60e51b815260206004820152600d60248201527f526566756e64206661696c6564000000000000000000000000000000000000006044820152fd5b606460405162461bcd60e51b815260206004820152601860248201527f4661696c656420746f2073656e642064657620736861726500000000000000006044820152fd5b606460405162461bcd60e51b815260206004820152601a60248201527f4661696c656420746f2073656e64206167656e742073686172650000000000006044820152fd5b606460405162461bcd60e51b815260206004820152601360248201527f4d617820455448206361702072656163686564000000000000000000000000006044820152fd5b606460405162461bcd60e51b815260206004820152601060248201527f496e73756666696369656e7420455448000000000000000000000000000000006044820152fd5b606460405162461bcd60e51b815260206004820152601160248201527f536c69707061676520746f6f20686967680000000000000000000000000000006044820152fd5b975097509250965050610c27818661235e565b60025490610c4260035492610c3c84886123b8565b906123ab565b906001600160ff1b0382168203610d7a576001600160ff1b0381168103610d7a57610c71600183901b806123b8565b7f3fffffffffffffffffffffffffffffffffffffffffffffffffffffffffffffff84168403610d7a57610cb8610cbd91610c3c610cc29560011b9460011b8760021b6123b8565b6127be565b61235e565b6001600160ff1b0382168203610d7a57610cdf9160011b9061233e565b948515610d3657610cf9610cf387866123ab565b85612495565b966064610d0d60ff6060870151168a6123b8565b0492610d2e610d2860ff610d21878d6123ab565b9916612330565b896123b8565b97928b6108b0565b606460405162461bcd60e51b815260206004820152601060248201527f4e6f20746f6b656e7320746f20627579000000000000000000000000000000006044820152fd5b634e487b7160e01b600052601160045260246000fd5b610daa91925060203d60201161053a5761052c81836122f5565b9085610844565b606460405162461bcd60e51b815260206004820152601060248201527f436f6f6c646f776e206e6f74206d6574000000000000000000000000000000006044820152fd5b346105ba5760003660031901126105ba57604051806008548083526020809301809160086000527ff3f7a9fe364faab93b216da50a3214154f22a0a2b415b23a84c8169e8b636ee39060005b86828210610ea0578686610e57828803836122f5565b604051928392818401908285525180915260408401929160005b828110610e8057505050500390f35b83516001600160a01b031685528695509381019392810192600101610e71565b835485529093019260019283019201610e41565b346105ba5760403660031901126105ba57610ecd611fe8565b610ed5611ffe565b906001600160a01b03809116600052600b602052604060002091166000526020526020604060002054604051908152f35b346105ba5760003660031901126105ba576020604051732396d72c6da898c43023f6c66344a143c0d6278f8152f35b346105ba5760a03660031901126105ba57610f4e611fe8565b610f56611ffe565b906044356001600160a01b03918282168092036105ba57606480359160ff83168093036105ba576084359060ff82168092036105ba57851694856000526020926005845260ff60026040600020015460b01c1661122857600a85116111e6578083116111a4576040517f70a0823100000000000000000000000000000000000000000000000000000000815230600482015284816024818b5afa90811561054157600091611177575b501561113557506002604051611014816122d9565b87815282858201991698898152604082019788526060820196875260808201948552600560a0830196600188528a6000525283604060002092511673ffffffffffffffffffffffffffffffffffffffff199081845416178355846001840192511690825416179055019451167fffffffffffffffffff000000000000000000000000000000000000000000000076ff0000000000000000000000000000000000000000000075ff00000000000000000000000000000000000000000074ff00000000000000000000000000000000000000008854975160a01b16945160a81b169451151560b01b16941617171717905561110d81612809565b507fc6d423769e44315c2e313bc0beef7d85de7b8bb794fe635e1c2653f6593475a8600080a3005b836040519062461bcd60e51b82526004820152601c60248201527f53616c65734d616e61676572206d75737420686f6c6420746f6b656e000000006044820152fd5b90508481813d831161119d575b61118e81836122f5565b810103126105ba575189610fff565b503d611184565b836040519062461bcd60e51b82526004820152600d60248201527f496e76616c69642073706c6974000000000000000000000000000000000000006044820152fd5b836040519062461bcd60e51b82526004820152600c60248201527f54617820746f6f206869676800000000000000000000000000000000000000006044820152fd5b836040519062461bcd60e51b82526004820152601860248201527f546f6b656e20616c7265616479207265676973746572656400000000000000006044820152fd5b346105ba5760003660031901126105ba576020600c54604051908152f35b346105ba5760403660031901126105ba576112a1611fe8565b602435906001600160a01b0380911680600052611386602091600583526112d084604060002054161515612211565b6112db85151561225c565b806000526005835260406000206002604051916112f7836122d9565b86815416835286600182015416868401520154948516604082015260a060ff60608301968181841c168852818160a81c16608085015260b01c1615159101528060005260068352604060002060405161134f816122a7565b8154815261137b60018301546003878401948286526002810154604086015201546060840152886124de565b9490949782516123ab565b90600454809211611437575b505050826004916040519283809263313ce56760e01b82525afa928315610541576113de6064936113d860ff611416976113e796829660009261141a575b505016612330565b906123b8565b945116856123b8565b046113f281856123ab565b90604051948594859094939260609260808301968352602083015260408201520152565b0390f35b6114309250803d1061053a5761052c81836122f5565b8b806113d0565b8597506004939450611457929161144f91519061235e565b9051906124de565b9590929187611392565b346105ba5760203660031901126105ba577f909b37d51ce486819f8eca79b8e045f2ab9789e72cb989f00942fb52da796c8760043561149e6123fc565b6114a9811515612014565b6114bd670de0b6b3a7640000821115612084565b60028190556003546004546040805193845260208401929092529082015280606081015b0390a1005b346105ba5760003660031901126105ba5760206001600160a01b0360005416604051908152f35b346105ba5760203660031901126105ba57602061153061152b611fe8565b6123cb565b604051908152f35b346105ba5760003660031901126105ba576115516123fc565b6115596125c3565b7401000000000000000000000000000000000000000060ff60a01b1960005416176000557f62e78cea01bee320cd4e420270b5ea74000d11b0c9f74754ebdbfc544b05a2586020604051338152a1005b346105ba5760003660031901126105ba576115c26123fc565b60006001600160a01b03815473ffffffffffffffffffffffffffffffffffffffff1981168355167f8be0079c531659141344cd1fd0a4f28419497f9722a3daafe3b4186f6b6457e08280a3005b346105ba5760203660031901126105ba5760043561162b6123fc565b610e10811161163957600c55005b606460405162461bcd60e51b815260206004820152601160248201527f436f6f6c646f776e20746f6f20686967680000000000000000000000000000006044820152fd5b346105ba5760403660031901126105ba57611696611fe8565b6024356001600160a01b0380921680600052602091600583526116c184604060002054161515612211565b6116cc81151561225c565b816000526005835260406000206002604051916116e8836122d9565b86815416835286600182015416868401520154948516604082015260a060ff60608301968181841c168852818160a81c16608085015260b01c1615159101528160005260068352600483604060002093604051611744816122a7565b85548152606060036001880154978584019889526002810154604085015201549101526040519283809263313ce56760e01b82525afa928315610541576117b76117ae60ff946117a8866117c6986117bd9760649b6000926117f257505016612330565b9061233e565b915191826123ab565b90612495565b935116836123b8565b04906114166117d583836123ab565b604051938493846040919493926060820195825260208201520152565b6118089250803d1061053a5761052c81836122f5565b8c806113d0565b346105ba5760203660031901126105ba5760c06001600160a01b0380611833611fe8565b16600052600560205260ff6040600020828154169260028160018401541692015491604051948552602085015281166040840152818160a01c166060840152818160a81c16608084015260b01c16151560a0820152f35b346105ba5760203660031901126105ba576001600160a01b036118ab611fe8565b6118b36123fc565b168060005260056020526118d460ff60026040600020015460b01c16612211565b6118dd816126bd565b50600052600560205260006002604082208281558260018201550155600660205261191e604060002060036000918281558260018201558260028201550155565b6007602052610019604060002060036000918281558260018201558260028201550155565b346105ba5760003660031901126105ba57602060ff60005460a01c166040519015158152f35b346105ba5760003660031901126105ba576020600354604051908152f35b346105ba5760403660031901126105ba576119a0611fe8565b602435906119ac6123fc565b814710611a47576001600160a01b031690600080808084865af16119ce61236b565b5015611a03577f04ea5e4f058c19170d8b2bb031497d920d63e7b2245a46a37e782424ad6743ac6020600092604051908152a3005b606460405162461bcd60e51b815260206004820152600f60248201527f5769746864726177206661696c656400000000000000000000000000000000006044820152fd5b606460405162461bcd60e51b815260206004820152601d60248201527f496e73756666696369656e7420636f6e74726163742062616c616e63650000006044820152fd5b346105ba5760003660031901126105ba57611aa46123fc565b60005460ff8160a01c1615611ae95760ff60a01b19166000557f5db9ee0a495bf2e6ff9c91a7834c1ba4fdd244a5e8aa4e537bd38aeae4b073aa6020604051338152a1005b60046040517f8dfc202b000000000000000000000000000000000000000000000000000000008152fd5b346105ba5760203660031901126105ba577f909b37d51ce486819f8eca79b8e045f2ab9789e72cb989f00942fb52da796c87600435611b506123fc565b611b5b8115156120cf565b611b6f67016345785d8a0000821115612125565b806003556002546114e1600454604051938493846040919493926060820195825260208201520152565b346105ba5760403660031901126105ba57611bb2611fe8565b60243560046001600160a01b038093169182600052611bdf60209460058652604060002054161515612211565b611bea81151561225c565b826000526006845283604060002093604051611c05816122a7565b85548152606060036001880154978584019889526002810154604085015201549101526040519384809263313ce56760e01b82525afa80156105415760ff6117a891611c5994600091611cbc575016612330565b80825110611c785790611c7061153092825161235e565b905190612495565b6064836040519062461bcd60e51b82526004820152601d60248201527f496e73756666696369656e7420746f6b656e7320696e206d61726b65740000006044820152fd5b611cd39150873d891161053a5761052c81836122f5565b876102ec565b346105ba5760403660031901126105ba57611cf2611fe8565b611cfa611ffe565b906001600160a01b03809116600052600a602052604060002091166000526020526020604060002054604051908152f35b346105ba5760203660031901126105ba577f909b37d51ce486819f8eca79b8e045f2ab9789e72cb989f00942fb52da796c87600435611d686123fc565b611d73811515612170565b611d88683635c9adc5dea000008211156121c6565b806004556002546114e160035492604051938493846040919493926060820195825260208201520152565b346105ba5760603660031901126105ba57611dcc611fe8565b611dd4611ffe565b7f04ea5e4f058c19170d8b2bb031497d920d63e7b2245a46a37e782424ad6743ac602060443593611e036123fc565b6001600160a01b0380911693611e1a868287612440565b6040519586521693a3005b346105ba5760003660031901126105ba576020600254604051908152f35b346105ba5760203660031901126105ba576001600160a01b03611e64611fe8565b16600090815260076020908152604091829020805460018201546002830154600390930154855192835293820152928301526060820152608090f35b346105ba5760203660031901126105ba576001600160a01b03611ec1611fe8565b16600090815260066020908152604091829020805460018201546002830154600390930154855192835293820152928301526060820152608090f35b346105ba5760003660031901126105ba576020600454604051908152f35b346105ba5760603660031901126105ba577f909b37d51ce486819f8eca79b8e045f2ab9789e72cb989f00942fb52da796c876024356004356114e1604435611f616123fc565b611f6c831515612014565b611f80670de0b6b3a7640000841115612084565b611f8b8415156120cf565b611f9f67016345785d8a0000851115612125565b611faa811515612170565b611fbf683635c9adc5dea000008211156121c6565b826002558360035580600455604051938493846040919493926060820195825260208201520152565b600435906001600160a01b03821682036105ba57565b602435906001600160a01b03821682036105ba57565b1561201b57565b608460405162461bcd60e51b8152602060048201526024808201527f496e697469616c207072696365206d757374206265206772656174657220746860448201527f616e2030000000000000000000000000000000000000000000000000000000006064820152fd5b1561208b57565b606460405162461bcd60e51b815260206004820152601660248201527f496e697469616c20707269636520746f6f2068696768000000000000000000006044820152fd5b156120d657565b608460405162461bcd60e51b815260206004820152602260248201527f507269636520736c6f7065206d7573742062652067726561746572207468616e604482015261020360f41b6064820152fd5b1561212c57565b606460405162461bcd60e51b815260206004820152601460248201527f507269636520736c6f706520746f6f20686967680000000000000000000000006044820152fd5b1561217757565b608460405162461bcd60e51b815260206004820152602260248201527f4d61782045544820636170206d7573742062652067726561746572207468616e604482015261020360f41b6064820152fd5b156121cd57565b606460405162461bcd60e51b815260206004820152601460248201527f4d6178204554482063617020746f6f20686967680000000000000000000000006044820152fd5b1561221857565b606460405162461bcd60e51b815260206004820152601460248201527f546f6b656e206e6f7420726567697374657265640000000000000000000000006044820152fd5b1561226357565b606460405162461bcd60e51b815260206004820152601d60248201527f416d6f756e74206d7573742062652067726561746572207468616e20300000006044820152fd5b6080810190811067ffffffffffffffff8211176122c357604052565b634e487b7160e01b600052604160045260246000fd5b60c0810190811067ffffffffffffffff8211176122c357604052565b90601f8019910116810190811067ffffffffffffffff8211176122c357604052565b908160209103126105ba575160ff811681036105ba5790565b604d8111610d7a57600a0a90565b8115612348570490565b634e487b7160e01b600052601260045260246000fd5b91908203918211610d7a57565b3d156123a6573d9067ffffffffffffffff82116122c3576040519161239a601f8201601f1916602001846122f5565b82523d6000602084013e565b606090565b91908201809211610d7a57565b81810292918115918404141715610d7a57565b6123f9906001600160a01b0360025491166000526006602052610c3c600160406000200154600354906123b8565b90565b6001600160a01b0360005416330361241057565b60246040517f118cdaa7000000000000000000000000000000000000000000000000000000008152336004820152fd5b612493926001600160a01b03604051937fa9059cbb00000000000000000000000000000000000000000000000000000000602086015216602484015260448301526044825261248e826122a7565b6125fc565b565b6124d36124d8926124cd600254936124c760035495610c3c6124c06124ba89866123b8565b836123ab565b97866123b8565b9261235e565b926123ab565b6123b8565b60011c90565b91906124f3600254610c3c60035480946123b8565b8060011b6001600160ff1b039182811603610d7a578185168503610d7a5761251b81806123b8565b907f3fffffffffffffffffffffffffffffffffffffffffffffffffffffffffffffff84168403610d7a57610cbd610cb861255f93610c3c8960011b8860021b6123b8565b9082168203610d7a576125759160011b9061233e565b9190565b60026001541461258a576002600155565b60046040517f3ee5aeb5000000000000000000000000000000000000000000000000000000008152fd5b6000198114610d7a5760010190565b60ff60005460a01c166125d257565b60046040517fd93c0665000000000000000000000000000000000000000000000000000000008152fd5b906000602091828151910182855af115610541576000513d61266757506001600160a01b0381163b155b61262d5750565b6024906001600160a01b03604051917f5274afe7000000000000000000000000000000000000000000000000000000008352166004820152fd5b60011415612626565b6008548110156126a75760086000527ff3f7a9fe364faab93b216da50a3214154f22a0a2b415b23a84c8169e8b636ee30190600090565b634e487b7160e01b600052603260045260246000fd5b60008181526009602052604081205490919080156127b957600019908082018181116127a5576008549083820191821161279157818103612746575b50505060085480156127325781019061271182612670565b909182549160031b1b19169055600855815260096020526040812055600190565b602484634e487b7160e01b81526031600452fd5b61277b61275561276493612670565b90549060031b1c928392612670565b819391549060031b91821b91600019901b19161790565b90558452600960205260408420553880806126f9565b602486634e487b7160e01b81526011600452fd5b602485634e487b7160e01b81526011600452fd5b505090565b8015612803576001808201808311610d7a5760011c90825b8383106127e35750505090565b909192506127fa836127f5818461233e565b6123ab565b821c91906127d6565b50600090565b60008181526009602052604081205461286f576008546801000000000000000081101561285b57908261284761276484600160409601600855612670565b905560085492815260096020522055600190565b602482634e487b7160e01b81526041600452fd5b90509056fea264697066735822122087296080fb19747be0c33842ee209380cfbee24c20dd3411193d5f163f0ea33464736f6c63430008160033",
  "linkReferences": {},
  "deployedLinkReferences": {}
}