{
  "_format": "hh-sol-artifact-1",
  "contractName": "ModulsSalesManager",
  "sourceName": "contracts/ModulsSalesManager.sol",
  "abi": [
    {
      "inputs": [
        {
          "internalType": "address",
          "name": "_platformAdmin",
          "type": "address"
        }
      ],
      "stateMutability": "nonpayable",
      "type": "constructor"
    },
    {
      "inputs": [],
      "name": "EnforcedPause",
      "type": "error"
    },
    {
      "inputs": [],
      "name": "ExpectedPause",
      "type": "error"
    },
    {
      "inputs": [
        {
          "internalType": "address",
          "name": "owner",
          "type": "address"
        }
      ],
      "name": "OwnableInvalidOwner",
      "type": "error"
    },
    {
      "inputs": [
        {
          "internalType": "address",
          "name": "account",
          "type": "address"
        }
      ],
      "name": "OwnableUnauthorizedAccount",
      "type": "error"
    },
    {
      "inputs": [],
      "name": "ReentrancyGuardReentrantCall",
      "type": "error"
    },
    {
      "inputs": [
        {
          "internalType": "address",
          "name": "token",
          "type": "address"
        }
      ],
      "name": "SafeERC20FailedOperation",
      "type": "error"
    },
    {
      "anonymous": false,
      "inputs": [
        {
          "indexed": false,
          "internalType": "uint256",
          "name": "initialPrice",
          "type": "uint256"
        },
        {
          "indexed": false,
          "internalType": "uint256",
          "name": "priceSlope",
          "type": "uint256"
        },
        {
          "indexed": false,
          "internalType": "uint256",
          "name": "maxEthCap",
          "type": "uint256"
        }
      ],
      "name": "BondingCurveParametersUpdated",
      "type": "event"
    },
    {
      "anonymous": false,
      "inputs": [
        {
          "indexed": true,
          "internalType": "address",
          "name": "token",
          "type": "address"
        },
        {
          "indexed": true,
          "internalType": "address",
          "name": "buyer",
          "type": "address"
        },
        {
          "indexed": false,
          "internalType": "uint256",
          "name": "amount",
          "type": "uint256"
        },
        {
          "indexed": false,
          "internalType": "uint256",
          "name": "ethSpent",
          "type": "uint256"
        },
        {
          "indexed": false,
          "internalType": "uint256",
          "name": "price",
          "type": "uint256"
        },
        {
          "indexed": false,
          "internalType": "uint256",
          "name": "timestamp",
          "type": "uint256"
        }
      ],
      "name": "ModulsTokenPurchase",
      "type": "event"
    },
    {
      "anonymous": false,
      "inputs": [
        {
          "indexed": true,
          "internalType": "address",
          "name": "token",
          "type": "address"
        },
        {
          "indexed": true,
          "internalType": "address",
          "name": "agentWallet",
          "type": "address"
        }
      ],
      "name": "ModulsTokenRegistered",
      "type": "event"
    },
    {
      "anonymous": false,
      "inputs": [
        {
          "indexed": true,
          "internalType": "address",
          "name": "token",
          "type": "address"
        },
        {
          "indexed": true,
          "internalType": "address",
          "name": "seller",
          "type": "address"
        },
        {
          "indexed": false,
          "internalType": "uint256",
          "name": "amount",
          "type": "uint256"
        },
        {
          "indexed": false,
          "internalType": "uint256",
          "name": "ethReceived",
          "type": "uint256"
        },
        {
          "indexed": false,
          "internalType": "uint256",
          "name": "price",
          "type": "uint256"
        },
        {
          "indexed": false,
          "internalType": "uint256",
          "name": "timestamp",
          "type": "uint256"
        }
      ],
      "name": "ModulsTokenSell",
      "type": "event"
    },
    {
      "anonymous": false,
      "inputs": [
        {
          "indexed": true,
          "internalType": "address",
          "name": "token",
          "type": "address"
        },
        {
          "indexed": true,
          "internalType": "address",
          "name": "to",
          "type": "address"
        },
        {
          "indexed": false,
          "internalType": "uint256",
          "name": "amount",
          "type": "uint256"
        }
      ],
      "name": "ModulsTokenWithdraw",
      "type": "event"
    },
    {
      "anonymous": false,
      "inputs": [
        {
          "indexed": true,
          "internalType": "address",
          "name": "previousOwner",
          "type": "address"
        },
        {
          "indexed": true,
          "internalType": "address",
          "name": "newOwner",
          "type": "address"
        }
      ],
      "name": "OwnershipTransferred",
      "type": "event"
    },
    {
      "anonymous": false,
      "inputs": [
        {
          "indexed": false,
          "internalType": "address",
          "name": "account",
          "type": "address"
        }
      ],
      "name": "Paused",
      "type": "event"
    },
    {
      "anonymous": false,
      "inputs": [
        {
          "indexed": false,
          "internalType": "address",
          "name": "account",
          "type": "address"
        }
      ],
      "name": "Unpaused",
      "type": "event"
    },
    {
      "inputs": [
        {
          "internalType": "address",
          "name": "token",
          "type": "address"
        },
        {
          "internalType": "uint256",
          "name": "tokenAmount",
          "type": "uint256"
        },
        {
          "internalType": "uint256",
          "name": "maxCost",
          "type": "uint256"
        }
      ],
      "name": "buyToken",
      "outputs": [],
      "stateMutability": "payable",
      "type": "function"
    },
    {
      "inputs": [],
      "name": "cooldownTime",
      "outputs": [
        {
          "internalType": "uint256",
          "name": "",
          "type": "uint256"
        }
      ],
      "stateMutability": "view",
      "type": "function"
    },
    {
      "inputs": [
        {
          "internalType": "address",
          "name": "token",
          "type": "address"
        },
        {
          "internalType": "address",
          "name": "to",
          "type": "address"
        },
        {
          "internalType": "uint256",
          "name": "amount",
          "type": "uint256"
        }
      ],
      "name": "emergencyWithdrawToken",
      "outputs": [],
      "stateMutability": "nonpayable",
      "type": "function"
    },
    {
      "inputs": [],
      "name": "factory",
      "outputs": [
        {
          "internalType": "address",
          "name": "",
          "type": "address"
        }
      ],
      "stateMutability": "view",
      "type": "function"
    },
    {
      "inputs": [
        {
          "internalType": "address",
          "name": "token",
          "type": "address"
        }
      ],
      "name": "getCurrentPrice",
      "outputs": [
        {
          "internalType": "uint256",
          "name": "",
          "type": "uint256"
        }
      ],
      "stateMutability": "view",
      "type": "function"
    },
    {
      "inputs": [
        {
          "internalType": "address",
          "name": "token",
          "type": "address"
        },
        {
          "internalType": "uint256",
          "name": "tokenAmount",
          "type": "uint256"
        }
      ],
      "name": "getEtherCostForToken",
      "outputs": [
        {
          "internalType": "uint256",
          "name": "cost",
          "type": "uint256"
        },
        {
          "internalType": "uint256",
          "name": "tax",
          "type": "uint256"
        },
        {
          "internalType": "uint256",
          "name": "totalCost",
          "type": "uint256"
        }
      ],
      "stateMutability": "view",
      "type": "function"
    },
    {
      "inputs": [
        {
          "internalType": "address",
          "name": "token",
          "type": "address"
        },
        {
          "internalType": "uint256",
          "name": "tokenAmount",
          "type": "uint256"
        }
      ],
      "name": "getEtherReturnForToken",
      "outputs": [
        {
          "internalType": "uint256",
          "name": "ethReturn",
          "type": "uint256"
        }
      ],
      "stateMutability": "view",
      "type": "function"
    },
    {
      "inputs": [],
      "name": "getSupportedTokens",
      "outputs": [
        {
          "internalType": "address[]",
          "name": "",
          "type": "address[]"
        }
      ],
      "stateMutability": "view",
      "type": "function"
    },
    {
      "inputs": [
        {
          "internalType": "address",
          "name": "token",
          "type": "address"
        },
        {
          "internalType": "uint256",
          "name": "ethAmount",
          "type": "uint256"
        }
      ],
      "name": "getTokenAmountForEther",
      "outputs": [
        {
          "internalType": "uint256",
          "name": "tokenAmount",
          "type": "uint256"
        },
        {
          "internalType": "uint256",
          "name": "cost",
          "type": "uint256"
        },
        {
          "internalType": "uint256",
          "name": "tax",
          "type": "uint256"
        },
        {
          "internalType": "uint256",
          "name": "totalCost",
          "type": "uint256"
        }
      ],
      "stateMutability": "view",
      "type": "function"
    },
    {
      "inputs": [
        {
          "internalType": "address",
          "name": "token",
          "type": "address"
        },
        {
          "internalType": "uint256",
          "name": "ethAmount",
          "type": "uint256"
        }
      ],
      "name": "getTokenAmountForEtherReturn",
      "outputs": [
        {
          "internalType": "uint256",
          "name": "tokenAmount",
          "type": "uint256"
        }
      ],
      "stateMutability": "view",
      "type": "function"
    },
    {
      "inputs": [],
      "name": "initialPrice",
      "outputs": [
        {
          "internalType": "uint256",
          "name": "",
          "type": "uint256"
        }
      ],
      "stateMutability": "view",
      "type": "function"
    },
    {
      "inputs": [
        {
          "internalType": "address",
          "name": "",
          "type": "address"
        },
        {
          "internalType": "address",
          "name": "",
          "type": "address"
        }
      ],
      "name": "lastBuyTime",
      "outputs": [
        {
          "internalType": "uint256",
          "name": "",
          "type": "uint256"
        }
      ],
      "stateMutability": "view",
      "type": "function"
    },
    {
      "inputs": [
        {
          "internalType": "address",
          "name": "",
          "type": "address"
        },
        {
          "internalType": "address",
          "name": "",
          "type": "address"
        }
      ],
      "name": "lastSellTime",
      "outputs": [
        {
          "internalType": "uint256",
          "name": "",
          "type": "uint256"
        }
      ],
      "stateMutability": "view",
      "type": "function"
    },
    {
      "inputs": [
        {
          "internalType": "address",
          "name": "",
          "type": "address"
        }
      ],
      "name": "marketConfigs",
      "outputs": [
        {
          "internalType": "address",
          "name": "token",
          "type": "address"
        },
        {
          "internalType": "address payable",
          "name": "agentWallet",
          "type": "address"
        },
        {
          "internalType": "address payable",
          "name": "devWallet",
          "type": "address"
        },
        {
          "internalType": "uint8",
          "name": "taxPercent",
          "type": "uint8"
        },
        {
          "internalType": "uint8",
          "name": "agentSplit",
          "type": "uint8"
        },
        {
          "internalType": "bool",
          "name": "exists",
          "type": "bool"
        }
      ],
      "stateMutability": "view",
      "type": "function"
    },
    {
      "inputs": [
        {
          "internalType": "address",
          "name": "",
          "type": "address"
        }
      ],
      "name": "marketStats",
      "outputs": [
        {
          "internalType": "uint256",
          "name": "ethCollected",
          "type": "uint256"
        },
        {
          "internalType": "uint256",
          "name": "tokensSold",
          "type": "uint256"
        },
        {
          "internalType": "uint256",
          "name": "lastBuyTime",
          "type": "uint256"
        },
        {
          "internalType": "uint256",
          "name": "lastSellTime",
          "type": "uint256"
        }
      ],
      "stateMutability": "view",
      "type": "function"
    },
    {
      "inputs": [],
      "name": "maxEthCap",
      "outputs": [
        {
          "internalType": "uint256",
          "name": "",
          "type": "uint256"
        }
      ],
      "stateMutability": "view",
      "type": "function"
    },
    {
      "inputs": [],
      "name": "owner",
      "outputs": [
        {
          "internalType": "address",
          "name": "",
          "type": "address"
        }
      ],
      "stateMutability": "view",
      "type": "function"
    },
    {
      "inputs": [],
      "name": "pause",
      "outputs": [],
      "stateMutability": "nonpayable",
      "type": "function"
    },
    {
      "inputs": [],
      "name": "paused",
      "outputs": [
        {
          "internalType": "bool",
          "name": "",
          "type": "bool"
        }
      ],
      "stateMutability": "view",
      "type": "function"
    },
    {
      "inputs": [],
      "name": "platformAdmin",
      "outputs": [
        {
          "internalType": "address",
          "name": "",
          "type": "address"
        }
      ],
      "stateMutability": "view",
      "type": "function"
    },
    {
      "inputs": [],
      "name": "priceSlope",
      "outputs": [
        {
          "internalType": "uint256",
          "name": "",
          "type": "uint256"
        }
      ],
      "stateMutability": "view",
      "type": "function"
    },
    {
      "inputs": [
        {
          "internalType": "address",
          "name": "token",
          "type": "address"
        }
      ],
      "name": "registerToken",
      "outputs": [],
      "stateMutability": "nonpayable",
      "type": "function"
    },
    {
      "inputs": [
        {
          "internalType": "address",
          "name": "token",
          "type": "address"
        }
      ],
      "name": "registerTokenFromDeployer",
      "outputs": [],
      "stateMutability": "nonpayable",
      "type": "function"
    },
    {
      "inputs": [
        {
          "internalType": "address",
          "name": "token",
          "type": "address"
        }
      ],
      "name": "removeToken",
      "outputs": [],
      "stateMutability": "nonpayable",
      "type": "function"
    },
    {
      "inputs": [],
      "name": "renounceOwnership",
      "outputs": [],
      "stateMutability": "nonpayable",
      "type": "function"
    },
    {
      "inputs": [
        {
          "internalType": "address",
          "name": "token",
          "type": "address"
        },
        {
          "internalType": "uint256",
          "name": "tokenAmount",
          "type": "uint256"
        },
        {
          "internalType": "uint256",
          "name": "minReturn",
          "type": "uint256"
        }
      ],
      "name": "sellToken",
      "outputs": [],
      "stateMutability": "nonpayable",
      "type": "function"
    },
    {
      "inputs": [
        {
          "internalType": "uint256",
          "name": "_initialPrice",
          "type": "uint256"
        },
        {
          "internalType": "uint256",
          "name": "_priceSlope",
          "type": "uint256"
        },
        {
          "internalType": "uint256",
          "name": "_maxEthCap",
          "type": "uint256"
        }
      ],
      "name": "setBondingCurveParameters",
      "outputs": [],
      "stateMutability": "nonpayable",
      "type": "function"
    },
    {
      "inputs": [
        {
          "internalType": "uint256",
          "name": "_cooldownTime",
          "type": "uint256"
        }
      ],
      "name": "setCooldownTime",
      "outputs": [],
      "stateMutability": "nonpayable",
      "type": "function"
    },
    {
      "inputs": [
        {
          "internalType": "address",
          "name": "_factory",
          "type": "address"
        }
      ],
      "name": "setFactory",
      "outputs": [],
      "stateMutability": "nonpayable",
      "type": "function"
    },
    {
      "inputs": [
        {
          "internalType": "uint256",
          "name": "_initialPrice",
          "type": "uint256"
        }
      ],
      "name": "setInitialPrice",
      "outputs": [],
      "stateMutability": "nonpayable",
      "type": "function"
    },
    {
      "inputs": [
        {
          "internalType": "uint256",
          "name": "_maxEthCap",
          "type": "uint256"
        }
      ],
      "name": "setMaxEthCap",
      "outputs": [],
      "stateMutability": "nonpayable",
      "type": "function"
    },
    {
      "inputs": [
        {
          "internalType": "uint256",
          "name": "_priceSlope",
          "type": "uint256"
        }
      ],
      "name": "setPriceSlope",
      "outputs": [],
      "stateMutability": "nonpayable",
      "type": "function"
    },
    {
      "inputs": [
        {
          "internalType": "address",
          "name": "",
          "type": "address"
        }
      ],
      "name": "tradeStats",
      "outputs": [
        {
          "internalType": "uint256",
          "name": "totalVolumeETH",
          "type": "uint256"
        },
        {
          "internalType": "uint256",
          "name": "totalVolumeToken",
          "type": "uint256"
        },
        {
          "internalType": "uint256",
          "name": "totalBuys",
          "type": "uint256"
        },
        {
          "internalType": "uint256",
          "name": "totalSells",
          "type": "uint256"
        }
      ],
      "stateMutability": "view",
      "type": "function"
    },
    {
      "inputs": [
        {
          "internalType": "address",
          "name": "newOwner",
          "type": "address"
        }
      ],
      "name": "transferOwnership",
      "outputs": [],
      "stateMutability": "nonpayable",
      "type": "function"
    },
    {
      "inputs": [],
      "name": "unpause",
      "outputs": [],
      "stateMutability": "nonpayable",
      "type": "function"
    },
    {
      "inputs": [
        {
          "internalType": "address payable",
          "name": "to",
          "type": "address"
        },
        {
          "internalType": "uint256",
          "name": "amount",
          "type": "uint256"
        }
      ],
      "name": "withdrawETH",
      "outputs": [],
      "stateMutability": "nonpayable",
      "type": "function"
    },
    {
      "stateMutability": "payable",
      "type": "receive"
    }
  ],
  "bytecode": "0x608034620000f257601f620035f038819003918201601f19168301916001600160401b03831184841017620000f757808492602094604052833981010312620000f257516001600160a01b039081811690819003620000f2578015620000d957600054918160018060a01b031991818386161760005560405194167f8be0079c531659141344cd1fd0a4f28419497f9722a3daafe3b4186f6b6457e0600080a3600180556305f5e100600455620f4240600555683635c9adc5dea000006006556002600e5560025416176002556134e290816200010e8239f35b604051631e4fbdf760e01b815260006004820152602490fd5b600080fd5b634e487b7160e01b600052604160045260246000fdfe60406080815260049081361015610020575b5050361561001e57600080fd5b005b600091823560e01c806307bbcf3014611cb757806309824a80146119925780630a4b4b2b1461197357806312d048151461190c578063144bbce6146118a55780631d0806ae14611888578063277327a51461181357806329f8e5581461178b578063339d70de14611742578063362b9f0a146115fd5780633a8641ea146115775780633e11741f1461154f5780633f4ba83a146114c95780634782f779146113c857806354e42f7e146113a95780635bb47808146112d35780635c975abb146112ae5780635fa7b584146111fa5780636056527f1461117f5780636c82d64314610fef5780636ff7320114610f7e578063715018a614610f25578063739733d814610a825780638456cb5914610a1257806384cc315b146109e55780638da5cb5b146109bf5780639f4ba0ee1461093a578063a37e3d5614610767578063b319c6b714610748578063c45a015514610720578063ca9d4c79146106d7578063cdcd7fb5146106ab578063d3c7c2c7146105ec578063d61c77751461027d578063e671499b1461025b5763f2fde38b146101b95750610011565b34610257576020366003190112610257576101d2611d85565b906101db613031565b6001600160a01b038092169283156102285750508254826001600160a01b03198216178455167f8be0079c531659141344cd1fd0a4f28419497f9722a3daafe3b4186f6b6457e08380a380f35b908460249251917f1e4fbdf7000000000000000000000000000000000000000000000000000000008352820152fd5b8280fd5b8361027661026836611db6565b91610271613145565b612901565b6001805580f35b503461025757602091826003193601126105e857610299611d85565b916001600160a01b039283600354163303610580578386911693848252600786526102d060ff6002868520015460b01c1615611fdd565b83516370a0823160e01b815230848201528681602481895afa8015610547578390610551575b61030291501515612098565b835190630fdb7f6f60e21b825286828581895afa918215610547578392610528575b50845194638ea5220f60e01b8652878686818a5afa95861561051e5784966104ef575b508051631d507d0760e21b8152888187818b5afa9081156104c85785916104d2575b50888251809763f83a27cd60e01b8252818b5afa9586156104c857859661048f575b509060ff8060029316966103a2600a89111561211b565b16936103b16064861115612166565b838251926103be84612028565b8a84526007828d860194169c8d8552838387019c168c52606086019a8b52608086019889528c60a087019a60018c5252528c209251166001600160a01b031990818454161783558460018401925116908254161790550194511676ffffffffffffffffffffffffffffffffffffffffffffff1960ff60b01b60ff60a81b60ff60a01b8854975160a01b16945160a81b169451151560b01b16941617171717905561046781613281565b507fc6d423769e44315c2e313bc0beef7d85de7b8bb794fe635e1c2653f6593475a88380a380f35b60029291965060ff6104b781928c8d3d106104c1575b6104af8183612076565b810190612102565b979293505061038b565b503d6104a5565b82513d87823e3d90fd5b6104e99150893d8b116104c1576104af8183612076565b38610369565b610510919650883d8a11610517575b6105088183612076565b8101906120e3565b9438610347565b503d6104fe565b81513d86823e3d90fd5b610540919250873d8911610517576105088183612076565b9038610324565b85513d85823e3d90fd5b508681813d8311610579575b6105678183612076565b810103126102575761030290516102f6565b503d61055d565b5083608492519162461bcd60e51b8352820152602360248201527f4f6e6c7920666163746f72792063616e2063616c6c20746869732066756e637460448201527f696f6e00000000000000000000000000000000000000000000000000000000006064820152fd5b8380fd5b8284346106a857806003193601126106a857908051918290600a549182855260208095018093600a84527fc65a7bb8d6351c1cf70c95a316cc6a92839c986682d98bc35f958f4883f9d2a890845b8181106106945750505081610650910382612076565b83519485948186019282875251809352850193925b82811061067457505050500390f35b83516001600160a01b031685528695509381019392810192600101610665565b82548452928801926001928301920161063a565b80fd5b5050346106d357816003193601126106d3576020906001600160a01b03600254169051908152f35b5080fd5b5050346106d357806003193601126106d357806020926106f5611d85565b6106fd611da0565b6001600160a01b039182168352600d865283832091168252845220549051908152f35b5050346106d357816003193601126106d3576020906001600160a01b03600354169051908152f35b5050346106d357816003193601126106d357602090600e549051908152f35b509190346106d357806003193601126106d35761085b610785611d85565b92602435946001600160a01b03809516808352602090600782526107af87878620541615156121b1565b6107ba8815156121fc565b8084526007825285842060028751916107d283612028565b898154168352896001820154168584015201549788168782015260a060ff60608301998181841c168b52818160a81c16608085015260b01c1615159101528084526008825285842086516108258161205a565b81548152610850600183015460038684019482865260028101548c860152015460608401528b613180565b9790979a82516123b7565b90600654809211610912575b505050819086519384809263313ce56760e01b82525afa928315610907576108e695946108aa60ff6064966108b99682966108b096926108ea575b505016612247565b906128ae565b955116866128ae565b046108c481866123b7565b9151948594859094939260609260808301968352602083015260408201520152565b0390f35b6109009250803d106104c1576104af8183612076565b38806108a2565b8551903d90823e3d90fd5b849a5061092f9397509061092791519061228b565b905190613180565b979094903880610867565b50903461025757602036600319011261025757817f909b37d51ce486819f8eca79b8e045f2ab9789e72cb989f00942fb52da796c879235809161097b613031565b610986821515611de0565b61099a670de0b6b3a7640000831115611e50565b5560055460065492519182526020820152604081019190915280606081015b0390a180f35b5050346106d357816003193601126106d3576001600160a01b0360209254169051908152f35b5050346106d35760203660031901126106d357602090610a0b610a06611d85565b6128d0565b9051908152f35b5050346106d357816003193601126106d35760207f62e78cea01bee320cd4e420270b5ea74000d11b0c9f74754ebdbfc544b05a25891610a50613031565b610a5861310c565b7401000000000000000000000000000000000000000060ff60a01b1985541617845551338152a180f35b5034610257578160031936011261025757610a9b611d85565b926024918235926001600160a01b03809616808452610ac660209760078952878620541615156121b1565b610ad18515156121fc565b80845260088752858420865190610ae78261205a565b805482526001918282015460038b83019382855260028101548c8501520154606083015215610ee457518711610e7d57805185546005548015851715610e6b578291610b42610b3c610b4893610b4d966128ae565b826123b7565b906123b7565b6128ae565b821c8711610e0457859080519287988894828a905b610cee575b5050505050508515610c875715610c465786839187519283809263313ce56760e01b82525afa908115610c3c579060ff918591610c1f575b501692610bab84612247565b908115610c0d5750600019048411610bcc575050906108aa610a0b92612247565b9060156064928787519362461bcd60e51b85528401528201527f546f6b656e20616d6f756e74206f766572666c6f7700000000000000000000006044820152fd5b9050601283634e487b7160e01b835252fd5b610c369150883d8a116104c1576104af8183612076565b38610b9f565b86513d86823e3d90fd5b606483601e848a8a519362461bcd60e51b85528401528201527f496e76616c6964204554482072657475726e2063616c63756c6174696f6e00006044820152fd5b6084846033858b8b519362461bcd60e51b85528401528201527f436f756c64206e6f742066696e642076616c696420746f6b656e20616d6f756e60448201527f7420666f722072657175657374656420455448000000000000000000000000006064820152fd5b8186979c96111580610dfa575b15610df157610d0a82886123b7565b841c9685518811610dcb57610d2b610d2389885161228b565b8751906130c8565b8481111580610dc2575b610db7575b808503610d5557505050505050505094388080808080610b67565b93809596979d9892939410600014610d9c5750848101809111610d8a5784939291610d7f906128c1565b945b95949095610b62565b888b60118c634e487b7160e01b835252fd5b9192506000198101908111610d8a5790610d7f8594936128c1565b9c508796508c610d3a565b508d8111610d35565b9150919293949a956000198101908111610d8a5790610deb8594936128c1565b94610d81565b859b9650610b67565b5060648110610cfb565b6084856034868c8c519362461bcd60e51b85528401528201527f5265717565737465642045544820616d6f756e742065786365656473206d617860448201527f696d756d20706f737369626c652072657475726e0000000000000000000000006064820152fd5b868960118a634e487b7160e01b835252fd5b608485602c868c8c519362461bcd60e51b85528401528201527f5265717565737465642045544820616d6f756e742065786365656473206d617260448201527f6b657420636170616369747900000000000000000000000000000000000000006064820152fd5b606486601b878d8d519362461bcd60e51b85528401528201527f4e6f20746f6b656e7320696e206d61726b657420746f2073656c6c00000000006044820152fd5b83346106a857806003193601126106a857610f3e613031565b806001600160a01b0381546001600160a01b031981168355167f8be0079c531659141344cd1fd0a4f28419497f9722a3daafe3b4186f6b6457e08280a380f35b503461025757602036600319011261025757803591610f9b613031565b610e108311610fac575050600e5580f35b906020606492519162461bcd60e51b8352820152601160248201527f436f6f6c646f776e20746f6f20686967680000000000000000000000000000006044820152fd5b508290346106d357826003193601126106d35761100a611d85565b91602435906001600160a01b038094169283825260206007815261103486888520541615156121b1565b61103f8415156121fc565b84835260078152868320600288519161105783612028565b888154168352886001820154168484015201549687168882015260a060ff60608301988181841c168a52818160a81c16608085015260b01c16151591015284835260088152808784209588516110ac8161205a565b875481526060600360018a0154998584019a8b5260028101548d850152015491015288519384809263313ce56760e01b82525afa928315611174579461112061111760649661111160ff61112f988198611126986108e69d9261115757505016612247565b9061226b565b915191826123b7565b906130c8565b945116846128ae565b049261113b84846123b7565b9051938493846040919493926060820195825260208201520152565b61116d9250803d106104c1576104af8183612076565b8e806108a2565b8751903d90823e3d90fd5b5050346106d35760203660031901126106d3579060ff8260c0936001600160a01b0393846111ab611d85565b1681526007602052209083825416936002816001850154169301549282519586526020860152821690840152818160a01c166060840152818160a81c16608084015260b01c16151560a0820152f35b5050346106d35760203660031901126106d3576112ab906001600160a01b03611221611d85565b611229613031565b16808452600760205261124760ff6002848720015460b01c166121b1565b61125081613377565b50835260076020528260028282208281558260018201550155600860205261128c81842060036000918281558260018201558260028201550155565b6009602052822060036000918281558260018201558260028201550155565b80f35b5050346106d357816003193601126106d35760ff6020925460a01c1690519015158152f35b5034610257576020366003190112610257576112ed611d85565b916112f6613031565b6001600160a01b038316928315611366573b156113235750506001600160a01b0319600354161760035580f35b906020606492519162461bcd60e51b8352820152601a60248201527f466163746f7279206d757374206265206120636f6e74726163740000000000006044820152fd5b606483602084519162461bcd60e51b8352820152601760248201527f496e76616c696420666163746f727920616464726573730000000000000000006044820152fd5b5050346106d357816003193601126106d3576020906005549051908152f35b50346102575781600319360112610257578035916001600160a01b0383168093036105e857602435916113f9613031565b824710611487578480808086885af161141061240f565b50156114455750602084927f04ea5e4f058c19170d8b2bb031497d920d63e7b2245a46a37e782424ad6743ac9251908152a380f35b6020606492519162461bcd60e51b8352820152600f60248201527f5769746864726177206661696c656400000000000000000000000000000000006044820152fd5b6020606492519162461bcd60e51b8352820152601d60248201527f496e73756666696369656e7420636f6e74726163742062616c616e63650000006044820152fd5b50346102575782600319360112610257576114e2613031565b82549060ff8260a01c161561152857507f5db9ee0a495bf2e6ff9c91a7834c1ba4fdd244a5e8aa4e537bd38aeae4b073aa9160ff60a01b1960209216845551338152a180f35b82517f8dfc202b000000000000000000000000000000000000000000000000000000008152fd5b83346106a85761027661156136611db6565b9161156a61310c565b611572613145565b612309565b5034610257576020366003190112610257577f909b37d51ce486819f8eca79b8e045f2ab9789e72cb989f00942fb52da796c87916109b98235926115b9613031565b6115c4841515611e9b565b6115d867016345785d8a0000851115611ef1565b8360055554916006549051938493846040919493926060820195825260208201520152565b5091346106a857816003193601126106a857611617611d85565b926024356001600160a01b038095169283815261164060209660078852868320541615156121b1565b61164b8215156121fc565b8381526008865282868683209587516116638161205a565b875481526060600360018a0154998584019a8b5260028101548c850152015491015287519283809263313ce56760e01b82525afa918215611737576116b793926111119260ff929161171a575b5016612247565b90818351106116d85750906116d0610a0b92825161228b565b9051906130c8565b6064908585519162461bcd60e51b8352820152601d60248201527f496e73756666696369656e7420746f6b656e7320696e206d61726b65740000006044820152fd5b6117319150893d8b116104c1576104af8183612076565b386116b0565b8651903d90823e3d90fd5b5050346106d357806003193601126106d35780602092611760611d85565b611768611da0565b6001600160a01b039182168352600c865283832091168252845220549051908152f35b50903461025757602036600319011261025757816109b97f909b37d51ce486819f8eca79b8e045f2ab9789e72cb989f00942fb52da796c879335916117ce613031565b6117d9831515611f3c565b6117ee683635c9adc5dea00000841115611f92565b8260065554916005549351938493846040919493926060820195825260208201520152565b5050346106d35760603660031901126106d35761182e611d85565b907f04ea5e4f058c19170d8b2bb031497d920d63e7b2245a46a37e782424ad6743ac602061185a611da0565b9360443594611867613031565b6001600160a01b038092169461187e878388613075565b519586521693a380f35b503461025757826003193601126102575760209250549051908152f35b5050346106d35760203660031901126106d35780916001600160a01b036118ca611d85565b168152600960205220906108e6825491600184015493600360028201549101549151948594859094939260609260808301968352602083015260408201520152565b5050346106d35760203660031901126106d35780916001600160a01b03611931611d85565b168152600860205220906108e6825491600184015493600360028201549101549151948594859094939260609260808301968352602083015260408201520152565b5050346106d357816003193601126106d3576020906006549051908152f35b503461025757602091826003193601126105e8576001600160a01b0391826119b8611d85565b1692838652600785526119d760ff6002858920015460b01c1615611fdd565b82516370a0823160e01b815230838201528581602481885afa8015611c7a578790611c84575b611a0991501515612098565b825190630fdb7f6f60e21b825285828481885afa918215611c7a578792611c5b575b508351638ea5220f60e01b815286818581895afa908115611c51579082918991611c34575b5016938051631d507d0760e21b8152878186818a5afa908115611c2a578991611c0d575b5081519463f83a27cd60e01b8652888682818b5afa958615611c03578a96611be4575b50863303611b7c57508893929160ff806002931696611ab9600a89111561211b565b1693611ac86064861115612166565b83825192611ad584612028565b8a84526007828d860194169c8d85528286019b8c52606086019a8b52608086019889528c60a087019a60018c5252528c209251166001600160a01b031990818454161783558460018401925116908254161790550194511676ffffffffffffffffffffffffffffffffffffffffffffff1960ff60b01b60ff60a81b60ff60a01b8854975160a01b16945160a81b169451151560b01b16941617171717905561046781613281565b6084908984519162461bcd60e51b8352820152602560248201527f4f6e6c7920746f6b656e2063726561746f722063616e2072656769737465722060448201527f746f6b656e0000000000000000000000000000000000000000000000000000006064820152fd5b611bfc919650893d8b116104c1576104af8183612076565b9438611a97565b83513d8c823e3d90fd5b611c249150883d8a116104c1576104af8183612076565b38611a74565b82513d8b823e3d90fd5b611c4b9150883d8a11610517576105088183612076565b38611a50565b85513d8a823e3d90fd5b611c73919250863d8811610517576105088183612076565b9038611a2b565b84513d89823e3d90fd5b508581813d8311611cb0575b611c9a8183612076565b81010312611cac57611a0990516119fd565b8680fd5b503d611c90565b50903461025757606036600319011261025757816109b97f909b37d51ce486819f8eca79b8e045f2ab9789e72cb989f00942fb52da796c87933591602435938360443592611d03613031565b611d0e821515611de0565b611d22670de0b6b3a7640000831115611e50565b611d2d871515611e9b565b611d4167016345785d8a0000881115611ef1565b611d4c841515611f3c565b611d61683635c9adc5dea00000851115611f92565b55846005558160065551938493846040919493926060820195825260208201520152565b600435906001600160a01b0382168203611d9b57565b600080fd5b602435906001600160a01b0382168203611d9b57565b6060906003190112611d9b576004356001600160a01b0381168103611d9b57906024359060443590565b15611de757565b608460405162461bcd60e51b8152602060048201526024808201527f496e697469616c207072696365206d757374206265206772656174657220746860448201527f616e2030000000000000000000000000000000000000000000000000000000006064820152fd5b15611e5757565b606460405162461bcd60e51b815260206004820152601660248201527f496e697469616c20707269636520746f6f2068696768000000000000000000006044820152fd5b15611ea257565b608460405162461bcd60e51b815260206004820152602260248201527f507269636520736c6f7065206d7573742062652067726561746572207468616e604482015261020360f41b6064820152fd5b15611ef857565b606460405162461bcd60e51b815260206004820152601460248201527f507269636520736c6f706520746f6f20686967680000000000000000000000006044820152fd5b15611f4357565b608460405162461bcd60e51b815260206004820152602260248201527f4d61782045544820636170206d7573742062652067726561746572207468616e604482015261020360f41b6064820152fd5b15611f9957565b606460405162461bcd60e51b815260206004820152601460248201527f4d6178204554482063617020746f6f20686967680000000000000000000000006044820152fd5b15611fe457565b606460405162461bcd60e51b815260206004820152601860248201527f546f6b656e20616c7265616479207265676973746572656400000000000000006044820152fd5b60c0810190811067ffffffffffffffff82111761204457604052565b634e487b7160e01b600052604160045260246000fd5b6080810190811067ffffffffffffffff82111761204457604052565b90601f8019910116810190811067ffffffffffffffff82111761204457604052565b1561209f57565b606460405162461bcd60e51b815260206004820152601c60248201527f53616c65734d616e61676572206d75737420686f6c6420746f6b656e000000006044820152fd5b90816020910312611d9b57516001600160a01b0381168103611d9b5790565b90816020910312611d9b575160ff81168103611d9b5790565b1561212257565b606460405162461bcd60e51b815260206004820152600c60248201527f54617820746f6f206869676800000000000000000000000000000000000000006044820152fd5b1561216d57565b606460405162461bcd60e51b815260206004820152600d60248201527f496e76616c69642073706c6974000000000000000000000000000000000000006044820152fd5b156121b857565b606460405162461bcd60e51b815260206004820152601460248201527f546f6b656e206e6f7420726567697374657265640000000000000000000000006044820152fd5b1561220357565b606460405162461bcd60e51b815260206004820152601d60248201527f416d6f756e74206d7573742062652067726561746572207468616e20300000006044820152fd5b604d811161225557600a0a90565b634e487b7160e01b600052601160045260246000fd5b8115612275570490565b634e487b7160e01b600052601260045260246000fd5b9190820391821161225557565b1561229f57565b608460405162461bcd60e51b815260206004820152602660248201527f54726164696e67206e6f742079657420656e61626c656420666f72207468697360448201527f20746f6b656e00000000000000000000000000000000000000000000000000006064820152fd5b604051637c7776b160e11b81529291906001600160a01b036020856004818486165afa9485156123ab57600095612377575b50841561236c576003541633146123625761235b61236094421015612298565b61244f565b565b612360935061244f565b50612360935061244f565b9094506020813d6020116123a3575b8161239360209383612076565b81010312611d9b5751933861233b565b3d9150612386565b6040513d6000823e3d90fd5b9190820180921161225557565b156123cb57565b606460405162461bcd60e51b815260206004820152601160248201527f536c69707061676520746f6f20686967680000000000000000000000000000006044820152fd5b3d1561244a573d9067ffffffffffffffff8211612044576040519161243e601f8201601f191660200184612076565b82523d6000602084013e565b606090565b906001600160a01b0380831692600091848352602092600b8452604093848220541561286b576124808615156121fc565b338252600d8152848220878352815261249f85832054600e54906123b7565b421115612828578451917fdd62ed3e0000000000000000000000000000000000000000000000000000000083526004933385850152602493308582015283816044818d5afa90811561281e5790899184916127ed575b50106127ac578882526007835286822060ff600289519261251584612028565b848154168452846001820154168785015201548381168a840152818160a01c166060840152818160a81c16608084015260b01c16151560a08201528983526008845287832086858c8b519283809263313ce56760e01b82525afa9081156127a25760ff6125939261258d92889161171a575016612247565b8b61226b565b906001810180546125ad816125a8868261228b565b6130c8565b9e848210612760578f916125d2836125cb88946125d99610156123c4565b865461228b565b855561228b565b9055600342910155338452600d85528884208b855285524289852055600985528884206126078d82546123b7565b90558a84526009855261262160018a8620019182546123b7565b90558983526009845260038884200161263a81546128c1565b905551168651907f23b872dd000000000000000000000000000000000000000000000000000000008483015233858301523060448301528860648301526064825260a0820182811067ffffffffffffffff82111761274e57885261269e9190613303565b8080808b335af16126ad61240f565b501561270d57505050906127086126e57f3060fdb50698e411317542c0cd2dae5ecdbe3718d3d211886d569d0d062777e294936128d0565b915192835260208301959095526040820152426060820152339381906080820190565b0390a3565b6013929350606494519362461bcd60e51b85528401528201527f455448207472616e73666572206661696c6564000000000000000000000000006044820152fd5b8584604189634e487b7160e01b835252fd5b60648b60178f8c8e91519362461bcd60e51b85528401528201527f556e646572666c6f77206f6e20746f6b656e73536f6c640000000000000000006044820152fd5b8a513d87823e3d90fd5b606485601686868b519362461bcd60e51b85528401528201527f496e73756666696369656e7420616c6c6f77616e6365000000000000000000006044820152fd5b809250858092503d8311612817575b6128068183612076565b8101031261025757889051386124f5565b503d6127fc565b88513d85823e3d90fd5b60649085519062461bcd60e51b82526004820152600d60248201527f53656c6c20636f6f6c646f776e000000000000000000000000000000000000006044820152fd5b60649085519062461bcd60e51b82526004820152601160248201527f556e737570706f7274656420746f6b656e0000000000000000000000000000006044820152fd5b8181029291811591840414171561225557565b60001981146122555760010190565b6128fe906001600160a01b0360045491166000526008602052610b42600160406000200154600554906128ae565b90565b604051637c7776b160e11b81529291906001600160a01b036020856004818486165afa9485156123ab5760009561296d575b508415612962576003541633146129585761295361236094421015612298565b6129a1565b61236093506129a1565b5061236093506129a1565b9094506020813d602011612999575b8161298960209383612076565b81010312611d9b57519338612933565b3d915061297c565b91906129ae8115156121fc565b6001600160a01b03831660005260076020526129d96001600160a01b036040600020541615156121b1565b6001600160a01b0383166000526007602052604060002060ff600260405192612a0184612028565b6001600160a01b0381541684526001600160a01b03600182015416602085015201546001600160a01b0381166040840152818160a01c166060840152818160a81c16608084015260b01c16151560a08201526001600160a01b038416600052600860205260406000209233600052600c60205260406000206001600160a01b038616600052602052612a9b604060002054600e54906123b7565b4210612fed576040519163313ce56760e01b83526020836004816001600160a01b038a165afa9283156123ab57600093612fcc575b50612ae6612ae060ff8516612247565b8561226b565b91600186015492612b00612afa82866123b7565b856130c8565b966064612b1460ff6060870151168a6128ae565b0492612b20848a6123b7565b96825491612b2e8b846123b7565b91600654809311612e5d575b50612b47908911156123c4565b873410612e1957612b588a836123b7565b11612dd55760009383859493612b9f8c879695612b958897612b8f6064612b878f608060ff910151168b6128ae565b04809961228b565b9d6123b7565b60018501556123b7565b8155600242910155338352600c602052604083206001600160a01b038d168452602052426040842055600960205260408320612bdc8c82546123b7565b90556001600160a01b038c1683526009602052612c01600160408520019182546123b7565b90556001600160a01b038b168252600960205260026040832001612c2581546128c1565b9055612c3c89336001600160a01b03895116613075565b6001600160a01b036020870151165af1612c5461240f565b5015612d915760008080936001600160a01b03604083950151165af1612c7861240f565b5015612d4d57612c88903461228b565b80612cec575b507f05f8a6c6c7a11ffcbd08ed43b685d506fad4c4f6232e739549c3008571e7665290612cba846128d0565b6040805192835260208301949094529281019290925242606083015233926001600160a01b0316918060808101612708565b600080808093335af1612cfd61240f565b5015612d095738612c8e565b606460405162461bcd60e51b815260206004820152600d60248201527f526566756e64206661696c6564000000000000000000000000000000000000006044820152fd5b606460405162461bcd60e51b815260206004820152601860248201527f4661696c656420746f2073656e642064657620736861726500000000000000006044820152fd5b606460405162461bcd60e51b815260206004820152601a60248201527f4661696c656420746f2073656e64206167656e742073686172650000000000006044820152fd5b606460405162461bcd60e51b815260206004820152601360248201527f4d617820455448206361702072656163686564000000000000000000000000006044820152fd5b606460405162461bcd60e51b815260206004820152601060248201527f496e73756666696369656e7420455448000000000000000000000000000000006044820152fd5b98509350819950612e7292985080945061228b565b60045490612e8760055492610b4284896128ae565b908160011b7f7fffffffffffffffffffffffffffffffffffffffffffffffffffffffffffffff928381160361225557828216820361225557612ec981806128ae565b7f3fffffffffffffffffffffffffffffffffffffffffffffffffffffffffffffff8516850361225557612f0c612f1191610b42612f169560011b8860021b6128ae565b613461565b61228b565b908216820361225557612f2c9160011b9061226b565b958615612f8857612f3d87866123b7565b612f4790866130c8565b97606085015160ff16612f5a908a6128ae565b6064900493612f69858b6123b7565b9760ff16612f7690612247565b612f80908a6128ae565b989338612b3a565b606460405162461bcd60e51b815260206004820152601060248201527f4e6f20746f6b656e7320746f20627579000000000000000000000000000000006044820152fd5b612fe691935060203d6020116104c1576104af8183612076565b9138612ad0565b606460405162461bcd60e51b815260206004820152601060248201527f436f6f6c646f776e206e6f74206d6574000000000000000000000000000000006044820152fd5b6001600160a01b0360005416330361304557565b60246040517f118cdaa7000000000000000000000000000000000000000000000000000000008152336004820152fd5b612360926001600160a01b03604051937fa9059cbb0000000000000000000000000000000000000000000000000000000060208601521660248401526044830152604482526130c38261205a565b613303565b610b4861310692613100600454936130fa60055495610b426130f36130ed89866128ae565b836123b7565b97866128ae565b9261228b565b926123b7565b60011c90565b60ff60005460a01c1661311b57565b60046040517fd93c0665000000000000000000000000000000000000000000000000000000008152fd5b600260015414613156576002600155565b60046040517f3ee5aeb5000000000000000000000000000000000000000000000000000000008152fd5b9190613195600454610b4260055480946128ae565b8060011b7f7fffffffffffffffffffffffffffffffffffffffffffffffffffffffffffffff9182811603612255578185168503612255576131d681806128ae565b907f3fffffffffffffffffffffffffffffffffffffffffffffffffffffffffffffff8416840361225557612f11612f0c61321a93610b428960011b8860021b6128ae565b9082168203612255576132309160011b9061226b565b9190565b600a5481101561326b57600a6000527fc65a7bb8d6351c1cf70c95a316cc6a92839c986682d98bc35f958f4883f9d2a80190600090565b634e487b7160e01b600052603260045260246000fd5b6000818152600b60205260408120546132fe57600a54680100000000000000008110156132ea5790826132d66132bf84600160409601600a55613234565b819391549060031b91821b91600019901b19161790565b9055600a54928152600b6020522055600190565b602482634e487b7160e01b81526041600452fd5b905090565b906000602091828151910182855af1156123ab576000513d61336e57506001600160a01b0381163b155b6133345750565b6024906001600160a01b03604051917f5274afe7000000000000000000000000000000000000000000000000000000008352166004820152fd5b6001141561332d565b6000818152600b6020526040812054909190801561345c576000199080820181811161344857600a549083820191821161343457818103613400575b505050600a5480156133ec578101906133cb82613234565b909182549160031b1b19169055600a558152600b6020526040812055600190565b602484634e487b7160e01b81526031600452fd5b61341e61340f6132bf93613234565b90549060031b1c928392613234565b90558452600b60205260408420553880806133b3565b602486634e487b7160e01b81526011600452fd5b602485634e487b7160e01b81526011600452fd5b505090565b80156134a65760018082018083116122555760011c90825b8383106134865750505090565b9091925061349d83613498818461226b565b6123b7565b821c9190613479565b5060009056fea264697066735822122011fb5b1040d8ac51b5abe8772fd53b817b0224f5d35437ea92e5f8ea174da29164736f6c63430008160033",
  "linkReferences": {},
  "deployedLinkReferences": {}
}