{
  "_format": "hh-sol-artifact-1",
  "contractName": "ModulsDeployer",
  "sourceName": "contracts/ModulsDeployer.sol",
  "abi": [
    {
      "inputs": [
        {
          "internalType": "address",
          "name": "_salesManager",
          "type": "address"
        }
      ],
      "stateMutability": "nonpayable",
      "type": "constructor"
    },
    {
      "inputs": [
        {
          "internalType": "address",
          "name": "owner",
          "type": "address"
        }
      ],
      "name": "OwnableInvalidOwner",
      "type": "error"
    },
    {
      "inputs": [
        {
          "internalType": "address",
          "name": "account",
          "type": "address"
        }
      ],
      "name": "OwnableUnauthorizedAccount",
      "type": "error"
    },
    {
      "anonymous": false,
      "inputs": [
        {
          "indexed": true,
          "internalType": "address",
          "name": "tokenAddress",
          "type": "address"
        },
        {
          "indexed": false,
          "internalType": "string",
          "name": "name",
          "type": "string"
        },
        {
          "indexed": false,
          "internalType": "string",
          "name": "symbol",
          "type": "string"
        },
        {
          "indexed": false,
          "internalType": "uint256",
          "name": "initialSupply",
          "type": "uint256"
        },
        {
          "indexed": false,
          "internalType": "address",
          "name": "agentWallet",
          "type": "address"
        },
        {
          "indexed": false,
          "internalType": "address",
          "name": "salesManager",
          "type": "address"
        },
        {
          "indexed": false,
          "internalType": "uint8",
          "name": "taxPercent",
          "type": "uint8"
        },
        {
          "indexed": false,
          "internalType": "uint8",
          "name": "agentSplit",
          "type": "uint8"
        },
        {
          "indexed": true,
          "internalType": "uint256",
          "name": "intentId",
          "type": "uint256"
        },
        {
          "indexed": false,
          "internalType": "string",
          "name": "metadataURI",
          "type": "string"
        },
        {
          "indexed": true,
          "internalType": "address",
          "name": "creator",
          "type": "address"
        }
      ],
      "name": "ModulsTokenCreated",
      "type": "event"
    },
    {
      "anonymous": false,
      "inputs": [
        {
          "indexed": true,
          "internalType": "address",
          "name": "previousOwner",
          "type": "address"
        },
        {
          "indexed": true,
          "internalType": "address",
          "name": "newOwner",
          "type": "address"
        }
      ],
      "name": "OwnershipTransferred",
      "type": "event"
    },
    {
      "anonymous": false,
      "inputs": [
        {
          "indexed": true,
          "internalType": "address",
          "name": "oldSalesManager",
          "type": "address"
        },
        {
          "indexed": true,
          "internalType": "address",
          "name": "newSalesManager",
          "type": "address"
        }
      ],
      "name": "SalesManagerUpdated",
      "type": "event"
    },
    {
      "inputs": [
        {
          "internalType": "string",
          "name": "name",
          "type": "string"
        },
        {
          "internalType": "string",
          "name": "symbol",
          "type": "string"
        },
        {
          "internalType": "uint256",
          "name": "initialSupply",
          "type": "uint256"
        },
        {
          "internalType": "address",
          "name": "agentWallet",
          "type": "address"
        },
        {
          "internalType": "uint8",
          "name": "taxPercent",
          "type": "uint8"
        },
        {
          "internalType": "uint8",
          "name": "agentSplit",
          "type": "uint8"
        },
        {
          "internalType": "uint256",
          "name": "intentId",
          "type": "uint256"
        },
        {
          "internalType": "string",
          "name": "metadataURI",
          "type": "string"
        },
        {
          "internalType": "bool",
          "name": "autoRegister",
          "type": "bool"
        }
      ],
      "name": "deployToken",
      "outputs": [
        {
          "internalType": "address",
          "name": "",
          "type": "address"
        }
      ],
      "stateMutability": "nonpayable",
      "type": "function"
    },
    {
      "inputs": [
        {
          "internalType": "uint256",
          "name": "",
          "type": "uint256"
        }
      ],
      "name": "deployedTokens",
      "outputs": [
        {
          "internalType": "address",
          "name": "",
          "type": "address"
        }
      ],
      "stateMutability": "view",
      "type": "function"
    },
    {
      "inputs": [],
      "name": "getDeployedTokens",
      "outputs": [
        {
          "internalType": "address[]",
          "name": "",
          "type": "address[]"
        }
      ],
      "stateMutability": "view",
      "type": "function"
    },
    {
      "inputs": [],
      "name": "getDeployedTokensCount",
      "outputs": [
        {
          "internalType": "uint256",
          "name": "",
          "type": "uint256"
        }
      ],
      "stateMutability": "view",
      "type": "function"
    },
    {
      "inputs": [],
      "name": "owner",
      "outputs": [
        {
          "internalType": "address",
          "name": "",
          "type": "address"
        }
      ],
      "stateMutability": "view",
      "type": "function"
    },
    {
      "inputs": [
        {
          "internalType": "address",
          "name": "tokenAddress",
          "type": "address"
        }
      ],
      "name": "registerDeployedToken",
      "outputs": [],
      "stateMutability": "nonpayable",
      "type": "function"
    },
    {
      "inputs": [],
      "name": "renounceOwnership",
      "outputs": [],
      "stateMutability": "nonpayable",
      "type": "function"
    },
    {
      "inputs": [],
      "name": "salesManager",
      "outputs": [
        {
          "internalType": "address",
          "name": "",
          "type": "address"
        }
      ],
      "stateMutability": "view",
      "type": "function"
    },
    {
      "inputs": [
        {
          "internalType": "address",
          "name": "",
          "type": "address"
        }
      ],
      "name": "tokenCreators",
      "outputs": [
        {
          "internalType": "address",
          "name": "",
          "type": "address"
        }
      ],
      "stateMutability": "view",
      "type": "function"
    },
    {
      "inputs": [
        {
          "internalType": "address",
          "name": "newOwner",
          "type": "address"
        }
      ],
      "name": "transferOwnership",
      "outputs": [],
      "stateMutability": "nonpayable",
      "type": "function"
    },
    {
      "inputs": [
        {
          "internalType": "address",
          "name": "newSalesManager",
          "type": "address"
        }
      ],
      "name": "updateSalesManager",
      "outputs": [],
      "stateMutability": "nonpayable",
      "type": "function"
    },
    {
      "inputs": [
        {
          "internalType": "uint256",
          "name": "",
          "type": "uint256"
        }
      ],
      "name": "usedIntentIds",
      "outputs": [
        {
          "internalType": "bool",
          "name": "",
          "type": "bool"
        }
      ],
      "stateMutability": "view",
      "type": "function"
    }
  ],
  "bytecode": "0x6080346100c657601f61246638819003918201601f19168301916001600160401b038311848410176100cb578084926020946040528339810103126100c657516001600160a01b0390818116908190036100c65733156100ad5760005460018060a01b0319903382821617600055604051933391167f8be0079c531659141344cd1fd0a4f28419497f9722a3daafe3b4186f6b6457e0600080a3600154161760015561238490816100e28239f35b604051631e4fbdf760e01b815260006004820152602490fd5b600080fd5b634e487b7160e01b600052604160045260246000fdfe60808060405260043610156200001457600080fd5b600090813560e01c90816325f1be1f1462000a6c57508063622ae7aa146200099e578063715018a614620009345780637bbf3bc1146200081f5780638da5cb5b14620007f75780638e6ce74b14620007c6578063a3ada2d7146200079d578063caa416121462000395578063ce7e8de81462000356578063de5b42ad14620001b1578063ec81aadb14620001695763f2fde38b14620000b257600080fd5b34620001665760203660031901126200016657620000cf62000a8a565b620000d962000be0565b6001600160a01b0380911690811562000135576000548273ffffffffffffffffffffffffffffffffffffffff19821617600055167f8be0079c531659141344cd1fd0a4f28419497f9722a3daafe3b4186f6b6457e0600080a380f35b602483604051907f1e4fbdf70000000000000000000000000000000000000000000000000000000082526004820152fd5b80fd5b503462000166576020366003190112620001665760043590600254821015620001665760206001600160a01b03620001a18462000b50565b9190546040519260031b1c168152f35b503462000166576020908160031936011262000166576001600160a01b0380620001da62000a8a565b16908183526003845280604084205416330362000312578115620002ce57818352600384528060408420541615620002645782935060015416803b1562000260576024839260405194859384926213049560e71b845260048401525af18015620002555762000247575080f35b620002529062000aa6565b80f35b6040513d84823e3d90fd5b5050fd5b6084846040519062461bcd60e51b82526004820152602360248201527f546f6b656e206e6f74206465706c6f796564206279207468697320636f6e747260448201527f61637400000000000000000000000000000000000000000000000000000000006064820152fd5b6064846040519062461bcd60e51b82526004820152601560248201527f496e76616c696420746f6b656e206164647265737300000000000000000000006044820152fd5b6064846040519062461bcd60e51b82526004820152601f60248201527f4f6e6c7920746f6b656e2063726561746f722063616e207265676973746572006044820152fd5b503462000166576020366003190112620001665760209060406001600160a01b0391826200038362000a8a565b16815260038452205416604051908152f35b50346200016657610120366003190112620001665767ffffffffffffffff906004358281116200079957620003cf90369060040162000af4565b6024358381116200079557620003ea90369060040162000af4565b92606435906001600160a01b038216820362000791576084359460ff861686036200078d5760a4359060ff82168203620007895760e43583811162000785576200043990369060040162000af4565b926101043515156101043503620007855760c4358752600460205260ff604088205416620007415760c4358752600460205260408720600160ff198254161790556001600160a01b03600154166001600160a01b0388541690604051928361172981011090611729850111176200072d57906200054b839261172962000c268539620004f0620004d9610160806117298801526117298701018c62000b9e565b611729860181036020611729880101528762000b9e565b604435611729860160408101919091526001600160a01b038b16606082015233608082015260a081019290925260ff8d811660c0840152881660e083015260c435610100830152818103610120909201919091528762000b9e565b9061014061172984010152039087f09586156200070d5760025468010000000000000000811015620007195780600162000589920160025562000b50565b81549060031b906001600160a01b03808b16831b921b19161790556001600160a01b03871681526003602052604081203373ffffffffffffffffffffffffffffffffffffffff19825416179055610104356200069b575b509060ff60209781936001600160a01b0362000622816001541692620006146040519b6101008d526101008d019062000b9e565b908b82038e8d015262000b9e565b9760443560408b015216606089015260808801521660a08601521660c084015282820360e08401527f760cdaed5e05f2a9ed64c5a3aa2e865755608d62ea80b7a34c2d768dcc7850e53393806200068760c435956001600160a01b0389169562000b9e565b0390a46001600160a01b0360405191168152f35b6001600160a01b036001541690813b156200016657806001600160a01b0360248a8360405196879485936213049560e71b85521660048401525af19081156200070d57509760ff9392849260209a620006fb575b509293509750620005e0565b620007069062000aa6565b38620006ef565b604051903d90823e3d90fd5b602482634e487b7160e01b81526041600452fd5b602489634e487b7160e01b81526041600452fd5b606460405162461bcd60e51b815260206004820152601760248201527f496e74656e74496420616c7265616479206578697374730000000000000000006044820152fd5b8680fd5b8580fd5b8480fd5b8380fd5b8280fd5b5080fd5b5034620001665780600319360112620001665760206001600160a01b0360015416604051908152f35b503462000166576020366003190112620001665760ff60406020926004358152600484522054166040519015158152f35b503462000166578060031936011262000166576001600160a01b036020915416604051908152f35b50346200016657602036600319011262000166576200083d62000a8a565b6200084762000be0565b6001600160a01b03809116908115620008f05760015490811690818314620008ac5773ffffffffffffffffffffffffffffffffffffffff191682176001557f757ef34e0c8b8988066f9ae94ab3e7747f5f3e180aaa7a04bb819f5a9ebad3968380a380f35b606460405162461bcd60e51b815260206004820152601960248201527f53616d652073616c65734d616e616765722061646472657373000000000000006044820152fd5b606460405162461bcd60e51b815260206004820152601c60248201527f496e76616c69642073616c65734d616e616765722061646472657373000000006044820152fd5b503462000166578060031936011262000166576200095162000be0565b806001600160a01b03815473ffffffffffffffffffffffffffffffffffffffff1981168355167f8be0079c531659141344cd1fd0a4f28419497f9722a3daafe3b4186f6b6457e08280a380f35b5034620001665780600319360112620001665760405180916002549081835260208093018092600283527f405787fa12a823e0f2b7631cc41b3ba8828b3321ca811111fa75cd3aa3bb5ace90835b81811062000a4e575050508462000a0591038562000ad1565b60405193838594850191818652518092526040850193925b82811062000a2d57505050500390f35b83516001600160a01b03168552869550938101939281019260010162000a1d565b82546001600160a01b031684529286019260019283019201620009ec565b90503462000799578160031936011262000799576020906002548152f35b600435906001600160a01b038216820362000aa157565b600080fd5b67ffffffffffffffff811162000abb57604052565b634e487b7160e01b600052604160045260246000fd5b90601f8019910116810190811067ffffffffffffffff82111762000abb57604052565b81601f8201121562000aa15780359067ffffffffffffffff821162000abb576040519262000b2d601f8401601f19166020018562000ad1565b8284526020838301011162000aa157816000926020809301838601378301015290565b60025481101562000b885760026000527f405787fa12a823e0f2b7631cc41b3ba8828b3321ca811111fa75cd3aa3bb5ace0190600090565b634e487b7160e01b600052603260045260246000fd5b919082519283825260005b84811062000bcb575050826000602080949584010152601f8019910116010190565b60208183018101518483018201520162000ba9565b6001600160a01b0360005416330362000bf557565b60246040517f118cdaa7000000000000000000000000000000000000000000000000000000008152336004820152fdfe608060405234620008935762001729803803806200001d8162000898565b928339810161016082820312620008935781516001600160401b0381116200089357816200004d918401620008e3565b60208301519092906001600160401b03811162000893578262000072918301620008e3565b60408201519262000086606084016200093a565b9462000095608085016200093a565b91620000a460a086016200093a565b95620000b360c087016200094f565b94620000c260e088016200094f565b61010088015161012089015190949192916001600160401b0382116200089357620000f761014091620000ff938c01620008e3565b99016200093a565b855190956001600160401b038211620005c15760035490600182811c9216801562000888575b6020831014620005a05781601f84931162000813575b50602090601f831160011462000788576000926200077c575b50508160011b916000199060031b1c1916176003555b8051906001600160401b038211620005c15760045490600182811c9216801562000771575b6020831014620005a05781601f849311620006ff575b50602090601f8311600114620006745760009262000668575b50508160011b916000199060031b1c1916176004555b6001600160a01b038416156200064f57600580546001600160a01b038681166001600160a01b0319831681179093556040519291167f8be0079c531659141344cd1fd0a4f28419497f9722a3daafe3b4186f6b6457e0600080a3600a60ff8816116200061c5750606460ff821611620005d757600780546001600160a01b038b81166001600160a01b031992831617909255600880548b841692169190911790556009805460ff60a81b60a885901b169288166001600160b01b03199091161760ff60a01b60a08a901b1617919091179055600a83905586516001600160401b038111620005c157600b54600181811c91168015620005b6575b6020821014620005a057601f811162000536575b50806020601f8211600114620004ab576000916200049f575b508160011b916000199060031b1c191617600b555b600680546001600160a01b0319166001600160a01b0386169081179091556000908152600c60205260409020805460ff19166001179055670de0b6b3a7640000828102928015908404909114171562000470576001600160a01b03881615620004865760025482810180911162000470576002556001600160a01b038816600081815260208181526040808320805487019055519485527f697f6c22c94f7a1ef802afc6845e04b1d37753053e40bbac26064edd8c267b069860ff958694919391927fddf252ad1be2c89b69c2b068fc378daa952ba7f163c4a11628f55a4df523b3ef91a36040519960018060a01b03168a52166020890152166040870152606086015260c0608086015262000437845180958160c0890152602060e089019101620008be565b6001600160a01b0390811660a08601529081169416923092601f01601f1916810181900360e00190a4604051610dca90816200095f8239f35b634e487b7160e01b600052601160045260246000fd5b60405163ec442f0560e01b815260006004820152602490fd5b905088015138620002fb565b600b60009081527f0175b7a638427703f0dbe7bb9bbf987a2551717b34e79f33b5b1008d1fa01db99250601f198416905b8b8282106200051d575050908360019493921062000503575b5050811b01600b5562000310565b8a015160001960f88460031b161c191690553880620004f5565b60018495602093958493015181550194019201620004dc565b600b6000527f0175b7a638427703f0dbe7bb9bbf987a2551717b34e79f33b5b1008d1fa01db9601f830160051c8101916020841062000595575b601f0160051c01905b818110620005885750620002e2565b6000815560010162000579565b909150819062000570565b634e487b7160e01b600052602260045260246000fd5b90607f1690620002ce565b634e487b7160e01b600052604160045260246000fd5b60405162461bcd60e51b815260206004820152601a60248201527f4167656e742073706c6974206d757374206265203c3d203130300000000000006044820152606490fd5b62461bcd60e51b815260206004820152600e60248201526d4d6178207461782069732031302560901b6044820152606490fd5b604051631e4fbdf760e01b815260006004820152602490fd5b015190503880620001be565b600460009081527f8a35acfbc15ff81a39ae7d344fd709f28e8600b4aa8c65c6b64bfe7fe36bd19b9350601f198516905b818110620006e65750908460019594939210620006cc575b505050811b01600455620001d4565b015160001960f88460031b161c19169055388080620006bd565b92936020600181928786015181550195019301620006a5565b60046000529091507f8a35acfbc15ff81a39ae7d344fd709f28e8600b4aa8c65c6b64bfe7fe36bd19b601f840160051c81016020851062000769575b90849392915b601f830160051c8201811062000759575050620001a5565b6000815585945060010162000741565b50806200073b565b91607f16916200018f565b01519050388062000154565b600360009081527fc2575a0e9e593c00f959f8c92f12db2869c3395a3b0502d05e2516446f71f85b9350601f198516905b818110620007fa5750908460019594939210620007e0575b505050811b016003556200016a565b015160001960f88460031b161c19169055388080620007d1565b92936020600181928786015181550195019301620007b9565b60036000529091507fc2575a0e9e593c00f959f8c92f12db2869c3395a3b0502d05e2516446f71f85b601f840160051c810191602085106200087d575b90601f859493920160051c01905b8181106200086d57506200013b565b600081558493506001016200085e565b909150819062000850565b91607f169162000125565b600080fd5b6040519190601f01601f191682016001600160401b03811183821017620005c157604052565b60005b838110620008d25750506000910152565b8181015183820152602001620008c1565b81601f82011215620008935780516001600160401b038111620005c15762000915601f8201601f191660200162000898565b92818452602082840101116200089357620009379160208085019101620008be565b90565b51906001600160a01b03821682036200089357565b519060ff82168203620008935756fe608060408181526004918236101561001657600080fd5b600092833560e01c91826303ee438c14610a705750816306fdde0314610994578163095ea7b3146108ec5781630ada1b8a146108cd57816318160ddd146108ae57816323b872dd146107a257816324d7806c14610766578163313ce5671461074a5781633f4ba83a1461068d5781633f6dfdbc146106655781634b0bddd21461060d5781635c975abb146105e657816370a08231146105b0578163715018a6146105455781637541f41c146105205781638456cb591461044d5781638da5cb5b146104255781638ea5220f146103fd57816395d89b41146102dc578163a3ada2d7146102b4578163a9059cbb14610283578163cdcd7fb51461025b578163dd62ed3e14610212578163f2fde38b1461015f575063f83a27cd1461013857600080fd5b3461015b578160031936011261015b5760209060ff60095460a81c169051908152f35b5080fd5b90503461020e57602036600319011261020e5761017a610b93565b90610183610d50565b6001600160a01b038092169283156101df5750506005548273ffffffffffffffffffffffffffffffffffffffff19821617600555167f8be0079c531659141344cd1fd0a4f28419497f9722a3daafe3b4186f6b6457e08380a380f35b908460249251917f1e4fbdf7000000000000000000000000000000000000000000000000000000008352820152fd5b8280fd5b50503461015b578060031936011261015b5780602092610230610b93565b610238610bae565b6001600160a01b0391821683526001865283832091168252845220549051908152f35b50503461015b578160031936011261015b576020906001600160a01b03600654169051908152f35b50503461015b578060031936011261015b576020906102ad6102a3610b93565b6024359033610c29565b5160018152f35b50503461015b578160031936011261015b576020906001600160a01b03600854169051908152f35b83833461015b578160031936011261015b5780519082845460018160011c90600183169283156103f3575b60209384841081146103e0578388529081156103c4575060011461036f575b505050829003601f01601f191682019267ffffffffffffffff84118385101761035c5750829182610358925282610b4a565b0390f35b80604186634e487b7160e01b6024945252fd5b8787529192508591837f8a35acfbc15ff81a39ae7d344fd709f28e8600b4aa8c65c6b64bfe7fe36bd19b5b8385106103b05750505050830101858080610326565b80548886018301529301928490820161039a565b60ff1916878501525050151560051b8401019050858080610326565b60248960228c634e487b7160e01b835252fd5b91607f1691610307565b50503461015b578160031936011261015b576020906001600160a01b03600954169051908152f35b50503461015b578160031936011261015b576020906001600160a01b03600554169051908152f35b90503461020e578260031936011261020e57338352600c60205261047660ff8385205416610bc4565b6005549060ff8260a01c166104f957507f62e78cea01bee320cd4e420270b5ea74000d11b0c9f74754ebdbfc544b05a258917401000000000000000000000000000000000000000060ff60a01b19602093161760055551338152a1337f3c2a06758d6f796d04ad3c57bffc54710a90828cbfb768bf649e2eb3501d52eb8280a280f35b82517fd93c0665000000000000000000000000000000000000000000000000000000008152fd5b50503461015b578160031936011261015b5760209060ff60095460a01c169051908152f35b83346105ad57806003193601126105ad5761055e610d50565b806001600160a01b0360055473ffffffffffffffffffffffffffffffffffffffff198116600555167f8be0079c531659141344cd1fd0a4f28419497f9722a3daafe3b4186f6b6457e08280a380f35b80fd5b50503461015b57602036600319011261015b57806020926001600160a01b036105d7610b93565b16815280845220549051908152f35b50503461015b578160031936011261015b5760209060ff60055460a01c1690519015158152f35b50503461015b578060031936011261015b57610627610b93565b9060243591821515809303610661576001600160a01b0390610647610d50565b168352600c60205282209060ff8019835416911617905580f35b8380fd5b50503461015b578160031936011261015b576020906001600160a01b03600754169051908152f35b90503461020e578260031936011261020e57338352600c6020526106b660ff8385205416610bc4565b6005549060ff8260a01c161561072357507f5db9ee0a495bf2e6ff9c91a7834c1ba4fdd244a5e8aa4e537bd38aeae4b073aa9160ff60a01b196020921660055551338152a1337fe954f7396fd9cc255484ca6218954fe31ede819d7dbcd45c7a07313196d44c0f8280a280f35b82517f8dfc202b000000000000000000000000000000000000000000000000000000008152fd5b50503461015b578160031936011261015b576020905160128152f35b50503461015b57602036600319011261015b5760ff816020936001600160a01b0361078f610b93565b168152600c855220541690519015158152f35b905082346105ad5760603660031901126105ad576107be610b93565b6107c6610bae565b91604435936001600160a01b038316808352600160205286832033845260205286832054916000198310610803575b6020886102ad898989610c29565b86831061086957811561085357331561083d575082526001602090815286832033845281529186902090859003905582906102ad876107f5565b60249084895191634a1406b160e11b8352820152fd5b6024908489519163e602df0560e01b8352820152fd5b87517ffb8f41b2000000000000000000000000000000000000000000000000000000008152339181019182526020820193909352604081018790528291506060010390fd5b50503461015b578160031936011261015b576020906002549051908152f35b50503461015b578160031936011261015b57602090600a549051908152f35b90503461020e578160031936011261020e57610906610b93565b60243590331561097e576001600160a01b031691821561096857508083602095338152600187528181208582528752205582519081527f8c5be1e5ebec7d5bd14f71427d1e84f3dd0314c0f7b2291e5b200ac8c7c3b925843392a35160018152f35b60249085855191634a1406b160e11b8352820152fd5b6024838686519163e602df0560e01b8352820152fd5b83833461015b578160031936011261015b578051908260035460018160011c9060018316928315610a66575b60209384841081146103e0578388529081156103c45750600114610a1057505050829003601f01601f191682019267ffffffffffffffff84118385101761035c5750829182610358925282610b4a565b600387529192508591837fc2575a0e9e593c00f959f8c92f12db2869c3395a3b0502d05e2516446f71f85b5b838510610a525750505050830101858080610326565b805488860183015293019284908201610a3c565b91607f16916109c0565b8490843461020e578260031936011261020e5782600b5460018160011c9060018316928315610b40575b60209384841081146103e0578388529081156103c45750600114610aea57505050829003601f01601f191682019267ffffffffffffffff84118385101761035c5750829182610358925282610b4a565b600b87529192508591837f0175b7a638427703f0dbe7bb9bbf987a2551717b34e79f33b5b1008d1fa01db95b838510610b2c5750505050830101858080610326565b805488860183015293019284908201610b16565b91607f1691610a9a565b6020808252825181830181905290939260005b828110610b7f57505060409293506000838284010152601f8019910116010190565b818101860151848201604001528501610b5d565b600435906001600160a01b0382168203610ba957565b600080fd5b602435906001600160a01b0382168203610ba957565b15610bcb57565b60646040517f08c379a000000000000000000000000000000000000000000000000000000000815260206004820152600c60248201527f4e6f7420616e2061646d696e00000000000000000000000000000000000000006044820152fd5b916001600160a01b03808416928315610d1f5716928315610cee5760009083825281602052604082205490838210610ca3575091604082827fddf252ad1be2c89b69c2b068fc378daa952ba7f163c4a11628f55a4df523b3ef958760209652828652038282205586815220818154019055604051908152a3565b6040517fe450d38c0000000000000000000000000000000000000000000000000000000081526001600160a01b03919091166004820152602481019190915260448101839052606490fd5b60246040517fec442f0500000000000000000000000000000000000000000000000000000000815260006004820152fd5b60246040517f96c6fd1e00000000000000000000000000000000000000000000000000000000815260006004820152fd5b6001600160a01b03600554163303610d6457565b60246040517f118cdaa7000000000000000000000000000000000000000000000000000000008152336004820152fdfea264697066735822122093268ee88bdbc9aa8ace9a2a2db3c537de1f3ab68a26fbb66427f347b5edb6e964736f6c63430008160033a2646970667358221220714da811b02df36adace23c9de3717fc6eb8f4d2ed8e7db5ff11fb2f3a6fa4a564736f6c63430008160033",
  "linkReferences": {},
  "deployedLinkReferences": {}
}